:020000040800F2
:100000000000032041040008856E0008896E000886
:100010008D6E0008916E0008956E000800000000CB
:10002000000000000000000000000000996E0008C1
:100030009D6E000800000000A16E0008A56E00087B
:100040006D0400086D0400086D0400086D040008CC
:100050006D0400086D0400086D0400086D040008BC
:100060006D0400086D0400086D0400086D040008AC
:100070006D0400086D0400086D0400086D0400089C
:100080006D0400086D0400086D0400086D0400088C
:100090006D0400086D0400086D0400086D0400087C
:1000A0006D0400086D0400086D0400086D0400086C
:1000B0006D040008AD6E00086D0400086D040008B2
:1000C0006D0400086D0400086D0400086D0400084C
:1000D0006D040008BD6E00086D0400086D04000882
:1000E0006D0400086D0400086D0400086D0400082C
:1000F0006D0400086D0400086D0400086D0400081C
:100100006D0400086D0400086D0400086D0400080B
:100110006D0400086D0400086D0400086D040008FB
:100120006D0400086D0400086D0400086D040008EB
:100130006D0400086D0400086D0400086D040008DB
:100140006D0400086D0400086D0400086D040008CB
:100150006D0400086D0400086D0400086D040008BB
:100160006D0400086D0400086D0400086D040008AB
:100170006D0400086D0400086D0400080000000014
:100180006D0400086D0400086D0400086D0400088B
:100190006D0400086D0400086D0400086D0400087B
:1001A0006D0400086D0400086D04000800000320C1
:1001B00041040008856E0008896E00088D6E0008F5
:1001C000916E0008956E000800000000000000001D
:1001D0000000000000000000996E00089D6E0008FD
:1001E00000000000A16E0008A56E00086D04000864
:1001F0006D0400086D0400086D0400086D0400081B
:100200006D0400086D0400086D0400086D0400080A
:100210006D0400086D0400086D0400086D040008FA
:100220006D0400086D0400086D0400086D040008EA
:100230006D0400086D0400086D0400086D040008DA
:100240006D0400086D0400086D0400086D040008CA
:100250006D0400086D0400086D0400086D040008BA
:10026000AD6E00086D0400086D0400086D04000800
:100270006D0400086D0400086D0400086D0400089A
:10028000BD6E00086D0400086D0400086D040008D0
:100290006D0400086D0400086D0400086D0400087A
:1002A0006D0400086D0400086D040008CD6E0008A0
:1002B0006D0400086D0400086D0400086D0400085A
:1002C0006D0400086D0400086D0400086D0400084A
:1002D0006D0400086D0400086D0400086D0400083A
:1002E0006D0400086D0400086D0400086D0400082A
:1002F0006D0400086D0400086D0400086D0400081A
:100300006D0400086D0400086D0400086D04000809
:100310006D0400086D0400086D0400086D040008F9
:100320006D0400086D040008CD6E00086D0400081F
:100330006D040008314B324A1360324A1360324B6D
:1003400002E000221A600433304A9342F9D32C4B66
:100350001B6813B92B4B1B6803B1FEE7274B2C4AD4
:1003600013602C4A13602C4B2C4A03E0116819606F
:10037000043304322A498B42F8D3254B1A68294B9F
:100380009A4204D1234B1A681B689A4200D0FEE7B8
:1003900000B583B004F050FB01A8694604F0E6FA0A
:1003A000214C224B1C1BA410002504E01E4B53F8CB
:1003B000253098470135AC42F8DC1D4C1D4B1C1B09
:1003C000A410002504E01A4B53F825309847013556
:1003D000AC42F8DC0198009904F06AFF0546164C1F
:1003E000164B1C1BA41004E0013C134B53F82430A3
:1003F0009847002CF8DC284604F08AFABABADECA1C
:100400008C2100202C2900208C2100203029002064
:1004100000000020882100200000002038CF0008C4
:100420008C210020785634127004000870040008F3
:1004300070040008700400087004000870040008CC
:1004400008B5FFF777FF00BFFEE700BFFEE700BF7C
:10045000FEE700BFFEE700BFFEE700BFFEE700BF0C
:10046000FEE700BFFEE700BFFEE700BFFEE700BFFC
:1004700010B5044602F07EFB064BA3FB003080095A
:1004800000F0ACF84FF0FF302146002200F058F8A1
:10049000002010BDD34D621008B50B4B1A6842F412
:1004A00000721A601A6842F480621A601A6842F494
:1004B00080721A60032000F025F80F20FFF7D8FFA4
:1004C00005F0D2FE002008BD003C0240024A13683D
:1004D00001331360704700BF90210020014B186862
:1004E000704700BF9021002010B582B00190FFF747
:1004F000F5FF0446FFF7F2FF001B019B9842F9D37A
:1005000002B010BD10B50446C31E042B03D90A481F
:10051000A42104F033FA04F00700084AD36823F456
:10052000E0631B041B0C43EA002040F0BF6040F472
:100530000030D06010BD00BF5098000800ED00E012
:1005400070B504460E4615460F2A03D91A48BC2139
:1005500004F014FA0F2E03D91748BD2104F00EFA47
:10056000164BDB68C3F30223C3F10702042A28BF3A
:100570000422191D062901D9D81E00E000200123FC
:1005800003FA02F2013A324002FA00F183405A1EA5
:100590002A400A43002C06DA04F00F041201D2B2FA
:1005A000074B1A5570BD1201D2B204F1604404F534
:1005B000614484F8002370BD5098000800ED00E00D
:1005C00014ED00E0410900F01F0001238340024ABE
:1005D00042F82130704700BF00E100E00138B0F17F
:1005E000807F0AD2064B5860F021064A82F8231019
:1005F0000020986007221A6070470120704700BFF2
:1006000010E000E000ED00E0002800F0008110B5EF
:10061000044603687F4A934231D0183293422ED069
:10062000183293422BD01832934228D0183293427A
:1006300025D01832934222D0183293421FD018325C
:1006400093421CD002F55672934218D0183293424E
:1006500015D01832934212D0183293420FD018326C
:1006600093420CD01832934209D01832934206D0EC
:100670001832934203D06848B52104F07FF96368CB
:10068000C3B1B3F1007F15D0B3F1806F12D0B3F1D5
:10069000C06F0FD0B3F1006F0CD0B3F1206F09D051
:1006A000B3F1406F06D0B3F1606F03D05A48B62162
:1006B00004F064F9A3683BB1402B05D0802B03D034
:1006C0005548B72104F05AF9E368B3F5007F04D028
:1006D0001BB15148B82104F051F92369B3F5806F7B
:1006E00004D01BB14C48B92104F048F963694BB1FF
:1006F000B3F5006F06D0B3F5805F03D04648BA214A
:1007000004F03CF9A3694BB1B3F5005F06D0B3F533
:10071000804F03D04048BB2104F030F9E36943B176
:10072000B3F5807F05D0202B03D03B48BC2104F0DB
:1007300025F9236A63B1B3F5803F09D0B3F5003FD3
:1007400006D0B3F5403F03D03348BD2104F016F97D
:10075000636A2BB1042B03D02F48BE2104F00EF99D
:10076000636A23B3A36A032B03D92B48C32104F084
:1007700005F9E36A63B1B3F5000F09D0B3F1807FE7
:1007800006D0B3F1C07F03D02348C42104F0F6F8AB
:10079000236B63B1B3F5001F09D0B3F5800F06D00A
:1007A000B3F5C00F03D01C48C52104F0E7F80223BD
:1007B00084F8353020680268184B13406168A268DD
:1007C0001143E26811432269114362691143A2692E
:1007D0001143E2691143226A0A431343626A042AFD
:1007E00003D1E16A226B0A43134303602268536911
:1007F00023F00703616A0B43042901D1A16A0B436B
:1008000053610020E064012384F8353010BD0120DD
:10081000704700BF10600240849800083F8014F0C9
:100820000346002800F0088790F83520D2B2022A4B
:1008300000F0048701680A6822F001020A6001687A
:1008400000220A6001684A6001688A600168CA6023
:1008500001680A610268212151610268AA498A423D
:1008600054D9A1F589618A424CD001F580618A4250
:1008700046D0A1F568718A4240D001F580618A4274
:100880003AD0A1F589618A4233D001F580618A426C
:100890002CD0A1F568718A4225D001F580618A4289
:1008A0001ED0A1F589618A4217D001F580618A4284
:1008B00010D0A1F568718A4209D001F580618A42A1
:1008C00002D14FF480211EE04FF080711BE04FF405
:1008D000802118E04FF4802115E04FF4802112E0D0
:1008E0004FF480710FE04FF480710CE04FF4807191
:1008F00009E04FF4807106E0844904E0834902E096
:10090000824900E08149824AD1600EE181498A42F0
:1009100053D9A8398A424CD001F580618A4246D029
:10092000A1F568718A4240D001F580618A423AD0CF
:10093000A1F589618A4233D001F580618A422CD0C9
:10094000A1F568718A4225D001F580618A421ED0E6
:10095000A1F589618A4217D001F580618A4210D0E1
:10096000A1F568718A4209D001F580618A4202D1FD
:100970004FF480211EE04FF080711BE04FF4802186
:1009800018E04FF4802115E04FF4802112E04FF47D
:1009900080710FE04FF480710CE04FF4807109E03A
:1009A0004FF4807106E0594904E0584902E0574984
:1009B00000E05649564A9160B7E057498A4253D9F8
:1009C00048398A424CD001F580618A4246D0A1F56F
:1009D00068718A4240D001F580618A423AD0A1F51F
:1009E00089618A4233D001F580618A422CD0A1F519
:1009F00068718A4225D001F580618A421ED0A1F536
:100A000089618A4217D001F580618A4210D0A1F530
:100A100068718A4209D001F580618A4202D14FF49F
:100A200080211EE04FF080711BE04FF4802118E020
:100A30004FF4802115E04FF4802112E04FF48071D3
:100A40000FE04FF480710CE04FF4807109E04FF437
:100A5000807106E02D4904E02C4902E02B4900E0BA
:100A60002A492E4AD16060E02D498A425AD001F5C8
:100A700080618A4246D0A1F568718A4240D001F572
:100A800080618A423AD0A1F589618A4233D001F56A
:100A900080618A422CD0A1F568718A4225D001F587
:100AA00080618A421ED0A1F589618A4217D001F582
:100AB00080618A4210D0A1F568718A4209D001F59F
:100AC00080618A4202D14FF480212CE04FF0807186
:100AD00029E04FF4802126E04FF4802123E04FF4F9
:100AE000802120E04FF480711DE04FF480711AE006
:100AF0004FF4807117E04FF4807114E0034912E065
:100B0000024910E001490EE05864024004008000F0
:100B100000640240B8600240586002400060024039
:100B200010600240AC49AD4A91601A68AC498A42F3
:100B300054D9A1F589618A424CD001F580618A427D
:100B400046D0A1F568718A4240D001F580618A42A1
:100B50003AD0A1F589618A4233D001F580618A4299
:100B60002CD0A1F568718A4225D001F580618A42B6
:100B70001ED0A1F589618A4217D001F580618A42B1
:100B800010D0A1F568718A4209D001F580618A42CE
:100B900002D14FF400111EE04FF000611BE04FF452
:100BA000001118E04FF4001115E04FF4001112E0AD
:100BB0004FF400610FE04FF400610CE04FF400616E
:100BC00009E04FF4006106E0202104E0202102E06A
:100BD000202100E02021834AD1600EE182498A422F
:100BE00053D9A8398A424CD001F580618A4246D057
:100BF000A1F568718A4240D001F580618A423AD0FD
:100C0000A1F589618A4233D001F580618A422CD0F6
:100C1000A1F568718A4225D001F580618A421ED013
:100C2000A1F589618A4217D001F580618A4210D00E
:100C3000A1F568718A4209D001F580618A4202D12A
:100C40004FF400111EE04FF000611BE04FF4001163
:100C500018E04FF4001115E04FF4001112E04FF4CA
:100C600000610FE04FF400610CE04FF4006109E017
:100C70004FF4006106E0202104E0202102E0202161
:100C800000E02021574A9160B7E058498A4253D981
:100C900048398A424CD001F580618A4246D0A1F59C
:100CA00068718A4240D001F580618A423AD0A1F54C
:100CB00089618A4233D001F580618A422CD0A1F546
:100CC00068718A4225D001F580618A421ED0A1F563
:100CD00089618A4217D001F580618A4210D0A1F55E
:100CE00068718A4209D001F580618A4202D14FF4CD
:100CF00000111EE04FF000611BE04FF4001118E0FE
:100D00004FF4001115E04FF4001112E04FF40061B0
:100D10000FE04FF400610CE04FF4006109E04FF484
:100D2000006106E0202104E0202102E0202100E013
:100D300020212A4AD16060E02D498A425AD001F52B
:100D400080618A4246D0A1F568718A4240D001F59F
:100D500080618A423AD0A1F589618A4233D001F597
:100D600080618A422CD0A1F568718A4225D001F5B4
:100D700080618A421ED0A1F589618A4217D001F5AF
:100D800080618A4210D0A1F568718A4209D001F5CC
:100D900080618A4202D14FF400112CE04FF00061D3
:100DA00029E04FF4001126E04FF4001123E04FF446
:100DB000001120E04FF400611DE04FF400611AE0E3
:100DC0004FF4006117E04FF4006114E0202112E0BD
:100DD000202110E020210EE004008000006002408D
:100DE0005864024000640240B8600240586002400B
:100DF000106002402021AC4A91601A68AB498A42D7
:100E000054D9A1F589618A424CD001F580618A42AA
:100E100046D0A1F568718A4240D001F580618A42CE
:100E20003AD0A1F589618A4233D001F580618A42C6
:100E30002CD0A1F568718A4225D001F580618A42E3
:100E40001ED0A1F589618A4217D001F580618A42DE
:100E500010D0A1F568718A4209D001F580618A42FB
:100E600002D14FF400211EE04FF000711BE04FF45F
:100E7000002118E04FF4002115E04FF4002112E0AA
:100E80004FF400710FE04FF400710CE04FF400716B
:100E900009E04FF4007106E0082104E0082102E0B7
:100EA000082100E00821824AD1600CE181498A4290
:100EB00053D9A8398A424CD001F580618A4246D084
:100EC000A1F568718A4240D001F580618A423AD02A
:100ED000A1F589618A4233D001F580618A422CD024
:100EE000A1F568718A4225D001F580618A421ED041
:100EF000A1F589618A4217D001F580618A4210D03C
:100F0000A1F568718A4209D001F580618A4202D157
:100F10004FF400211EE04FF000711BE04FF4002160
:100F200018E04FF4002115E04FF4002112E04FF4D7
:100F300000710FE04FF400710CE04FF4007109E014
:100F40004FF4007106E0082104E0082102E00821C6
:100F500000E00821564A9160B5E057498A4253D9CA
:100F600048398A424CD001F580618A4246D0A1F5C9
:100F700068718A4240D001F580618A423AD0A1F579
:100F800089618A4233D001F580618A422CD0A1F573
:100F900068718A4225D001F580618A421ED0A1F590
:100FA00089618A4217D001F580618A4210D0A1F58B
:100FB00068718A4209D001F580618A4202D14FF4FA
:100FC00000211EE04FF000711BE04FF4002118E0FB
:100FD0004FF4002115E04FF4002112E04FF40071AE
:100FE0000FE04FF400710CE04FF4007109E04FF492
:100FF000007106E0082104E0082102E0082100E079
:101000000821294AD1605EE02C498A4258D001F576
:1010100080618A4246D0A1F568718A4240D001F5CC
:1010200080618A423AD0A1F589618A4233D001F5C4
:1010300080618A422CD0A1F568718A4225D001F5E1
:1010400080618A421ED0A1F589618A4217D001F5DC
:1010500080618A4210D0A1F568718A4209D001F5F9
:1010600080618A4202D14FF400212AE04FF00071E2
:1010700027E04FF4002124E04FF4002121E04FF459
:1010800000211EE04FF400711BE04FF4007118E0E6
:101090004FF4007115E04FF4007112E0082110E0E8
:1010A00008210EE008210CE0006002405864024074
:1010B00000640240B8600240586002401060024084
:1010C0000821A44A91601A68A3498A4250D9A1F51F
:1010D00089618A4248D001F580618A4242D0A1F5F7
:1010E00068718A423CD001F580618A4236D0A1F510
:1010F00089618A4230D001F580618A422AD0A1F507
:1011000068718A4224D001F580618A421ED0A1F51F
:1011100089618A4217D001F580618A4210D0A1F519
:1011200068718A4209D001F580618A4202D14FF488
:1011300080311AE04FF4800117E04FF4803114E061
:101140004FF4803111E04FF480310EE040210CE08B
:1011500040210AE0402108E0402106E07F4904E008
:101160007E4902E07D4900E07C497D4AD16002E190
:101170007C498A424FD9A8398A4248D001F580611A
:101180008A4242D0A1F568718A423CD001F5806163
:101190008A4236D0A1F589618A4230D001F580615A
:1011A0008A422AD0A1F568718A4224D001F5806173
:1011B0008A421ED0A1F589618A4217D001F580616B
:1011C0008A4210D0A1F568718A4209D001F5806188
:1011D0008A4202D14FF480311AE04FF4800117E0C7
:1011E0004FF4803114E04FF4803111E04FF480313E
:1011F0000EE040210CE040210AE0402108E04021BF
:1012000006E0564904E0554902E0544900E05349DC
:10121000534A9160AFE054498A424FD948398A42D3
:1012200048D001F580618A4242D0A1F568718A42B6
:101230003CD001F580618A4236D0A1F589618A42AD
:1012400030D001F580618A422AD0A1F568718A42C6
:1012500024D001F580618A421ED0A1F589618A42BD
:1012600017D001F580618A4210D0A1F568718A42D9
:1012700009D001F580618A4202D14FF480311AE031
:101280004FF4800117E04FF4803114E04FF48031C7
:1012900011E04FF480310EE040210CE040210AE0E3
:1012A000402108E0402106E02C4904E02B4902E0FF
:1012B0002A4900E02949274AD1605CE02B498A424B
:1012C00056D001F580618A4242D0A1F568718A4208
:1012D0003CD001F580618A4236D0A1F589618A420D
:1012E00030D001F580618A422AD0A1F568718A4226
:1012F00024D001F580618A421ED0A1F589618A421D
:1013000017D001F580618A4210D0A1F568718A4238
:1013100009D001F580618A4202D14FF4803128E082
:101320004FF4800125E04FF4803122E04FF480310A
:101330001FE04FF480311CE040211AE0402118E00A
:10134000402116E0402114E0044912E0034910E076
:1013500002490EE000600240586402400100800033
:1013600000640240B86002405860024010600240D1
:10137000B349B44A91601A68B3498A4254D9A1F575
:1013800089618A424CD001F580618A4246D0A1F53C
:1013900068718A4240D001F580618A423AD0A1F555
:1013A00089618A4233D001F580618A422CD0A1F54F
:1013B00068718A4225D001F580618A421ED0A1F56C
:1013C00089618A4217D001F580618A4210D0A1F567
:1013D00068718A4209D001F580618A4202D14FF4D6
:1013E00080111EE04FF080611BE04FF4801118E087
:1013F0004FF4801115E04FF4801112E04FF480613A
:101400000FE04FF480610CE04FF4806109E04FF48D
:10141000806106E0102104E0102102E0102100E0CC
:1014200010218A4AD16000E189498A4253D9A839FA
:101430008A424CD001F580618A4246D0A1F568719C
:101440008A4240D001F580618A423AD0A1F5896193
:101450008A4233D001F580618A422CD0A1F56871AF
:101460008A4225D001F580618A421ED0A1F58961AA
:101470008A4217D001F580618A4210D0A1F56871C7
:101480008A4209D001F580618A4202D14FF480116D
:101490001EE04FF080611BE04FF4801118E04FF424
:1014A000801115E04FF4801112E04FF480610FE0DD
:1014B0004FF480610CE04FF4806109E04FF48061EB
:1014C00006E0102104E0102102E0102100E01021CC
:1014D0005E4A9160A9E05F498A4253D948398A42FD
:1014E0004CD001F580618A4246D0A1F568718A42EC
:1014F00040D001F580618A423AD0A1F589618A42E3
:1015000033D001F580618A422CD0A1F568718A42FE
:1015100025D001F580618A421ED0A1F589618A42F9
:1015200017D001F580618A4210D0A1F568718A4216
:1015300009D001F580618A4202D14FF480111EE08A
:101540004FF080611BE04FF4801118E04FF48011E0
:1015500015E04FF4801112E04FF480610FE04FF47A
:1015600080610CE04FF4806109E04FF4806106E097
:10157000102104E0102102E0102100E01021314A86
:10158000D16052E034498A424CD001F580618A42F0
:1015900046D0A1F568718A4240D001F580618A4247
:1015A0003AD0A1F589618A4233D001F580618A423F
:1015B0002CD0A1F568718A4225D001F580618A425C
:1015C0001ED0A1F589618A4217D001F580618A4257
:1015D00010D0A1F568718A4209D001F580618A4274
:1015E00002D14FF480111EE04FF080611BE04FF4F8
:1015F000801118E04FF4801115E04FF4801112E0D3
:101600004FF480610FE04FF480610CE04FF4806193
:1016100009E04FF4806106E0102104E0102102E0AF
:10162000102100E01021074A91600020D86483F85F
:10163000350083F83400704701207047012070475F
:1016400001008000006002405864024000640240D3
:10165000B8600240586002401060024030B4056833
:10166000029C44EA03436B640368DA634368B3F59E
:10167000403F35D101F07F4201F47F0301F47F4503
:10168000C9B284681CB92B431343194325E0012CCC
:1016900002D12B43194320E0022C07D1DA0CAB0A0C
:1016A000D20242EA431343EAD10116E0032C0AD1E5
:1016B000D40FDA0CEB0A920242EA431343EAC43332
:1016C00043EAD10109E0140F1A0D2B0B120242EA72
:1016D000031343EA043343EA11110368996301E0F9
:1016E0000368D96030BC7047704700BF00284FD0F6
:1016F00010B504460268274B9A4203D02648B4210D
:1017000003F03CF9636863B1B3F5803F09D0B3F5EA
:10171000003F06D0B3F5403F03D01F48B52103F08A
:101720002DF9A368042B03D91B48B62103F026F931
:10173000E368B3F5804F03D31748B72103F01EF9D0
:1017400094F8393013F0FF0F02D12046FFF7CCFF99
:10175000022384F839302268136823F44033616827
:101760000B4313602268536B23F00703A1680B43FC
:1017700053632268136C23F47F5323F03F03E16823
:101780000B4313640020E063012384F8393010BD5B
:101790000120704700B00240B49800082DE9F041E4
:1017A00082B0089E90F83840012C2CD01D46174678
:1017B00088460446012380F83830022380F8393007
:1017C000B6F5803F04D312484FF4B57103F0D6F854
:1017D000B5F5804F04D30E4840F26B1103F0CEF8FC
:1017E0002268136823F001031360009620464146E7
:1017F0003A462B46FFF732FF2268136843F0010395
:101800001360002000E0022002B0BDE8F08100BFBC
:10181000B498000870B504460D4603681B6813F0C1
:10182000010F30D0FEF75AFE064627E059685A6885
:1018300002F0010211F0200F00D15AB120229A606B
:10184000236801209860042384F83930002384F849
:10185000383070BDB5F1FF3F10D025B1FEF73EFE28
:10186000801BA8420AD9002384F83830E36B43F088
:101870002003E363032084F8390070BD23685A68AD
:1018800012F0020FD2D02368DB6913F0200F24D0AE
:10189000FEF724FE06461BE05A6812F0080F06D039
:1018A00008229A60042384F83930012070BDB5F114
:1018B000FF3F0DD025B1FEF711FE801BA84207D9CE
:1018C000E36B43F02003E363032084F8390070BD29
:1018D00023685A6812F0100FDED0236802229A6043
:1018E000236810229A60012384F83930002084F89C
:1018F000380070BD90F83830012B00F0B18070B521
:101900000D460446012380F83830022380F8393030
:10191000994204D9534840F24A3103F02FF804EBBE
:1019200005139B69B3F5804F04D34E4840F24B3109
:1019300003F024F86368B3F5403F15D004EB0513BA
:10194000DB690A2B04D9474840F24E3103F016F800
:1019500063684BB104EB05131B6A022B04D94148A1
:1019600040F2513103F00AF8002D39D12068436A62
:101970003D49194004EB0513DB69A3F10902012A73
:101980000BD8AA1C1201A618A25843EA0242736897
:1019900003F07F4313430B4309E0AA1C1201A6186E
:1019A000A25843EA0243726843EA02630B4343626C
:1019B00021688B6923F47F5323F03F0304EB051266
:1019C000906903438B61D269093A012A41D804EB3B
:1019D00005156A6A22F07F4213432268936238E059
:1019E0002068C3692049194004EB0513DB69A3F1A2
:1019F0000902012A0BD8AA1C1201A618A25843EA10
:101A00000242736803F07F4313430B4309E0AA1CAF
:101A10001201A618A25843EA0243726843EA02631D
:101A20000B43C36121680B6923F47F5323F03F0309
:101A300004EB0512906903430B61D269093A012A4C
:101A400007D804EB05156A6A22F07F421343226827
:101A50001362012384F83930002084F8380070BD07
:101A600002207047B4980008F0FFFC002DE9F84F01
:101A700080460F460B881BB9B348C32102F07EFF96
:101A80007B68012B22D9112B20D0022B1ED0122BC8
:101A90001CD0AE4A934219D002F58012934215D061
:101AA00002F58012934211D0A2F5F81293420DD0A4
:101AB00002F58012934209D002F58012934205D0BC
:101AC000032B03D0A048C42102F058FFBB68022BAF
:101AD00003D99D48C52102F051FF00242EE1A14603
:101AE0000125A5403B6803EA050AAA4540F0258187
:101AF0007B68022B01D0122B58D13B69002B45D0BB
:101B0000092B43D0002B41D0002B3FD0F3B3EBB3D4
:101B1000012B3BD03AD0022B38D037D036D0032B14
:101B200034D0042B32D031D030D0052B2ED02DD054
:101B3000092B2BD0062B29D0092B27D0072B25D0FA
:101B400024D023D0082B21D020D01FD0092B1DD08A
:101B50001CD00A2B1AD019D00B2B17D00C2B15D058
:101B600014D00D2B12D00F2B10D0052B0ED00DD072
:101B70000CD0082B0AD009D00C2B07D0062B05D08F
:101B80000E2B03D07048D62102F0F8FEE608083686
:101B900058F8261004F0070080000F23834021EA44
:101BA00003023B698340134348F82630D8F80030DD
:101BB0004FEA440B032606FA0BF6F64306EA030245
:101BC0007B6803F0030303FA0BF31343C8F80030F8
:101BD0007B685A1E012A03D9112B01D0122B1CD16C
:101BE000FB68032B03D95848E92102F0C7FED8F857
:101BF000083006EA0302FB6803FA0BF31343C8F844
:101C00000830D8F8043023EA05037D68C5F30015D1
:101C100005FA09F51D43C8F80450D8F80C303340D4
:101C2000BE6806FA0BF61E43C8F80C607B6813F01A
:101C3000805F00F08280464A536C43F480435364D3
:101C4000A308991CA2F5803252F8211004F0030079
:101C500080000F22824021EA02013E4A904537D09F
:101C600002F58062904531D002F5806290452BD01C
:101C700002F58062904525D002F5806290451FD024
:101C800002F58062904519D002F58062904513D02C
:101C900002F5806290450DD002F58062904507D034
:101CA00002F58062904501D1092212E00A2210E07B
:101CB00008220EE007220CE006220AE0052208E0D6
:101CC000042206E0032204E0022202E0012200E0F6
:101CD000002282400A4302331F4941F823201F4B50
:101CE0001A686FEA0A0303EA0201786810F4803F79
:101CF00001D04AEA0201194A1160526803EA02015E
:101D0000786810F4003F01D04AEA0201134A51609A
:101D1000926803EA0201786810F4801F01D04AEA51
:101D200002010E4A9160D2681340796811F4001FD5
:101D300001D04AEA0203094AD36001340F2C7FF62E
:101D4000CEAEBDE8F88F00BFE49800080000111087
:101D5000003802400000024000380140003C0140D1
:101D600070B5054614460E4621B908484FF4D371A4
:101D700002F004FE012C04D9044840F2A71102F03D
:101D8000FDFD0CB12E8370BD6E8370BDE49800081C
:101D900038B505460C4621B9044840F2BD1102F0A1
:101DA000EDFD6B695C406C6138BD00BFE4980008D4
:101DB000F0B54D680468E368C3F30B431D44D201DA
:101DC0001444D4F8883003F47043C4F888300468AD
:101DD00016190B68E468C4F30B442344013343EA47
:101DE0000543C6F88830CD680468E368C3F30A0386
:101DF0001D441444D4F88C3003F47043C4F88C3080
:101E0000046816198B68E468C4F30A042344013398
:101E100043EA0543C6F88C3003681344D3F8944072
:101E200024F00704C3F89440036813440C69C3F812
:101E3000944091F831E091F832308F690668164489
:101E4000D6F89C400025C6F89C500668164491F8C8
:101E5000304044EA0E2444EA034343EA0763C6F8E9
:101E60009C3003681344D3F8984024F0FF04C3F86F
:101E70009840036813444C69C3F8984003681344BE
:101E8000D3F8A04024F4E06424F00704C3F8A04091
:101E900003681344CE690C6A3443C3F8A040036856
:101EA0001344D3F8AC40C3F8AC50036813444C6AF5
:101EB000C3F8AC400B695BB1012B0BD0042B0BD0EA
:101EC000022B0BD0032B0BD0072B0BD102240AE0E3
:101ED000042408E0032406E0022404E0022402E0D3
:101EE000022400E0012403681344D3F8B05005F045
:101EF000E025C3F8B050036813448D6A04FB05F471
:101F0000E51C45EA0444C3F8B04003681344D3F821
:101F1000B44024F4FF6424F00704C3F8B440036819
:101F20001344C96AC3F8B41003681A44D2F8843061
:101F300043F00103C2F88430F0BD00BF704700BF1A
:101F4000002800F0E38038B504460268704B9A42DE
:101F500003D070489F2102F011FD6369B3F5805FE3
:101F600003D36C48A02102F009FDA369B3F5006F0B
:101F700003D36848A12102F001FDE369B3F5805F56
:101F800003D36448A22102F0F9FC236AB3F5006F81
:101F900003D36048A32102F0F1FCA36AB3F5006FFC
:101FA00003D35C48A42102F0E9FC636AB3F5805FC7
:101FB00003D35848A52102F0E1FC236BB3F5006F71
:101FC00003D35448A62102F0D9FCE36AB3F5805F3D
:101FD00003D35048A72102F0D1FC636833B1B3F1B9
:101FE000004F03D04B48A82102F0C8FCA36833B1CE
:101FF000B3F1804F03D04748A92102F0BFFCE3684A
:1020000033B1B3F1005F03D04248AA2102F0B6FC1D
:10201000236933B1B3F1805F03D03E48AB2102F0B6
:10202000ADFC94F8A13013F0FF0F02D12046FFF76A
:1020300085FF022384F8A1302268936923F070435E
:102040009361216888696368A2681343E2681A4350
:102050002369134303438B6121688A682E4B1A401E
:102060008A60656921688868A26942EA054202437C
:102070008A602168CA681A40CA60E5692168C86830
:10208000226A42EA05420243CA6021680A691A408C
:102090000A61656A21680869A26A42EA0542024348
:1020A0000A61226851690B405361E06A22685169F4
:1020B000236B43EA00430B43536194F8353094F8A3
:1020C000362012042068C16A01F07F41C162216894
:1020D000C86A42EA032394F8342013430343CB62D3
:1020E0002268536B43F0040353632268536B43F03D
:1020F000020353632268936943F001039361002054
:10210000C4F8A400012384F8A13038BD0120704731
:10211000006801401499000800F800F090F8A03021
:10212000012B00F08A802DE9F04190460E460746CB
:10213000012380F8A030022380F8A1309A4204D90C
:102140003F4840F2DB1102F019FC3369072B04D938
:102150003B484FF4EE7102F011FCF369B3F5806F68
:1021600007D0B3F5C06F04D0354840F2DD1102F05E
:1021700005FC336A052B06D0072B04D030484FF4FA
:10218000EF7102F0FBFB3368B3F5805F04D32C489A
:1021900040F2DF1102F0F2FB7368B3F5803F04D325
:1021A00027484FF4F07102F0E9FBB368B3F5805FA4
:1021B00004D3234840F2E11102F0E0FBF368B3F5E9
:1021C000803F04D31E484FF4F17102F0D7FBB3698E
:1021D000FF2B04D91A4840F2E31102F0CFFBB36A97
:1021E000B3F5005F04D316484FF4F27102F0C6FB5A
:1021F000F36AB3F5006F04D3114840F2E51102F021
:10220000BDFB342404FB0874383435460FCD0FC4AD
:102210000FCD0FC40FCD0FC42B6823603846314655
:102220004246FFF7C5FD3A680123536287F8A130A3
:10223000002087F8A000BDE8F0810220704700BFB1
:102240001499000890F8A030012B11D0012280F8D9
:10225000A020022380F8A13006498B6943F4803323
:102260008B6180F8A120002380F8A03018467047C9
:10227000022070470068014010B5174A136C43F004
:10228000805313640122154B1A60FEF727F90446A8
:1022900005E0FEF723F9001BB0F57A7F18D8104B44
:1022A0005B6813F4803FF4D001220E4B1A60FEF7F6
:1022B00015F9044605E0FEF711F9001BB0F57A7F29
:1022C00008D8074B5B6813F4003FF4D0002010BD22
:1022D000032010BD032010BD0038024040000E4214
:1022E0000070004044000E4238B5044603680F2BCE
:1022F00003D9B348FD2102F041FB236813F0010F1D
:1023000061D06368012B06D9052B04D0AC484FF48B
:10231000817102F033FBAB4B9B6803F00C03042B81
:102320000AD0A84B9B6803F00C03082B0ED1A54BD9
:102330005B6813F4800F09D0A24B1B6813F4003FB5
:1023400041D06368012B40F0FE813CE000229E4BAF
:102350001A70FEF7C3F8054607E0FEF7BFF8401B0A
:1023600041F28833984200F2F081964B1B6813F4D7
:10237000003FF2D12279944B1A706368012B11D17E
:10238000FEF7ACF8054607E0FEF7A8F8401B41F25F
:102390008833984200F2DB818A4B1B6813F4003FBC
:1023A000F2D010E0FEF79AF8054607E0FEF796F83F
:1023B000401B41F28833984200F2CB81814B1B686D
:1023C00013F4003FF2D1236813F0020F6DD0E368DD
:1023D000012B04D97A484FF4A17102F0CFFA236996
:1023E0001F2B04D9764840F2431102F0C7FA754B0F
:1023F0009B6813F00C0F0AD0724B9B6803F00C0320
:10240000082B1CD16F4B5B6813F4800F17D16D4BF9
:102410001B6813F0020F03D0E368012B40F09B818F
:102420006848026822F0F8012269F82393FAA3F3BE
:10243000B3FA83F3DBB29A400A43026035E0E36803
:102440000BB30122614B1A60FEF748F8054605E020
:10245000FEF744F8401B642800F27F81594B1B684B
:1024600013F0020FF4D05748036823F0F8012269F3
:10247000F82393FAA3F3B3FA83F3DBB29A4041EA69
:102480000203036011E00022504B1A60FEF726F8A9
:10249000054605E0FEF722F8401B642800F25F8144
:1024A000484B1B6813F0020FF4D1236813F0080F98
:1024B0002ED06369012B04D941484FF4C17102F059
:1024C0005DFA636993B10122414B1A60FEF706F889
:1024D000054605E0FEF702F8401B642800F2418142
:1024E000384B5B6F13F0020FF4D011E00022384B31
:1024F0001A60FDF7F3FF054605E0FDF7EFFF401B0F
:10250000642800F230812F4B5B6F13F0020FF4D17F
:10251000236813F0040F6ED0A368012B06D9052B96
:1025200004D027484FF4D67102F028FA254A136CDC
:1025300043F080531364A2F5E432136843F48073CC
:102540001360FDF7CBFF054605E0FDF7C7FF401B15
:10255000642800F20A811F4B1B6813F4807FF4D0BB
:1025600000221D4B1A70FDF7B9FF054607E0FDF785
:10257000B5FF401B41F28833984200F2F880114BBE
:102580001B6F13F0020FF2D1227A134B1A70A3685B
:10259000012B11D1FDF7A2FF054607E0FDF79EFFD5
:1025A000401B41F28833984200F2E380054B1B6FD9
:1025B00013F0020FF2D01EE0FDF790FF054615E084
:1025C0005499000800380240023802400000474297
:1025D000800E47420070004070380240FDF77EFFD9
:1025E000401B41F28833984200F2C580684B1B6F54
:1025F00013F0020FF2D1A369022B04D965484FF4FE
:10260000F87102F0BBF9A369002B00F0B680604AB4
:10261000926802F00C02082A00F0B180022B7FD1F0
:10262000E3693BB1B3F5800F04D05A4840F2F91189
:1026300002F0A4F9236A3F2B04D956484FF4FD71E8
:1026400002F09CF9636AC03BF02B04D9514840F278
:10265000FB1102F093F9A36A022B0AD0042B08D0D5
:10266000062B06D0082B04D04A484FF4FE7102F026
:1026700085F9E36A043B0B2B04D9464840F2FD116F
:1026800002F07CF90022444B1A60FDF727FF054653
:1026900004E0FDF723FF401B642872D83C4B1B6805
:1026A00013F0007FF5D1216A626A47F6C07393FA8E
:1026B000A3F3B3FA83F3DBB29A401143A36A5B0836
:1026C000013B4FF4403292FAA2F2B2FA82F2D2B255
:1026D00093400B43E26943EA0201E36A4FF0706200
:1026E00092FAA2F2B2FA82F2D2B203FA02F241EA0A
:1026F000020343F00053264A53600122264B1A601E
:10270000FDF7ECFE044604E0FDF7E8FE001B64283C
:1027100039D81F4B1B6813F0007FF5D0002038BD5F
:1027200000221D4B1A60FDF7D9FE044604E0FDF7B8
:10273000D5FE001B642828D8154B1B6813F0007FBA
:10274000F5D1002038BD012038BD032038BD03205D
:1027500038BD032038BD012038BD032038BD03201B
:1027600038BD032038BD032038BD032038BD032009
:1027700038BD032038BD032038BD002038BD0120FE
:1027800038BD032038BD032038BD032038BD00BF4D
:1027900000380240549900086000474270B5044672
:1027A0000D460368013B0E2B04D988484FF418717D
:1027B00002F0E4F80F2D04D9844840F2612102F0C0
:1027C000DDF8834B1B6803F00F03AB4280F08B8076
:1027D000EAB27F4B1A701B6803F00F03AB4240F064
:1027E0005181236813F0020F1DD0A368A3B1802B81
:1027F00012D0902B10D0A02B0ED0B02B0CD0C02B11
:102800000AD0D02B08D0E02B06D0F02B04D06F4894
:1028100040F2772102F0B2F86E498B6823F0F002A3
:10282000A36813438B60236813F0010F00F0E88066
:102830006368022B04D9654840F27E2102F09EF8BD
:102840006268012A05D1634B1B6813F4003F0ED167
:102850001AE1022A05D15F4B1B6813F0007F06D1F5
:1028600014E15C4B1B6813F0020F00F01181594911
:102870008B6823F0030313438B60FDF72FFE05469F
:102880006368012B0FD107E0FDF728FE401B41F2E2
:102890008833984200F2FE804E4B9B6803F00C0395
:1028A000042BF1D1ACE0022B17D107E0FDF716FEA7
:1028B000401B41F28833984200F2EE80454B9B6802
:1028C00003F00C03082BF1D19AE0FDF707FE401B43
:1028D00041F28833984200F2E1803E4B9B6813F04E
:1028E0000C0FF2D18CE0236813F0020F1DD0A36807
:1028F000A3B1802B12D0902B10D0A02B0ED0B02BD8
:102900000CD0C02B0AD0D02B08D0E02B06D0F02B57
:1029100004D02E4840F2C62102F030F82D498B68D1
:1029200023F0F002A36813438B60236813F0010FB8
:102930005ED06368022B04D9244840F2CD2102F016
:102940001DF86268012A05D1224B1B6813F4003F71
:102950000ED1A5E0022A05D11E4B1B6813F0007FA3
:1029600006D19FE01B4B1B6813F0020F00F09C8008
:1029700018498B6823F0030313438B60FDF7AEFD0A
:1029800006466368012B0FD107E0FDF7A7FD801B0A
:1029900041F28833984200F289800E4B9B6803F025
:1029A0000C03042BF1D123E0022B1CD106E0FDF730
:1029B00095FD801B41F28833984279D8054B9B687E
:1029C00003F00C03082BF2D112E000BF5499000869
:1029D000003C024000380240FDF780FD801B41F2C0
:1029E0008833984266D8354B9B6813F00C0FF3D1AF
:1029F000EAB2334B1A701B6803F00F03AB425BD192
:102A0000236813F0040F19D0E36883B1B3F5805F36
:102A10000DD0B3F5A05F0AD0B3F5C05F07D0B3F512
:102A2000E05F04D0274840F21D3101F0A7FF2349A1
:102A30008B6823F4E052E36813438B60236813F040
:102A4000080F1AD0236983B1B3F5805F0DD0B3F5B9
:102A5000A05F0AD0B3F5C05F07D0B3F5E05F04D044
:102A600018484FF4497101F089FF144A936823F420
:102A70006043216943EAC10393600F20FDF7F8FC2E
:102A8000002070BD012070BD012070BD012070BD0F
:102A9000012070BD032070BD032070BD032070BDF8
:102AA000012070BD012070BD012070BD032070BDEC
:102AB000032070BD032070BD012070BD00380240AE
:102AC000003C024054990008274B9B6803F00C031C
:102AD000042B46D0082B01D024487047224B58685D
:102AE00000F03F00596801F480014FF4800292FA2F
:102AF000A2F2B2FA82F2D2B231FA02F310D01C4B37
:102B0000B3FBF0F3184A506847F6C072104092FACF
:102B1000A2F2B2FA82F2D2B2D04000FB03F30FE08D
:102B2000124BB3FBF0F3104A506847F6C0721040E6
:102B300092FAA2F2B2FA82F2D2B2D04000FB03F3D0
:102B4000094A506800F440304FF4403292FAA2F241
:102B5000B2FA82F2D2B2D04001304000B3FBF0F0C2
:102B600070470348704700BF003802400024F4005B
:102B700000127A0008B5FFF7A7FF094B9B6803F026
:102B8000F002F02393FAA3F3B3FA83F3DBB222FA51
:102B900003F3044AD35CD840034B186008BD00BF60
:102BA00000380240449900080C00002008B5FFF7E7
:102BB000E1FF084B9B6803F4E0524FF4E05393FAB3
:102BC000A3F3B3FA83F3DBB222FA03F3024AD35C32
:102BD000D84008BD003802404499000808B5FFF706
:102BE000C9FF084B9B6803F460424FF4604393FABB
:102BF000A3F3B3FA83F3DBB222FA03F3024AD35C02
:102C0000D84008BD003802404499000838B5044651
:102C10000368013B2E2B03D9BE486D2101F0AEFEA7
:102C2000236813F0030F00F083806368C03BF02B30
:102C300003D9B848782101F0A1FE0022B64B1A60F2
:102C4000FDF74CFC054605E0FDF748FC401B6428F9
:102C500000F28281B14B1B6813F0006FF4D123683E
:102C600013F0010F1ED0A368023B052B03D9A9481E
:102C70008E2101F083FE626847F6C07393FAA3F3D6
:102C8000B3FA83F3DBB202FA03F1A2684FF0E04338
:102C900093FAA3F3B3FA83F3DBB29A400A439F4B50
:102CA000C3F88420236813F0020F2FD0E368023B9F
:102CB0000D2B03D997489B2101F060FEE369013B8E
:102CC0001F2B03D993489C2101F058FE9348D0F85C
:102CD000843003F0E0434FF0E04292FAA2F2B2FAFD
:102CE00082F2D2B223FA02F16568E3681A0642EA78
:102CF000851343EA0173C0F88430D0F88C3023F098
:102D00001F02E369013B1343C0F88C300122824B60
:102D10001A60FDF7E3FB054605E0FDF7DFFB401B0E
:102D2000642800F21B817D4B1B6813F0006FF4D008
:102D3000236813F00C0F00F09A802369C03BF02B3E
:102D400003D97448C12101F019FE0022744B1A60A6
:102D5000FDF7C4FB054605E0FDF7C0FB401B6428FA
:102D600000F2FE806D4B1B6813F0005FF4D1236806
:102D700013F0040F30D06369023B0D2B03D9654873
:102D8000D62101F0FBFD236A013B1F2B03D96148CB
:102D9000D72101F0F3FD6149D1F8883003F0E04319
:102DA0004FF0E04292FAA2F2B2FA82F2D2B223FAE1
:102DB00002F2206963691B0643EA801343EA027347
:102DC000C1F88830D1F88C3023F4F853226A013AE4
:102DD00043EA0223C1F88C30236813F0080F34D083
:102DE000A369023B052B03D94A48E62101F0C6FD41
:102DF000636A63B1B3F5803F09D0B3F5003F06D0F5
:102E0000B3F5403F03D04348E72101F0B7FD434904
:102E1000D1F8883003F070634FF0706292FAA2F23A
:102E2000B2FA82F2D2B2D34022691B0643EA82137D
:102E3000A26943EA0273C1F88830D1F88C3023F4D8
:102E40004032636A1343C1F88C300122344B1A605C
:102E5000FDF744FB054605E0FDF740FB401B6428F9
:102E600000F280802D4B1B6813F0005FF4D02368C4
:102E700013F0200F66D0294A136C43F0805313647B
:102E8000A2F5E432136843F480731360FDF726FB68
:102E9000054604E0FDF722FB401B642864D8214B63
:102EA0001B6813F4807FF5D01C4B1A6FA36A534044
:102EB00013F4407F09D0194A136F23F440731A4961
:102EC00001200860002008601367A36AB3F5807FC3
:102ED0000FD1FDF703FB054606E0FDF7FFFA401BA7
:102EE00041F28833984241D80C4B1B6F13F0020F0C
:102EF000F3D0A36A03F44072B2F5407F16D10749BC
:102F00008A6822F4F81223F0704323F440731343C9
:102F10008B6010E084990008680047420038024046
:102F20007000474200700040400E4742114A9368CB
:102F300023F4F81393600F4A116FA36AC3F30B03D2
:102F40000B431367236813F0100F11D094F82C2053
:102F5000094B1A60002038BD032038BD032038BD5E
:102F6000032038BD032038BD032038BD032038BD01
:102F7000002038BD00380240E0114742704700BFD2
:102F8000D8B138B504460D4690F82C3013F0FF0F39
:102F900001D1FFF7F3FF022384F82C30214651F8CA
:102FA000040B01F0FFFA20682946626801F09EFBDD
:102FB000012384F82C30002038BD0120704700BF69
:102FC00038B590F82C30DBB2022B14D00D460446F5
:102FD000022380F82C30006801F01AFC2B68022BC9
:102FE00004D1052384F82C30002038BD012384F857
:102FF0002C30002038BD022038BD00BF90F82C30A6
:10300000DBB2022B0CD010B50446022380F82C3022
:10301000006801F05FFC012384F82C30002010BD13
:10302000022070472DE9F04106460C4690461D46A9
:10303000FDF754FA0746B8F1000F2AD05BE0B5F16E
:10304000FF3F26D025B1FDF749FAC01BA84220D981
:103050003268536823F0E00353603268136823F04A
:1030600040031360B36AB3F5005F09D13268136897
:1030700023F4005313603268136843F40053136061
:10308000012386F85130002386F850300320BDE834
:10309000F08133689B682340A342D0D10020BDE873
:1030A000F081B5F1FF3F26D025B1FDF717FAC01B1F
:1030B000A84220D93268536823F0E0035360326895
:1030C000136823F040031360B36AB3F5005F09D1BE
:1030D0003268136823F4005313603268136843F4B2
:1030E00000531360012386F85130002386F85030D6
:1030F0000320BDE8F08133689B682340A342D0D011
:103100000020BDE8F08100BF704700BF002800F03C
:10311000AD8010B50446436833B1B3F5827F03D068
:103120005348B22101F02AFCA3684BB1B3F5806F7C
:1031300006D0B3F5004F03D04D48B32101F01EFC7B
:10314000E368B3F5006F04D01BB14948B42101F026
:1031500015FC23692BB1022B03D04548B52101F0A2
:103160000DFC6369012B03D94148B62101F006FC2F
:10317000A369B3F5007F07D033B1B3F5802F03D037
:103180003B48B72101F0FAFBE3698BB1082B0FD064
:10319000102B0DD0182B0BD0202B09D0282B07D0AB
:1031A000302B05D0382B03D03148B82101F0E6FB95
:1031B000236A2BB1802B03D02D48B92101F0DEFB0F
:1031C000636A2BB1102B03D02948BA2101F0D6FB3A
:1031D000A36A33B1B3F5005F03D02548BB2101F0EA
:1031E000CDFBE36A013B4FF6FE72934203D92048C0
:1031F000BC2101F0C3FB94F8513013F0FF0F02D152
:103200002046FFF781FF022384F8513022681368BB
:1032100023F04003136021686268A3681A43E368DF
:103220001A4323691A4363691A43A36903F40073B9
:103230001343E2691343226A1343A26A1A430A60E2
:103240002168638B03F00402636A13434B602368B5
:10325000E26A1A612268D36923F40063D361002013
:1032600084F85200012384F8513010BD01207047CA
:10327000B8990008704700BF80B110B504460268D5
:10328000136823F040031360FFF7F4FF002084F875
:10329000520084F8510084F8500010BD012070479E
:1032A000F8B504461D4690F85130DBB2012B40F0D2
:1032B000D0800F461646002900F0CD80002A00F08D
:1032C000CC8083683BB1B3F5004F04D0674840F22F
:1032D0006D1101F053FB94F85030012B00F0BF80CA
:1032E000012384F85030122384F85130002384F8ED
:1032F00052302763A686E686E364A364A387E38748
:10330000A36AB3F5005F09D12268136823F4005360
:1033100013602268136843F400531360A368B3F585
:10332000004F04D12268136843F48043136023687C
:103330001A6812F0400F03D11A6842F040021A6076
:10334000E368002B2CD1636813B1E38E012B1AD1F3
:103350002268236B591C21631B78D360E38E013BE9
:10336000E38610E02046022100222B46FFF75AFE9A
:10337000002876D12268236B591C21631B78D36007
:10338000E38E013BE386E38E002BEBD1A36AB3F51A
:10339000005F33D12268136843F4805313602DE03B
:1033A000636813B1E38E012B1CD12368226B128852
:1033B000DA60236B02332363E38E013BE38611E083
:1033C0002046022100222B46FFF72CFE00284AD17E
:1033D0002368226B1288DA60236B02332363E38E47
:1033E000013BE386E38E002BEAD1A36AB3F5005FCD
:1033F00004D12268136843F48053136020460221ED
:1034000000222B46FFF70EFE38B194F8523043F0FD
:10341000200384F85230032326E020468021012235
:103420002B46FFF7FFFD034638B194F8523043F0C6
:10343000200384F85230032316E0A26812B92268F0
:10344000D1689268012284F85120002284F850202B
:103450000AE0022308E0012306E0012304E002233E
:1034600002E0032300E003231846F8BDB8990008E2
:10347000F0B583B004460E4617461D4690F851300D
:10348000DBB2012B02D0222B40F08881002E00F00D
:103490008781002F00F08681002D00F08581A368D0
:1034A00023B19F4840F2C72101F068FA94F85030E8
:1034B000012B00F07B81012384F8503094F85130C7
:1034C000DBB2012B02D1322384F85130002384F87F
:1034D0005230A763A587E5872663A586E586A364A2
:1034E000E364A36AB3F5005F09D12268136823F48B
:1034F000005313602268136843F400531360236879
:103500001A6812F0400F03D11A6842F040021A60A4
:10351000E368B3F5006F7DD163682BB1B3F5827FAB
:103520000CD1E38E012B09D12368226B1288DA605B
:10353000236B02332363E38E013BE386E38E002B90
:103540004DD1A36AB3F5005F04D12268136843F438
:1035500080531360204601210022089BFFF762FD83
:10356000002840F02581A36B2268D2681A80A36BE3
:103570000233A363E38F013BE387BEE020460221D1
:103580000022089BFFF74EFD002840F013812368BE
:10359000226B1288DA60236B02332363E38E013BD4
:1035A0009BB2E38643B9A36AB3F5005F04D12268F6
:1035B000136843F480531360204601210022089BC6
:1035C000FFF730FD002840F0F780A36B2268D26837
:1035D0001A80A36B0233A363E38F013BE387E38E7F
:1035E000002BCBD16368002B40F08780204601215F
:1035F0000022089BFFF716FD002840F0DF80A36B38
:103600002268D2681A80A36B0233A363E38F013B65
:10361000E38772E063682BB1B3F5827F0BD1E38E51
:10362000012B08D12268236B591C21631B78D360BE
:10363000E38E013BE386E38E002B48D1A36AB3F50A
:10364000005F04D12268136843F48053136020465E
:1036500001210022089BFFF7E5FC002840F0B08024
:10366000A36B2268D2681A70E38F013BE38744E0C2
:10367000204602210022089BFFF7D4FC002840F0DE
:10368000A1802268236B591C21631B78D360E38ED1
:10369000013B9BB2E38643B9A36AB3F5005F04D153
:1036A0002268136843F480531360204601210022EE
:1036B000089BFFF7B7FC002840F08680A36B5A1CDC
:1036C000A2632268D2681A70E38F013BE387E38E1E
:1036D000002BCDD1636883B9204601210022089BCD
:1036E000FFF7A0FC002871D1A36B5A1CA2632268CB
:1036F000D2681A70E38F013BE387A36AB3F5005FDA
:1037000015D1204601210022089BFFF78BFC48B110
:1037100094F8523043F0020384F85230032356E009
:10372000B89900082368DB689BB2ADF806302046E4
:1037300080210122089BFFF775FC034638B194F8FD
:10374000523043F0200384F8523003233FE001223B
:1037500084F8512021688A6802F01002A06AB0F54E
:10376000005F17D1B2B194F8523043F0020384F8ED
:103770005230B0F5005F08D10B6823F400530B60A2
:103780002268136843F400531360002384F8503018
:1037900001231CE0002284F8502018E0022316E0E8
:1037A000012314E0012312E0012310E002230EE0C4
:1037B00003230CE003230AE0032308E0032306E0CD
:1037C000032304E0032302E0032300E0032318465D
:1037D00003B0F0BDF0B585B004461E4690F85130F8
:1037E000DBB2012B40F0F7800F461546002900F0B0
:1037F000F480002A00F0F38090F85030012B00F0A4
:10380000F080012380F85030222380F851300023CB
:1038100080F85230A163A287E2878364C364838601
:10382000C3868368B3F5004F04D10268136823F49C
:1038300080431360A36AB3F5005F09D1226813685F
:1038400023F4005313602268136843F40053136099
:103850006368B3F5827F0CD1A36853B984F8503004
:103860000096204639463A462B46FFF701FE0546AC
:10387000BEE023681A6812F0400F03D11A6842F0C4
:1038800040021A60E36893B131E020460121002232
:103890003346FFF7C7FB002840F0A580A36B5A1CF6
:1038A000A2632268D2681A70E38F013BE387E38F3B
:1038B000012BEAD8A36AB3F5005F24D1226813680C
:1038C00043F4805313601EE020460121002233465A
:1038D000FFF7A8FB002840F08880A36B2268D2681D
:1038E0001A80A36B0233A363E38F013BE387E38F6B
:1038F000012BE9D8A36AB3F5005F04D122681368ED
:1039000043F4805313602046012100223346FFF721
:1039100089FB054600286AD1E36833B9A36B5A1CBA
:10392000A2632268D2681A7006E0A36B2268D2688C
:103930001A80A36B0233A363E38F013BE387A36A7F
:10394000B3F5005F13D12046012100223346FFF773
:1039500069FB38B194F8523043F0020384F85230D6
:10396000032545E02368DB689BB2ADF80E30636841
:10397000B3F5827F0BD1A368B3F5004F02D0B3F546
:10398000806F04D12268136823F040031360012381
:1039900084F851302268936803F01003A16AB1F5EE
:1039A000005F14D19BB194F8523043F0020384F8C5
:1039B0005230136823F4005313602268136843F4F1
:1039C00000531360002384F85030012510E00023D9
:1039D00084F850300CE002250AE0012508E00125BA
:1039E00006E0022504E0032502E0032500E00325AC
:1039F000284605B0F0BD00BF90F85100704700BFE9
:103A000010B504460368234A934237D0B3F1804F80
:103A100034D0A2F57C42934230D002F580629342CA
:103A20002CD002F58062934228D002F58062934246
:103A300024D002F58062934220D002F57042934276
:103A40001CD002F57052934218D002F58062934266
:103A500014D002F58062934210D0A2F598329342BE
:103A60000CD002F58062934208D002F58062934246
:103A700004D0094840F2611100F080FF2268D36849
:103A800043F00103D3602268136843F0010313601D
:103A9000002010BD00000140E8990008704700BFF9
:103AA000704700BF704700BF704700BF10B50446A5
:103AB00003681A6912F0020F17D0DA6812F0020FC9
:103AC00013D06FF002021A610123037603689B6929
:103AD00013F0030F02D0FFF7E3FF04E0FFF7DEFF70
:103AE0002046FFF7DFFF0023237623681A6912F0D0
:103AF000040F19D0DA6812F0040F15D06FF0040229
:103B00001A610223237623689B6913F4407F03D054
:103B10002046FFF7C5FF05E02046FFF7BFFF204620
:103B2000FFF7C0FF0023237623681A6912F0080FFD
:103B300019D0DA6812F0080F15D06FF008021A6178
:103B4000042323762368DB6913F0030F03D0204698
:103B5000FFF7A6FF05E02046FFF7A0FF2046FFF78E
:103B6000A1FF0023237623681A6912F0100F19D0E1
:103B7000DA6812F0100F15D06FF010021A610823E6
:103B800023762368DB6913F4407F03D02046FFF7D8
:103B900087FF05E02046FFF781FF2046FFF782FF01
:103BA0000023237623681A6912F0010F09D0DA681E
:103BB00012F0010F05D06FF001021A61204601F0EA
:103BC000EFFF23681A6912F0800F09D0DA6812F04B
:103BD000800F05D06FF080021A61204600F024F9B2
:103BE00023681A6912F0400F09D0DA6812F0400F0A
:103BF00005D06FF040021A612046FFF755FF236899
:103C00001A6912F0200F09D0DA6812F0200F05D0DF
:103C10006FF020021A61204600F004F910BD00BFC9
:103C20000368454A904214D0B0F1804F13D0A2F5FA
:103C30007C42904211D002F5806290420FD002F592
:103C4000806290420DD002F5784290420BD1012261
:103C50000AE0012208E0012206E0012204E001223C
:103C600002E0012200E000221AB123F070034A684A
:103C70001343314A90422CD0B0F1804F2BD0A2F5A3
:103C80007C42904229D002F58062904227D002F512
:103C90008062904225D002F57842904223D002F50E
:103CA0007052904221D002F5806290421FD002F5FE
:103CB000806290421DD0A2F5983290421BD002F54E
:103CC0008062904219D002F58062904217D10122A1
:103CD00016E0012214E0012212E0012210E001228C
:103CE0000EE001220CE001220AE0012208E001229C
:103CF00006E0012204E0012202E0012200E00022AD
:103D00001AB123F44073CA68134303608B68C3621B
:103D10000B688362084B984205D003F58063984294
:103D200003D1012302E0012300E000230BB10B6962
:103D300003630123436170470000014000286BD0FA
:103D400010B504460368354A934236D0B3F1804F2C
:103D500033D0A2F57C4293422FD002F58062934289
:103D60002BD002F58062934227D002F58062934205
:103D700023D002F5806293421FD002F57042934235
:103D80001BD002F57052934217D002F58062934225
:103D900013D002F5806293420FD0A2F5983293427D
:103DA0000BD002F58062934207D002F58062934205
:103DB00003D01B48D12100F0E1FDA3685BB1102BBB
:103DC00009D0202B07D0402B05D0602B03D01448FE
:103DD000D22100F0D3FD23694BB1B3F5807F06D02B
:103DE000B3F5007F03D00E48D32100F0C7FD94F84F
:103DF000393013F0FF0F02D1204602F037FA0223C8
:103E000084F83930214651F8040BFFF709FF0123EC
:103E100084F83930002010BD0120704700000140B7
:103E2000E8990008704700BF704700BF2DE9F041D6
:103E300004460368BF4A934220D0A2F54C42934205
:103E40001CD002F58062934218D002F58062934242
:103E500014D002F58062934210D002F5444293429E
:103E60000CD0A2F51C42934208D002F58062934226
:103E700004D0B14840F22A7100F080FD6268AF4B77
:103E80009A4204D9AC4840F22B7100F077FDA36848
:103E90003BB1B3F5805F04D0A74840F22C7100F02D
:103EA0006DFDE3683BB1B3F5005F04D0A24840F27A
:103EB0002D7100F063FD236953B1B3F5806F07D016
:103EC000B3F5C06F04D09C4840F22E7100F056FD4F
:103ED00063694FF6F372134200D123B9964840F25A
:103EE0002F7100F04BFDA3696BB1B3F5807F0AD051
:103EF000B3F5007F07D0B3F5407F04D08E484FF470
:103F0000E66100F03BFDA369A3B12368894A9342AF
:103F100010D0A2F54C4293420CD002F5806293423D
:103F200008D002F54C42934204D0834840F23571E8
:103F300000F024FD2268136923F44053E1680B4329
:103F400013612068C36823F4164323F00C03A168AF
:103F50002269114362691143E2690A431343C36052
:103F60002268536923F44073A1690B435361E369E9
:103F7000B3F5004F70D1256803F1804303F510437A
:103F80009D4203D003F580639D4232D1FEF726FEA9
:103F900000EB800000EB800063685B00B0FBF3F394
:103FA000674FA7FB03235B091E01FEF717FE00EB1B
:103FB000800000EB800063685B00B0FBF3F8FEF765
:103FC0000DFE00EB800000EB800063685B00B0FB3F
:103FD000F3F3A7FB03235B09642202FB13831B019A
:103FE0003233A7FB0323C3F343133343AB60BDE872
:103FF000F081FEF7DBFD00EB800000EB80006368E2
:104000005B00B0FBF3F34E4FA7FB03235B091E01DC
:10401000FEF7CCFD00EB800000EB800063685B00E6
:10402000B0FBF3F8FEF7C2FD00EB800000EB800070
:1040300063685B00B0FBF3F3A7FB03235B09642217
:1040400002FB13831B013233A7FB0323C3F3431388
:104050003343AB60BDE8F0812568364B9D4203D009
:1040600003F580639D4232D1FEF7B8FD00EB80007E
:1040700000EB800063689B00B0FBF3F3304FA7FBBD
:1040800003235B091E01FEF7A9FD00EB800000EB96
:10409000800063689B00B0FBF3F8FEF79FFD00EB28
:1040A000800000EB800063689B00B0FBF3F3A7FB8C
:1040B00003235B09642202FB13831B013233A7FB3A
:1040C0000323C3F343133343AB60BDE8F081FEF732
:1040D0006DFD00EB800000EB800063689B00B0FB8F
:1040E000F3F3174FA7FB03235B091E01FEF75EFDE9
:1040F00000EB800000EB800063689B00B0FBF3F8EE
:10410000FEF754FD00EB800000EB800063689B002D
:10411000B0FBF3F3A7FB03235A09642303FB1283C9
:104120001B013233A7FB0323C3F343133343AB60B9
:10413000BDE8F08100100140189A0008A037A000E7
:104140001F85EB512DE9F04106460C4690461D4671
:10415000FCF7C4F90746B8F1000F26D053E0B5F1DB
:10416000FF3F22D025B1FCF7B9F9C01BA8421CD9EA
:104170003268D36823F08003D3603268D36823F0B9
:104180002003D3603268D36823F48073D36032682D
:10419000536923F001035361012386F8393000236A
:1041A00086F838300320BDE8F08133681B6823406F
:1041B000A342D4D10020BDE8F081B5F1FF3F22D069
:1041C00025B1FCF78BF9C01BA8421CD93268D36813
:1041D00023F08003D3603268D36823F02003D360D8
:1041E0003268D36823F48073D3603268536923F054
:1041F00001035361012386F83930002386F83830F3
:104200000320BDE8F08133681B682340A342D4D06B
:104210000020BDE8F08100BF002865D010B504463D
:104220008369A3B10368314A934234D0A2F54C426A
:10423000934230D002F5806293422CD002F54C427A
:10424000934228D02A48F22100F098FB23E003682B
:10425000264A93421FD0A2F54C4293421BD002F54E
:104260008062934217D002F58062934213D002F528
:10427000806293420FD002F5444293420BD0A2F5E4
:104280001C42934207D002F58062934203D0184843
:10429000F72100F073FB94F8393013F0FF0F02D1CF
:1042A000204601F0F5FF022384F839302268D368F4
:1042B00023F40053D3602046FFF7B8FD226813694A
:1042C00023F4904313612268536923F02A03536156
:1042D0002268D36843F40053D360002084F83A0086
:1042E000012384F8393010BD0120704700100140CF
:1042F000189A000890F83930DBB2012B01D0122B4C
:1043000030D1002930D0002A30D090F83830012B3D
:104310002ED0012380F8383081628285C285002347
:1043200080F83A3090F83930DBB2122B03D13223C7
:1043300080F8393002E0222380F839300268D368EF
:1043400043F48073D3600268536943F001035361FF
:10435000002380F838300168CA6842F02002CA6041
:1043600018467047022070470120704701207047AF
:1043700002207047704700BF38B590F83930DBB283
:10438000122B01D0322B46D18368B3F5805F0FD159
:10439000036A02681B88C3F30803536003691BB9EF
:1043A000036A0233036209E0036A0133036205E032
:1043B0000268036A591C01621B785360C38C013B7D
:1043C0009BB2C3844BBB0268D36823F08003D360E5
:1043D00090F83930DBB2322B03D1222380F8393008
:1043E0000CE00268D36823F48073D36002685369D9
:1043F00023F001035361012380F839300446402142
:10440000002245F2F053FFF79DFE054638B92046DD
:10441000FFF7B0FF04E0022502E0002500E00325DD
:10442000284638BD08B590F83930DBB2222B01D0D0
:10443000322B4CD18368B3F5805F13D1836A026954
:1044400042B902685268C2F308021A80836A0233D2
:10445000836218E002685268D2B21A80836A01331C
:10446000836210E0036933B9836A5A1C826202686E
:1044700052681A7007E0826A531C836203685B68A3
:1044800003F07F031370C38D013B9BB2C38503BB55
:104490000268D36823F02003D36090F83930DBB290
:1044A000322B03D1122380F839300CE00268D36834
:1044B00023F48073D3600268536923F001035361CE
:1044C000012380F8393001F001F8002008BD0220F6
:1044D00008BD002008BD00BF10B504460368196878
:1044E000DA6802F4807211F0010F08D03AB11A684C
:1044F0005A6890F83A2042F0010280F83A20196890
:104500005A6902F0010211F0020F08D03AB11A689C
:104510005A6894F83A2042F0040284F83A20196864
:104520005A6902F0010211F0040F08D03AB11A687A
:104530005A6894F83A2042F0020284F83A20196846
:104540005A6902F0010211F0080F08D03AB11A6856
:104550005A6894F83A2042F0080284F83A201A681F
:10456000DB6803F0200312F0200F03D013B12046C4
:10457000FFF758FF23681A68DB6803F0800312F026
:10458000800F03D013B12046FFF7F6FE94F83A30BF
:1045900013F0FF0F05D0012384F83930204601F0D5
:1045A00001FB10BD38B505460C464E4B984204D071
:1045B0004D4840F2BD3100F0E1F92368012B04D9E8
:1045C000494840F2BE3100F0D9F96368032B04D9A1
:1045D000454840F2BF3100F0D1F9A36843B1042B44
:1045E00006D0082B04D040484FF4707100F0C6F993
:1045F000E36843B1102B06D0202B04D03A4840F298
:10460000C13100F0BBF9236933B1402B04D03648E7
:1046100040F2C23100F0B2F96369802B0AD0B3F5E1
:10462000807F07D0B3F5C07F04D02F4840F2C3315C
:1046300000F0A4F9A3693BB1B3F5007F04D02A4888
:104640004FF4717100F09AF9E36953B1B3F5006F5B
:1046500007D0B3F5406F04D0234840F2C53100F0D5
:104660008DF9236A3BB1B3F5805F04D01E4840F258
:10467000C63100F083F9636A53B1B3F5005F07D028
:10468000B3F5804F04D0184840F2C73100F076F9F6
:104690002368012B12D06268A3681A43E3681A43A7
:1046A00023691A4363691A43A3691A43E3691A43E6
:1046B000236A1A43636A13432B6011E0E269236A99
:1046C0001A43636A1A436168A3681943E36819438C
:1046D0002369194363691943A3690B432A606B601B
:1046E000002038BD400100A0489A000870B505467A
:1046F0000C461646444B984204D0444840F2FB31E5
:1047000000F03CF92368013B0F2B04D93F484FF4DC
:104710007F7100F033F96368013B0F2B04D93B48EC
:1047200040F2FD3100F02AF9A368013B0F2B04D9B8
:10473000364840F2FE3100F021F9E368013B0F2BCF
:1047400004D9324840F2FF3100F018F92369013BE7
:104750000F2B04D92D484FF4806100F00FF96369E5
:10476000013B0F2B04D9294840F2014100F006F922
:10477000A369013B0F2B04D9244840F2024100F009
:10478000FDF8012E04D9214840F2034100F0F6F86B
:10479000012E1BD02368013B6668013E43EA0616E2
:1047A000A068013846EA0023E168013943EA013094
:1047B0002269013A40EA02416369013B41EA03523E
:1047C000A369013B42EA0363AB601AE02368013B43
:1047D0006168013943EA0113A268013A43EA022100
:1047E0002369013B41EA0342A369013B42EA0363B7
:1047F000E268511E6269013A120542EA0132EB6039
:10480000AA60002070BD00BF400100A0489A0008C7
:1048100070B582B005460C461646002301932B4B1B
:10482000984204D02A484FF4906100F0A7F823681A
:10483000062B04D9264840F2814100F09FF86368B6
:10484000102B08D0082B06D0182B04D0204840F29B
:10485000824100F093F8A368013B0F2B04D91C4858
:1048600040F2834100F08AF8E368B3F5005F04D3B7
:10487000174840F2844100F081F8226863681343CE
:10488000A268013A43EA4213E26843EA42230193F1
:10489000019B2B61FBF722FE0446AB6913F0200F4E
:1048A0000AD0B6F1FF3F09D056B1FBF717FE001B47
:1048B000B04207D8012006E0002004E0012002E019
:1048C000032000E0032002B070BD00BF400100A043
:1048D000489A000838B504460D460B4B984204D060
:1048E0000A4840F2AD4100F049F8B5F5005F04D345
:1048F000064840F2AE4100F041F8616941EA4501E5
:104900006161002038BD00BF400100A0489A000846
:10491000FEE700BF08B5034800F056F80120FFF796
:10492000F7FF00BF789A000808B50D4B1B6813B954
:104930000C4A0B4B1A600A4B1A68C31C23F0030382
:10494000134409498B4206D904F024FB0C2303606D
:104950004FF0FF3008BD02490B60104608BD00BF94
:10496000942100203029002000FC02200123036054
:10497000014B0B60704700BF0400002008B50346E0
:104980000A460348194600F005F8FFF7C3FF00BFC9
:10499000CC9A00080FB400B583B004AB53F8042BD5
:1049A00001930848802104F051FB011E03DD0548F6
:1049B00000F03EF80146084603B05DF804EB04B091
:1049C000704700BF9C21002010B5044604F00CFB8A
:1049D0000146204600F02CF80248012100F028F89A
:1049E00010BD00BFF89A000810B400221AE04FF082
:1049F0006043D3F8803E13F0010F06D04FF06043C0
:104A0000D3F8003E13F0010F01D110460DE04FF036
:104A100060431B68002BFAD004784FF060431C7091
:104A2000013201308A42E2D308465DF8044B7047F8
:104A300008B5FFF7D9FF08BD08B500F001F808BDBB
:104A40000C4B1A6842F001021A60002199601A6842
:104A500022F0847222F480321A60074A5A601A687F
:104A600022F480221A60D9604FF00062034B9A60F2
:104A7000704700BF003802401030002400ED00E015
:104A8000F02070474FF4A070704700BF08B501F0E8
:104A90005FFD08BD08B52920FFF7F8FF08BD00BF7E
:104AA00008B52820FFF7F2FF08BD00BF08B501F0E8
:104AB00033FD08BDA84B1B78002B40F04B8110B58F
:104AC0000124A54B1C7001F0DDFCCA20FFF7DEFFBE
:104AD000C320FFF7EBFF0820FFF7E8FF5020FFF7A8
:104AE000E5FFCF20FFF7D2FF0020FFF7DFFFC12057
:104AF000FFF7DCFF3020FFF7D9FFED20FFF7C6FFFF
:104B00006420FFF7D3FF0320FFF7D0FF1220FFF749
:104B1000CDFF8120FFF7CAFFE820FFF7B7FF852010
:104B2000FFF7C4FF0020FFF7C1FF7820FFF7BEFFAB
:104B3000CB20FFF7ABFF3920FFF7B8FF2C20FFF7A2
:104B4000B5FF0020FFF7B2FF3420FFF7AFFF0220D0
:104B5000FFF7ACFFF720FFF799FF2020FFF7A6FF34
:104B6000EA20FFF793FF0020FFF7A0FF0020FFF7E8
:104B70009DFFB120FFF78AFF0020FFF797FF1B2062
:104B8000FFF794FFB620FFF781FF0A20FFF78EFFA3
:104B9000A220FFF78BFFC020FFF778FF1020FFF760
:104BA00085FFC120FFF772FF1020FFF77FFFC520B0
:104BB000FFF76CFF4520FFF779FF1520FFF776FF21
:104BC000C720FFF763FF9020FFF770FF3620FFF745
:104BD0005DFFC820FFF76AFFF220FFF757FF0020B4
:104BE000FFF764FFB020FFF751FFC220FFF75EFF21
:104BF000B620FFF74BFF0A20FFF758FFA720FFF76B
:104C000055FF2720FFF752FF0420FFF74FFF2A2010
:104C1000FFF73CFF0020FFF749FF0020FFF746FFAA
:104C20000020FFF743FFEF20FFF740FF2B20FFF7A7
:104C30002DFF0020FFF73AFF0020FFF737FF204647
:104C4000FFF734FF3F20FFF731FFF620FFF71EFF8D
:104C50002046FFF72BFF0020FFF728FF0620FFF775
:104C600025FF2C20FFF712FFC82001F0B5FC2620FD
:104C7000FFF70CFF2046FFF719FFE020FFF706FFC4
:104C80000F20FFF713FF2920FFF710FF2420FFF765
:104C90000DFF0C20FFF70AFF0E20FFF707FF09208A
:104CA000FFF704FF4E20FFF701FF7820FFF7FEFE1D
:104CB0003C20FFF7FBFE0920FFF7F8FE1320FFF76B
:104CC000F5FE0520FFF7F2FE1720FFF7EFFE11209B
:104CD000FFF7ECFE0020FFF7E9FEE120FFF7D6FE2C
:104CE0000020FFF7E3FE1620FFF7E0FE1B20FFF792
:104CF000DDFE0420FFF7DAFE1120FFF7D7FE0720C4
:104D0000FFF7D4FE3120FFF7D1FE3320FFF7CEFEB0
:104D10004220FFF7CBFE0520FFF7C8FE0C20FFF76F
:104D2000C5FE0A20FFF7C2FE2820FFF7BFFE2F2096
:104D3000FFF7BCFE0F20FFF7B9FE1120FFF7A6FE1C
:104D4000C82001F049FC2920FFF7A0FE2C20FFF726
:104D50009DFE10BD704700BF1C22002008B501F069
:104D600013FC08BD08B5054B1B780BB9FFF7A2FE75
:104D7000D3200321FFF7F2FF80B208BD1C220020E0
:104D800008B5002001F05EFBFEE700BF70B59EB0E5
:104D9000002419941A941B941C941D940D940E9441
:104DA0000F941094119412941394149415941694CF
:104DB000179418941D4A136C43F080531364A2F5A2
:104DC000E432136843F44043136001230D930E93C0
:104DD000022513954FF480031493082615964FF47B
:104DE000B47316931795072318930DA8FDF77CFA53
:104DF000FDF742FA0F2319931A951B944FF4A05311
:104E00001C934FF480531D9319A80521FDF7C6FC90
:104E10000196C0230593042307934FF400330A93AC
:104E200001A8FDF7F3FE1EB070BD00BF00380240C0
:104E300000B59BB0264B1A6B42F001021A631A6B45
:104E400042F002021A631A6B42F004021A631A6BF0
:104E500042F008021A631A6B42F010021A63002330
:104E60001793189319931293139314930D930E930E
:104E70000F93089309930A930393049305932023B4
:104E800015930123169390221092119343F6081262
:104E90000B920C93B422069207937C220192029308
:104EA0000C4815A9FCF7E2FD0B4810A9FCF7DEFD44
:104EB0000A480BA9FCF7DAFD094806A9FCF7D6FD5C
:104EC000084801A9FCF7D2FD1BB05DF804FB00BF48
:104ED0000038024000000240000402400008024086
:104EE000000C02400010024008B5134B1B681B0A5F
:104EF000124AA2FB03239B0A013B9BB2104A138078
:104F00001048114A026042F20F72C26043600023EF
:104F100003618360FEF712FF08B1FFF731FF094814
:104F2000FEF76EFD08B1FFF72BFF064B1A68D3683A
:104F300043F00103D36008BD0C000020C7541E01DC
:104F40001E220020BC2600200004004030B5C1B065
:104F50004FF0FF3001F05CFCB84D2B68B84C04EB0F
:104F600043136846B749DA6904F01AF80020694625
:104F7000032201F05DFE00201221F02201F0E8FC86
:104F800000201121F02201F0E3FC6FF47F0001F01A
:104F90003FFC2B6804EB4314237B212B27D003D841
:104FA0003BB1112B0FD035E0412B16D0812B28D0EF
:104FB00030E06C46A44D0FCD0FC42B6824F8023BA3
:104FC0001B0C237026E06C46A04D0FCD0FC42B6840
:104FD00024F8023B1B0C23701CE06C469C4D0FCD4B
:104FE0000FC42B6824F8023B1B0C237012E06C46A4
:104FF000984D0FCD0FC42B6824F8023B1B0C237077
:1050000008E06C46944D0FCD0FC42B6824F8023B8A
:105010001B0C237002206946032201F009FE874D14
:105020002B68874C5B0168468C49E25C03F0B8FF53
:1050300003206946024601F0FBFD2B6804EB431395
:10504000684687495A7803F0ABFF0420694603227B
:1050500001F0EEFD2B6804EB4313684681499A7812
:1050600003F09EFF05206946032201F0E1FD2B6855
:1050700004EB431368467C49DA7803F091FF06207D
:105080006946032201F0D4FD2B6804EB4313684604
:1050900076499A8803F084FF07206946032201F0CD
:1050A000C7FD2B6804EB431368467149DA8903F0A6
:1050B00077FF08206946032201F0BAFD2B6804EB54
:1050C0004314A37D212B27D003D83BB1112B0FD044
:1050D00035E0412B16D0812B28D030E06C46654D51
:1050E0000FCD0FC42B6824F8023B1B0C237026E065
:1050F0006C46614D0FCD0FC42B6824F8023B1B0C8E
:1051000023701CE06C465D4D0FCD0FC42B6824F856
:10511000023B1B0C237012E06C46594D0FCD0FC49F
:105120002B6824F8023B1B0C237008E06C46554D9D
:105130000FCD0FC42B6824F8023B1B0C23700920F1
:105140006946032201F074FD3C4D2B683C4C04EB96
:10515000431368464C491A7C03F022FF0A20694633
:10516000032201F065FD2B6804EB431368464749B1
:105170005A7C03F015FF0B206946032201F058FD0D
:105180002B6804EB4313684641499A7C03F008FFFF
:105190000C206946032201F04BFD2B6804EB4313FE
:1051A00068463C49DA7C03F0FBFE0D206946032289
:1051B00001F03EFD2B6804EB4313684636499A8A9A
:1051C00003F0EEFE0E206946032201F031FD2B684C
:1051D00004EB4313684631499A7903F0E1FE0F204E
:1051E0006946032201F024FD2B6804EB4313684653
:1051F0002B491A8903F0D4FE10206946032201F0DE
:1052000017FD2B6804EB4313684626499A7A03F08E
:10521000C7FE11206946032201F00AFD2B6804EB4A
:10522000431468462049E27A03F0BAFE1220694628
:10523000032201F0FDFC41B030BD00BF2029002059
:1052400018010020F0C1000814C2000828C200089C
:105250003CC2000850C2000864C2000878C20008BE
:1052600088C2000898C20008ACC20008C0C200088A
:10527000D4C20008F0C2000804C3000818C3000824
:105280002CC3000840C3000854C3000864C30008CE
:1052900074C3000888C300089CC30008B0C300089A
:1052A000C4C30008DCC30008F4C300080000000009
:1052B00038B5FBF7F1F8FFF769FD002001F096F82B
:1052C000012001F093F8FFF70FFEFFF7B1FD6E48E4
:1052D0006E4B036047F61223436000238360C36074
:1052E0000361836104224261C361FEF795FF08B147
:1052F000FFF746FD0024664B1C700F22654B1A70A9
:1053000001F0AEFA20464FF0504101F017FA204666
:10531000012101F05DFA204601F054FA6FF47F009C
:1053200001F0F8FA5C4D284601F072FA14200146AB
:10533000C8224FF48C7301F035FB284601F074FA53
:105340006FF47F0001F064FA01F066FB534801F04E
:1053500079FA02205249012201F06AFC05205149E4
:10536000012201F065FC08204F49012201F060FC98
:105370004E4B1C6044484E490122FEF7BBFF08B16A
:10538000FFF7FEFC0024494B1C604A4B1C604FF4A5
:10539000FA60FBF7A9F8404D284601F0BBFA284611
:1053A00001F042FA6FF47F0001F032FA1DE020466E
:1053B00003F04CFC4FF06E5103F09CFC03F056F8E8
:1053C00002460B4602F0F4FE2BA3D3E9002303F0C0
:1053D000A1F801F07DFD2AA3D3E9002303F09AF898
:1053E00003F032FB344B18550134FF2CDFDD002570
:1053F0002B4600E023465C1C0A2B22D9FFF7A6FDB2
:105400002C4B1B6873B1013B2A4A13606FF0FF00FD
:1054100001F0FEF913202949012201F009FC0125C0
:1054200000240EE065B11C4801F0F2F900204FF4B1
:105430009871F022102301F0B5FA00252C4600E007
:10544000002400F0C5FC012001F00CF80A20FBF755
:105450004BF81B4B1A681B4B03EB4213D97D1A4ABE
:1054600013880B449BB21380FF2BC3D90022164B29
:105470001A80BFE7AFF30080182D4454FB21094088
:105480000000000000C05F407424002000100140B4
:105490007024002025290020FF0000FF4800002084
:1054A0000CC400081CC400082CC4000820220020E2
:1054B000BC250020B4250020FC260020B0240020BC
:1054C0002029002018010020242200200268944B8B
:1054D0009A4240F04A8370B588B0924B1A7802F035
:1054E000F001914B1B78DBB2072B00F23483DFE82D
:1054F00003F00423293B414C521D902903D1012282
:10550000894B1A702AE3802903D10322864B1A7033
:1055100024E3B02903D10522834B1A701EE3C0296E
:1055200040F01C830722804B1A7017E37F4B1A60F0
:1055300000227D4B1A7011E37D4B1A6002227A4BD8
:105540001A700BE37B4B1A600021774A1170784A7E
:1055500010681968754B1A68C0B2C9B2764B03EB74
:10556000421200F025FDF9E2714B1A6004226E4BE5
:105570001A70F3E26F4B1A6000226B4B1A706C4B7F
:105580001868C0B200F0E8FBE8E26C4B1A60062233
:10559000654B1A70E2E26A4B1A600022624B1A7085
:1055A000664B1B68402B20D1654B1B683F2B03DDEE
:1055B0000122644B1A70D1E20024624B1C7011E08E
:1055C00004EB44031B01604AD35E002B08DA20463B
:1055D00000F0A8FB04EB44031B0100215A4AD152FE
:1055E0000134E4B2052CEBD9B8E2544B1B68722BA2
:1055F0001ED1534B1B68412B0AD14C4A136801330F
:1056000013607F2B40F3AA827F22484B1A60A5E2E9
:105610004B4B1B683F2B40F0A182444A1368013B6F
:105620001360002B80F29A820022404B1A6095E2B0
:10563000424B1B68A3B93D480268414B19683E4B79
:1056400003EB421249019180026803EB42133F4889
:105650003F499A8803F0A4FC14223E4B1A607DE275
:10566000364B1B68A3B931480268354B1968324B79
:1056700003EB421249019182026803EB4213334863
:1056800035499A8A03F08CFC1422324B1A6065E289
:105690002A4B1B684C2B13D124490A68284B1868E5
:1056A000254B03EB4212D0750A6803EB42132748DF
:1056B0002A49DA7D03F074FC1422264B1A604DE26D
:1056C0001E4B1B684D2B13D118490A681C4B1868D8
:1056D000194B03EB421210760A6803EB42131B4886
:1056E0001F491A7E03F05CFC14221A4B1A6035E243
:1056F000124B1B68492B37D10C490B68104A1268B2
:10570000D2100D4C5B01E2540B685B010F48154948
:10571000E25C03F045FC14220E4B1A601EE200BF4F
:1057200000100140BC25002070240020202900200A
:10573000B8250020B0250020180100206C2400208E
:10574000F826002024290020FC270020B024002077
:105750003CC40008B425002048C4000854C4000814
:1057600064C4000874C40008904B1B68502B14D10B
:105770008F4802688F4B1968C9108F4B03EB421298
:105780001174026803EB42138C488D491A7C03F0B4
:1057900007FC14228B4B1A60E0E1844B1B684B2BF7
:1057A00014D183480268834B1968C910824B03EBFC
:1057B00042125170026803EB4213804882495A78C2
:1057C00003F0EEFB14227F4B1A60C7E1774B1B6896
:1057D000512B14D176480268764B1968C910764B64
:1057E00003EB42125174026803EB4213734877498A
:1057F0005A7C03F0D5FB1422724B1A60AEE16B4B5E
:105800001B684F2B14D16A4802686A4B1968C9108B
:10581000694B03EB42129170026803EB4213674835
:105820006B499A7803F0BCFB1422664B1A6095E131
:105830005E4B1B68522B14D15D4802685D4B1968A2
:10584000C9105D4B03EB42129174026803EB4213E3
:105850005A4860499A7C03F0A3FB1422594B1A6002
:105860007CE1524B1B68482B14D151480268514BC4
:105870001968C910504B03EB4212D170026803EB58
:1058800042134E485449DA7803F08AFB14224D4BF8
:105890001A6063E1454B1B68532B14D144480268DE
:1058A000444B1968C910444B03EB4212D17402688F
:1058B00003EB421341484949DA7C03F071FB14229F
:1058C000404B1A604AE1394B1B684A2B14D13848C7
:1058D0000268384B1968384B03EB421209011181F9
:1058E000026803EB421335483D491A8903F058FB1F
:1058F0001422344B1A6031E12C4B1B68472B14D116
:105900002B4802682B4B1968C9102B4B03EB421232
:105910009172026803EB4213284832499A7A03F0E5
:105920003FFB1422274B1A6018E1204B1B68552BB4
:105930000ED1204B1B68C3F3C7032B4A1370127898
:105940001E482A4903F02CFB14221E4B1A6005E165
:10595000164B1B685D2B4FD1254C20680190237995
:105960008DF80830134B1D6805EB85057F2395FBEB
:10597000F3F503AE08340FCC0FC6236833600C4B2D
:10598000196808AB2B4413F81C2C0B4B03EB411389
:105990001A7308AB03EB85050848164955F8142C13
:1059A00003F0FEFA1422074B1A60D7E06C240020A3
:1059B00020290020F826002018010020B024002013
:1059C00084C40008B425002094C40008A0C40008C2
:1059D000ACC40008BCC40008CCC40008DCC4000887
:1059E000ECC40008F8C400082529002008C50008F8
:1059F000C0C1000814C500085C4B1B68122B29D1DC
:105A00005B4C2068019023798DF80830594B1D6854
:105A100005EB85057F2395FBF3F503AE08340FCC2A
:105A20000FC623683360544B196808AB2B4413F836
:105A30001C2C524B03EB41139A7508AB03EB850505
:105A40004F48504955F8142C03F0AAFA14224E4B33
:105A50001A6083E0454B1B68132B39D1444B1A461F
:105A600032F81C1F9278ADF804108DF8062003ACB4
:105A700020330FCB84E80F003E4B1B685B1113F003
:105A8000FF0F10D03C48016808AA52FA83F212F8BE
:105A90001D4C3A4A02EB41118C71016802EB411234
:105AA0000721D17206E0344A1168344A02EB4112F0
:105AB0000021D172DBB208AA02EB830330483349DC
:105AC00053F8142C03F06CFA14222F4B1A6045E0A3
:105AD000264B1B68102B19D127480168254B1B68E2
