:020000040800F2
:100000000000032041040008615300086553000804
:10001000695300086D530008715300080000000088
:100020000000000000000000000000007553000800
:1000300079530008000000007D5300088153000838
:100040006D0400086D0400086D0400086D040008CC
:100050006D0400086D0400086D0400086D040008BC
:100060006D0400086D0400086D0400086D040008AC
:100070006D0400086D0400086D0400086D0400089C
:100080006D0400086D0400086D0400086D0400088C
:100090006D0400086D0400086D0400086D0400087C
:1000A0006D0400086D0400086D0400086D0400086C
:1000B0006D0400086D0400086D0400086D0400085C
:1000C0006D0400086D0400086D0400086D0400084C
:1000D0006D0400086D0400086D0400086D0400083C
:1000E0006D0400086D0400086D0400086D0400082C
:1000F0006D0400086D0400086D0400086D0400081C
:100100006D0400086D0400086D0400086D0400080B
:100110006D0400086D0400086D0400086D040008FB
:100120006D0400086D0400086D0400086D040008EB
:100130006D0400086D0400086D0400086D040008DB
:100140006D0400086D0400086D0400086D040008CB
:100150006D0400086D0400086D0400086D040008BB
:100160006D0400086D0400086D0400086D040008AB
:100170006D0400086D0400086D0400080000000014
:100180006D0400086D0400086D0400086D0400088B
:100190006D0400086D0400086D0400086D0400087B
:1001A0006D0400086D0400086D04000800000320C1
:1001B00041040008615300086553000869530008B2
:1001C0006D5300087153000800000000000000009B
:1001D000000000000000000075530008795300087B
:1001E000000000007D530008815300086D040008E2
:1001F0006D0400086D0400086D0400086D0400081B
:100200006D0400086D0400086D0400086D0400080A
:100210006D0400086D0400086D0400086D040008FA
:100220006D0400086D0400086D0400086D040008EA
:100230006D0400086D0400086D0400086D040008DA
:100240006D0400086D0400086D0400086D040008CA
:100250006D0400086D0400086D0400086D040008BA
:100260006D0400086D0400086D0400086D040008AA
:100270006D0400086D0400086D0400086D0400089A
:100280006D0400086D0400086D0400086D0400088A
:100290006D0400086D0400086D0400086D0400087A
:1002A0006D0400086D0400086D04000889530008FF
:1002B0006D0400086D0400086D0400086D0400085A
:1002C0006D0400086D0400086D0400086D0400084A
:1002D0006D0400086D0400086D0400086D0400083A
:1002E0006D0400086D0400086D0400086D0400082A
:1002F0006D0400086D0400086D0400086D0400081A
:100300006D0400086D0400086D0400086D04000809
:100310006D0400086D0400086D0400086D040008F9
:100320006D0400086D040008895300086D0400087E
:100330006D040008314B324A1360324A1360324B6D
:1003400002E000221A600433304A9342F9D32C4B66
:100350001B6813B92B4B1B6803B1FEE7274B2C4AD4
:1003600013602C4A13602C4B2C4A03E0116819606F
:10037000043304322A498B42F8D3254B1A68294B9F
:100380009A4204D1234B1A681B689A4200D0FEE7B8
:1003900000B583B003F0A2FE01A8694603F038FE61
:1003A000214C224B1C1BA410002504E01E4B53F8CB
:1003B000253098470135AC42F8DC1D4C1D4B1C1B09
:1003C000A410002504E01A4B53F825309847013556
:1003D000AC42F8DC0198009904F0ACF90546164CE3
:1003E000164B1C1BA41004E0013C134B53F82430A3
:1003F0009847002CF8DC284603F0DCFDBABADECAC8
:10040000CC00002020040020CC0000202404002088
:1004100000000020C800002000000020AC8500087B
:10042000CC000020785634127004000870040008D4
:1004300070040008700400087004000870040008CC
:1004400008B5FFF777FF00BFFEE700BFFEE700BF7C
:10045000FEE700BFFEE700BFFEE700BFFEE700BF0C
:10046000FEE700BFFEE700BFFEE700BFFEE700BFFC
:1004700010B5044602F080FB064BA3FB0030800958
:1004800000F0ACF84FF0FF302146002200F058F8A1
:10049000002010BDD34D621008B50B4B1A6842F412
:1004A00000721A601A6842F480621A601A6842F494
:1004B00080721A60032000F025F80F20FFF7D8FFA4
:1004C00001F0DAFE002008BD003C0240024A136839
:1004D00001331360704700BFD0000020014B186843
:1004E000704700BFD000002010B582B00190FFF728
:1004F000F5FF0446FFF7F2FF001B019B9842F9D37A
:1005000002B010BD10B50446C31E042B03D90A481F
:10051000A42103F085FD04F00700084AD36823F402
:10052000E0631B041B0C43EA002040F0BF6040F472
:100530000030D06010BD00BF005C000800ED00E09E
:1005400070B504460E4615460F2A03D91A48BC2139
:1005500003F066FD0F2E03D91748BD2103F060FD9F
:10056000164BDB68C3F30223C3F10702042A28BF3A
:100570000422191D062901D9D81E00E000200123FC
:1005800003FA02F2013A324002FA00F183405A1EA5
:100590002A400A43002C06DA04F00F041201D2B2FA
:1005A000074B1A5570BD1201D2B204F1604404F534
:1005B000614484F8002370BD005C000800ED00E099
:1005C00014ED00E0410900F01F0001238340024ABE
:1005D00042F82130704700BF00E100E00138B0F17F
:1005E000807F0AD2064B5860F021064A82F8231019
:1005F0000020986007221A6070470120704700BFF2
:1006000010E000E000ED00E0002800F0008110B5EF
:10061000044603687F4A934231D0183293422ED069
:10062000183293422BD01832934228D0183293427A
:1006300025D01832934222D0183293421FD018325C
:1006400093421CD002F55672934218D0183293424E
:1006500015D01832934212D0183293420FD018326C
:1006600093420CD01832934209D01832934206D0EC
:100670001832934203D06848B52103F0D1FC636877
:10068000C3B1B3F1007F15D0B3F1806F12D0B3F1D5
:10069000C06F0FD0B3F1006F0CD0B3F1206F09D051
:1006A000B3F1406F06D0B3F1606F03D05A48B62162
:1006B00003F0B6FCA3683BB1402B05D0802B03D0E0
:1006C0005548B72103F0ACFCE368B3F5007F04D0D4
:1006D0001BB15148B82103F0A3FC2369B3F5806F27
:1006E00004D01BB14C48B92103F09AFC63694BB1AB
:1006F000B3F5006F06D0B3F5805F03D04648BA214A
:1007000003F08EFCA3694BB1B3F5005F06D0B3F5DF
:10071000804F03D04048BB2103F082FCE36943B122
:10072000B3F5807F05D0202B03D03B48BC2103F0DC
:1007300077FC236A63B1B3F5803F09D0B3F5003F7E
:1007400006D0B3F5403F03D03348BD2103F068FC29
:10075000636A2BB1042B03D02F48BE2103F060FC49
:10076000636A23B3A36A032B03D92B48C32103F085
:1007700057FCE36A63B1B3F5000F09D0B3F1807F92
:1007800006D0B3F1C07F03D02348C42103F048FC56
:10079000236B63B1B3F5001F09D0B3F5800F06D00A
:1007A000B3F5C00F03D01C48C52103F039FC022368
:1007B00084F8353020680268184B13406168A268DD
:1007C0001143E26811432269114362691143A2692E
:1007D0001143E2691143226A0A431343626A042AFD
:1007E00003D1E16A226B0A43134303602268536911
:1007F00023F00703616A0B43042901D1A16A0B436B
:1008000053610020E064012384F8353010BD0120DD
:10081000704700BF10600240345C00083F8014F055
:100820000346002800F0088790F83520D2B2022A4B
:1008300000F0048701680A6822F001020A6001687A
:1008400000220A6001684A6001688A600168CA6023
:1008500001680A610268212151610268AA498A423D
:1008600054D9A1F589618A424CD001F580618A4250
:1008700046D0A1F568718A4240D001F580618A4274
:100880003AD0A1F589618A4233D001F580618A426C
:100890002CD0A1F568718A4225D001F580618A4289
:1008A0001ED0A1F589618A4217D001F580618A4284
:1008B00010D0A1F568718A4209D001F580618A42A1
:1008C00002D14FF480211EE04FF080711BE04FF405
:1008D000802118E04FF4802115E04FF4802112E0D0
:1008E0004FF480710FE04FF480710CE04FF4807191
:1008F00009E04FF4807106E0844904E0834902E096
:10090000824900E08149824AD1600EE181498A42F0
:1009100053D9A8398A424CD001F580618A4246D029
:10092000A1F568718A4240D001F580618A423AD0CF
:10093000A1F589618A4233D001F580618A422CD0C9
:10094000A1F568718A4225D001F580618A421ED0E6
:10095000A1F589618A4217D001F580618A4210D0E1
:10096000A1F568718A4209D001F580618A4202D1FD
:100970004FF480211EE04FF080711BE04FF4802186
:1009800018E04FF4802115E04FF4802112E04FF47D
:1009900080710FE04FF480710CE04FF4807109E03A
:1009A0004FF4807106E0594904E0584902E0574984
:1009B00000E05649564A9160B7E057498A4253D9F8
:1009C00048398A424CD001F580618A4246D0A1F56F
:1009D00068718A4240D001F580618A423AD0A1F51F
:1009E00089618A4233D001F580618A422CD0A1F519
:1009F00068718A4225D001F580618A421ED0A1F536
:100A000089618A4217D001F580618A4210D0A1F530
:100A100068718A4209D001F580618A4202D14FF49F
:100A200080211EE04FF080711BE04FF4802118E020
:100A30004FF4802115E04FF4802112E04FF48071D3
:100A40000FE04FF480710CE04FF4807109E04FF437
:100A5000807106E02D4904E02C4902E02B4900E0BA
:100A60002A492E4AD16060E02D498A425AD001F5C8
:100A700080618A4246D0A1F568718A4240D001F572
:100A800080618A423AD0A1F589618A4233D001F56A
:100A900080618A422CD0A1F568718A4225D001F587
:100AA00080618A421ED0A1F589618A4217D001F582
:100AB00080618A4210D0A1F568718A4209D001F59F
:100AC00080618A4202D14FF480212CE04FF0807186
:100AD00029E04FF4802126E04FF4802123E04FF4F9
:100AE000802120E04FF480711DE04FF480711AE006
:100AF0004FF4807117E04FF4807114E0034912E065
:100B0000024910E001490EE05864024004008000F0
:100B100000640240B8600240586002400060024039
:100B200010600240AC49AD4A91601A68AC498A42F3
:100B300054D9A1F589618A424CD001F580618A427D
:100B400046D0A1F568718A4240D001F580618A42A1
:100B50003AD0A1F589618A4233D001F580618A4299
:100B60002CD0A1F568718A4225D001F580618A42B6
:100B70001ED0A1F589618A4217D001F580618A42B1
:100B800010D0A1F568718A4209D001F580618A42CE
:100B900002D14FF400111EE04FF000611BE04FF452
:100BA000001118E04FF4001115E04FF4001112E0AD
:100BB0004FF400610FE04FF400610CE04FF400616E
:100BC00009E04FF4006106E0202104E0202102E06A
:100BD000202100E02021834AD1600EE182498A422F
:100BE00053D9A8398A424CD001F580618A4246D057
:100BF000A1F568718A4240D001F580618A423AD0FD
:100C0000A1F589618A4233D001F580618A422CD0F6
:100C1000A1F568718A4225D001F580618A421ED013
:100C2000A1F589618A4217D001F580618A4210D00E
:100C3000A1F568718A4209D001F580618A4202D12A
:100C40004FF400111EE04FF000611BE04FF4001163
:100C500018E04FF4001115E04FF4001112E04FF4CA
:100C600000610FE04FF400610CE04FF4006109E017
:100C70004FF4006106E0202104E0202102E0202161
:100C800000E02021574A9160B7E058498A4253D981
:100C900048398A424CD001F580618A4246D0A1F59C
:100CA00068718A4240D001F580618A423AD0A1F54C
:100CB00089618A4233D001F580618A422CD0A1F546
:100CC00068718A4225D001F580618A421ED0A1F563
:100CD00089618A4217D001F580618A4210D0A1F55E
:100CE00068718A4209D001F580618A4202D14FF4CD
:100CF00000111EE04FF000611BE04FF4001118E0FE
:100D00004FF4001115E04FF4001112E04FF40061B0
:100D10000FE04FF400610CE04FF4006109E04FF484
:100D2000006106E0202104E0202102E0202100E013
:100D300020212A4AD16060E02D498A425AD001F52B
:100D400080618A4246D0A1F568718A4240D001F59F
:100D500080618A423AD0A1F589618A4233D001F597
:100D600080618A422CD0A1F568718A4225D001F5B4
:100D700080618A421ED0A1F589618A4217D001F5AF
:100D800080618A4210D0A1F568718A4209D001F5CC
:100D900080618A4202D14FF400112CE04FF00061D3
:100DA00029E04FF4001126E04FF4001123E04FF446
:100DB000001120E04FF400611DE04FF400611AE0E3
:100DC0004FF4006117E04FF4006114E0202112E0BD
:100DD000202110E020210EE004008000006002408D
:100DE0005864024000640240B8600240586002400B
:100DF000106002402021AC4A91601A68AB498A42D7
:100E000054D9A1F589618A424CD001F580618A42AA
:100E100046D0A1F568718A4240D001F580618A42CE
:100E20003AD0A1F589618A4233D001F580618A42C6
:100E30002CD0A1F568718A4225D001F580618A42E3
:100E40001ED0A1F589618A4217D001F580618A42DE
:100E500010D0A1F568718A4209D001F580618A42FB
:100E600002D14FF400211EE04FF000711BE04FF45F
:100E7000002118E04FF4002115E04FF4002112E0AA
:100E80004FF400710FE04FF400710CE04FF400716B
:100E900009E04FF4007106E0082104E0082102E0B7
:100EA000082100E00821824AD1600CE181498A4290
:100EB00053D9A8398A424CD001F580618A4246D084
:100EC000A1F568718A4240D001F580618A423AD02A
:100ED000A1F589618A4233D001F580618A422CD024
:100EE000A1F568718A4225D001F580618A421ED041
:100EF000A1F589618A4217D001F580618A4210D03C
:100F0000A1F568718A4209D001F580618A4202D157
:100F10004FF400211EE04FF000711BE04FF4002160
:100F200018E04FF4002115E04FF4002112E04FF4D7
:100F300000710FE04FF400710CE04FF4007109E014
:100F40004FF4007106E0082104E0082102E00821C6
:100F500000E00821564A9160B5E057498A4253D9CA
:100F600048398A424CD001F580618A4246D0A1F5C9
:100F700068718A4240D001F580618A423AD0A1F579
:100F800089618A4233D001F580618A422CD0A1F573
:100F900068718A4225D001F580618A421ED0A1F590
:100FA00089618A4217D001F580618A4210D0A1F58B
:100FB00068718A4209D001F580618A4202D14FF4FA
:100FC00000211EE04FF000711BE04FF4002118E0FB
:100FD0004FF4002115E04FF4002112E04FF40071AE
:100FE0000FE04FF400710CE04FF4007109E04FF492
:100FF000007106E0082104E0082102E0082100E079
:101000000821294AD1605EE02C498A4258D001F576
:1010100080618A4246D0A1F568718A4240D001F5CC
:1010200080618A423AD0A1F589618A4233D001F5C4
:1010300080618A422CD0A1F568718A4225D001F5E1
:1010400080618A421ED0A1F589618A4217D001F5DC
:1010500080618A4210D0A1F568718A4209D001F5F9
:1010600080618A4202D14FF400212AE04FF00071E2
:1010700027E04FF4002124E04FF4002121E04FF459
:1010800000211EE04FF400711BE04FF4007118E0E6
:101090004FF4007115E04FF4007112E0082110E0E8
:1010A00008210EE008210CE0006002405864024074
:1010B00000640240B8600240586002401060024084
:1010C0000821A44A91601A68A3498A4250D9A1F51F
:1010D00089618A4248D001F580618A4242D0A1F5F7
:1010E00068718A423CD001F580618A4236D0A1F510
:1010F00089618A4230D001F580618A422AD0A1F507
:1011000068718A4224D001F580618A421ED0A1F51F
:1011100089618A4217D001F580618A4210D0A1F519
:1011200068718A4209D001F580618A4202D14FF488
:1011300080311AE04FF4800117E04FF4803114E061
:101140004FF4803111E04FF480310EE040210CE08B
:1011500040210AE0402108E0402106E07F4904E008
:101160007E4902E07D4900E07C497D4AD16002E190
:101170007C498A424FD9A8398A4248D001F580611A
:101180008A4242D0A1F568718A423CD001F5806163
:101190008A4236D0A1F589618A4230D001F580615A
:1011A0008A422AD0A1F568718A4224D001F5806173
:1011B0008A421ED0A1F589618A4217D001F580616B
:1011C0008A4210D0A1F568718A4209D001F5806188
:1011D0008A4202D14FF480311AE04FF4800117E0C7
:1011E0004FF4803114E04FF4803111E04FF480313E
:1011F0000EE040210CE040210AE0402108E04021BF
:1012000006E0564904E0554902E0544900E05349DC
:10121000534A9160AFE054498A424FD948398A42D3
:1012200048D001F580618A4242D0A1F568718A42B6
:101230003CD001F580618A4236D0A1F589618A42AD
:1012400030D001F580618A422AD0A1F568718A42C6
:1012500024D001F580618A421ED0A1F589618A42BD
:1012600017D001F580618A4210D0A1F568718A42D9
:1012700009D001F580618A4202D14FF480311AE031
:101280004FF4800117E04FF4803114E04FF48031C7
:1012900011E04FF480310EE040210CE040210AE0E3
:1012A000402108E0402106E02C4904E02B4902E0FF
:1012B0002A4900E02949274AD1605CE02B498A424B
:1012C00056D001F580618A4242D0A1F568718A4208
:1012D0003CD001F580618A4236D0A1F589618A420D
:1012E00030D001F580618A422AD0A1F568718A4226
:1012F00024D001F580618A421ED0A1F589618A421D
:1013000017D001F580618A4210D0A1F568718A4238
:1013100009D001F580618A4202D14FF4803128E082
:101320004FF4800125E04FF4803122E04FF480310A
:101330001FE04FF480311CE040211AE0402118E00A
:10134000402116E0402114E0044912E0034910E076
:1013500002490EE000600240586402400100800033
:1013600000640240B86002405860024010600240D1
:10137000B349B44A91601A68B3498A4254D9A1F575
:1013800089618A424CD001F580618A4246D0A1F53C
:1013900068718A4240D001F580618A423AD0A1F555
:1013A00089618A4233D001F580618A422CD0A1F54F
:1013B00068718A4225D001F580618A421ED0A1F56C
:1013C00089618A4217D001F580618A4210D0A1F567
:1013D00068718A4209D001F580618A4202D14FF4D6
:1013E00080111EE04FF080611BE04FF4801118E087
:1013F0004FF4801115E04FF4801112E04FF480613A
:101400000FE04FF480610CE04FF4806109E04FF48D
:10141000806106E0102104E0102102E0102100E0CC
:1014200010218A4AD16000E189498A4253D9A839FA
:101430008A424CD001F580618A4246D0A1F568719C
:101440008A4240D001F580618A423AD0A1F5896193
:101450008A4233D001F580618A422CD0A1F56871AF
:101460008A4225D001F580618A421ED0A1F58961AA
:101470008A4217D001F580618A4210D0A1F56871C7
:101480008A4209D001F580618A4202D14FF480116D
:101490001EE04FF080611BE04FF4801118E04FF424
:1014A000801115E04FF4801112E04FF480610FE0DD
:1014B0004FF480610CE04FF4806109E04FF48061EB
:1014C00006E0102104E0102102E0102100E01021CC
:1014D0005E4A9160A9E05F498A4253D948398A42FD
:1014E0004CD001F580618A4246D0A1F568718A42EC
:1014F00040D001F580618A423AD0A1F589618A42E3
:1015000033D001F580618A422CD0A1F568718A42FE
:1015100025D001F580618A421ED0A1F589618A42F9
:1015200017D001F580618A4210D0A1F568718A4216
:1015300009D001F580618A4202D14FF480111EE08A
:101540004FF080611BE04FF4801118E04FF48011E0
:1015500015E04FF4801112E04FF480610FE04FF47A
:1015600080610CE04FF4806109E04FF4806106E097
:10157000102104E0102102E0102100E01021314A86
:10158000D16052E034498A424CD001F580618A42F0
:1015900046D0A1F568718A4240D001F580618A4247
:1015A0003AD0A1F589618A4233D001F580618A423F
:1015B0002CD0A1F568718A4225D001F580618A425C
:1015C0001ED0A1F589618A4217D001F580618A4257
:1015D00010D0A1F568718A4209D001F580618A4274
:1015E00002D14FF480111EE04FF080611BE04FF4F8
:1015F000801118E04FF4801115E04FF4801112E0D3
:101600004FF480610FE04FF480610CE04FF4806193
:1016100009E04FF4806106E0102104E0102102E0AF
:10162000102100E01021074A91600020D86483F85F
:10163000350083F83400704701207047012070475F
:1016400001008000006002405864024000640240D3
:10165000B8600240586002401060024030B4056833
:10166000029C44EA03436B640368DA634368B3F59E
:10167000403F35D101F07F4201F47F0301F47F4503
:10168000C9B284681CB92B431343194325E0012CCC
:1016900002D12B43194320E0022C07D1DA0CAB0A0C
:1016A000D20242EA431343EAD10116E0032C0AD1E5
:1016B000D40FDA0CEB0A920242EA431343EAC43332
:1016C00043EAD10109E0140F1A0D2B0B120242EA72
:1016D000031343EA043343EA11110368996301E0F9
:1016E0000368D96030BC7047704700BF00284FD0F6
:1016F00010B504460268274B9A4203D02648B4210D
:1017000002F08EFC636863B1B3F5803F09D0B3F596
:10171000003F06D0B3F5403F03D01F48B52102F08B
:101720007FFCA368042B03D91B48B62102F078FC88
:10173000E368B3F5804F03D31748B72102F070FC7C
:1017400094F8393013F0FF0F02D12046FFF7CCFF99
:10175000022384F839302268136823F44033616827
:101760000B4313602268536B23F00703A1680B43FC
:1017700053632268136C23F47F5323F03F03E16823
:101780000B4313640020E063012384F8393010BD5B
:101790000120704700B00240645C00082DE9F04170
:1017A00082B0089E90F83840012C2CD01D46174678
:1017B00088460446012380F83830022380F8393007
:1017C000B6F5803F04D312484FF4B57102F028FCFF
:1017D000B5F5804F04D30E4840F26B1102F020FCA7
:1017E0002268136823F001031360009620464146E7
:1017F0003A462B46FFF732FF2268136843F0010395
:101800001360002000E0022002B0BDE8F08100BFBC
:10181000645C000870B504460D4603681B6813F04D
:10182000010F30D0FEF75AFE064627E059685A6885
:1018300002F0010211F0200F00D15AB120229A606B
:10184000236801209860042384F83930002384F849
:10185000383070BDB5F1FF3F10D025B1FEF73EFE28
:10186000801BA8420AD9002384F83830E36B43F088
:101870002003E363032084F8390070BD23685A68AD
:1018800012F0020FD2D02368DB6913F0200F24D0AE
:10189000FEF724FE06461BE05A6812F0080F06D039
:1018A00008229A60042384F83930012070BDB5F114
:1018B000FF3F0DD025B1FEF711FE801BA84207D9CE
:1018C000E36B43F02003E363032084F8390070BD29
:1018D00023685A6812F0100FDED0236802229A6043
:1018E000236810229A60012384F83930002084F89C
:1018F000380070BD90F83830012B00F0B18070B521
:101900000D460446012380F83830022380F8393030
:10191000994204D9534840F24A3102F081FB04EB6A
:1019200005139B69B3F5804F04D34E4840F24B3109
:1019300002F076FB6368B3F5403F15D004EB051366
:10194000DB690A2B04D9474840F24E3102F068FBAC
:1019500063684BB104EB05131B6A022B04D94148A1
:1019600040F2513102F05CFB002D39D12068436A0E
:101970003D49194004EB0513DB69A3F10902012A73
:101980000BD8AA1C1201A618A25843EA0242736897
:1019900003F07F4313430B4309E0AA1C1201A6186E
:1019A000A25843EA0243726843EA02630B4343626C
:1019B00021688B6923F47F5323F03F0304EB051266
:1019C000906903438B61D269093A012A41D804EB3B
:1019D00005156A6A22F07F4213432268936238E059
:1019E0002068C3692049194004EB0513DB69A3F1A2
:1019F0000902012A0BD8AA1C1201A618A25843EA10
:101A00000242736803F07F4313430B4309E0AA1CAF
:101A10001201A618A25843EA0243726843EA02631D
:101A20000B43C36121680B6923F47F5323F03F0309
:101A300004EB0512906903430B61D269093A012A4C
:101A400007D804EB05156A6A22F07F421343226827
:101A50001362012384F83930002084F8380070BD07
:101A600002207047645C0008F0FFFC002DE9F84F8D
:101A700080460F460B881BB9B348C32102F0D0FA49
:101A80007B68012B22D9112B20D0022B1ED0122BC8
:101A90001CD0AE4A934219D002F58012934215D061
:101AA00002F58012934211D0A2F5F81293420DD0A4
:101AB00002F58012934209D002F58012934205D0BC
:101AC000032B03D0A048C42102F0AAFABB68022B62
:101AD00003D99D48C52102F0A3FA00242EE1A146B6
:101AE0000125A5403B6803EA050AAA4540F0258187
:101AF0007B68022B01D0122B58D13B69002B45D0BB
:101B0000092B43D0002B41D0002B3FD0F3B3EBB3D4
:101B1000012B3BD03AD0022B38D037D036D0032B14
:101B200034D0042B32D031D030D0052B2ED02DD054
:101B3000092B2BD0062B29D0092B27D0072B25D0FA
:101B400024D023D0082B21D020D01FD0092B1DD08A
:101B50001CD00A2B1AD019D00B2B17D00C2B15D058
:101B600014D00D2B12D00F2B10D0052B0ED00DD072
:101B70000CD0082B0AD009D00C2B07D0062B05D08F
:101B80000E2B03D07048D62102F04AFAE608083638
:101B900058F8261004F0070080000F23834021EA44
:101BA00003023B698340134348F82630D8F80030DD
:101BB0004FEA440B032606FA0BF6F64306EA030245
:101BC0007B6803F0030303FA0BF31343C8F80030F8
:101BD0007B685A1E012A03D9112B01D0122B1CD16C
:101BE000FB68032B03D95848E92102F019FAD8F809
:101BF000083006EA0302FB6803FA0BF31343C8F844
:101C00000830D8F8043023EA05037D68C5F30015D1
:101C100005FA09F51D43C8F80450D8F80C303340D4
:101C2000BE6806FA0BF61E43C8F80C607B6813F01A
:101C3000805F00F08280464A536C43F480435364D3
:101C4000A308991CA2F5803252F8211004F0030079
:101C500080000F22824021EA02013E4A904537D09F
:101C600002F58062904531D002F5806290452BD01C
:101C700002F58062904525D002F5806290451FD024
:101C800002F58062904519D002F58062904513D02C
:101C900002F5806290450DD002F58062904507D034
:101CA00002F58062904501D1092212E00A2210E07B
:101CB00008220EE007220CE006220AE0052208E0D6
:101CC000042206E0032204E0022202E0012200E0F6
:101CD000002282400A4302331F4941F823201F4B50
:101CE0001A686FEA0A0303EA0201786810F4803F79
:101CF00001D04AEA0201194A1160526803EA02015E
:101D0000786810F4003F01D04AEA0201134A51609A
:101D1000926803EA0201786810F4801F01D04AEA51
:101D200002010E4A9160D2681340796811F4001FD5
:101D300001D04AEA0203094AD36001340F2C7FF62E
:101D4000CEAEBDE8F88F00BF945C00080000111013
:101D5000003802400000024000380140003C0140D1
:101D600070B5054614460E4621B908484FF4D371A4
:101D700002F056F9012C04D9044840F2A71102F0F0
:101D80004FF90CB12E8370BD6E8370BD945C00085A
:101D900038B505460C4621B9044840F2BD1102F0A1
:101DA0003FF96B695C406C6138BD00BF945C000812
:101DB000F0B54D680468E368C3F30B431D44D201DA
:101DC0001444D4F8883003F47043C4F888300468AD
:101DD00016190B68E468C4F30B442344013343EA47
:101DE0000543C6F88830CD680468E368C3F30A0386
:101DF0001D441444D4F88C3003F47043C4F88C3080
:101E0000046816198B68E468C4F30A042344013398
:101E100043EA0543C6F88C3003681344D3F8944072
:101E200024F00704C3F89440036813440C69C3F812
:101E3000944091F831E091F832308F690668164489
:101E4000D6F89C400025C6F89C500668164491F8C8
:101E5000304044EA0E2444EA034343EA0763C6F8E9
:101E60009C3003681344D3F8984024F0FF04C3F86F
:101E70009840036813444C69C3F8984003681344BE
:101E8000D3F8A04024F4E06424F00704C3F8A04091
:101E900003681344CE690C6A3443C3F8A040036856
:101EA0001344D3F8AC40C3F8AC50036813444C6AF5
:101EB000C3F8AC400B695BB1012B0BD0042B0BD0EA
:101EC000022B0BD0032B0BD0072B0BD102240AE0E3
:101ED000042408E0032406E0022404E0022402E0D3
:101EE000022400E0012403681344D3F8B05005F045
:101EF000E025C3F8B050036813448D6A04FB05F471
:101F0000E51C45EA0444C3F8B04003681344D3F821
:101F1000B44024F4FF6424F00704C3F8B440036819
:101F20001344C96AC3F8B41003681A44D2F8843061
:101F300043F00103C2F88430F0BD00BF704700BF1A
:101F4000002800F0E38038B504460268704B9A42DE
:101F500003D070489F2102F063F86369B3F5805F96
:101F600003D36C48A02102F05BF8A369B3F5006FBE
:101F700003D36848A12102F053F8E369B3F5805F09
:101F800003D36448A22102F04BF8236AB3F5006F33
:101F900003D36048A32102F043F8A36AB3F5006FAE
:101FA00003D35C48A42102F03BF8636AB3F5805F79
:101FB00003D35848A52102F033F8236BB3F5006F23
:101FC00003D35448A62102F02BF8E36AB3F5805FEF
:101FD00003D35048A72102F023F8636833B1B3F16B
:101FE000004F03D04B48A82102F01AF8A36833B180
:101FF000B3F1804F03D04748A92102F011F8E368FC
:1020000033B1B3F1005F03D04248AA2102F008F8CF
:10201000236933B1B3F1805F03D03E48AB2101F0B7
:10202000FFFF94F8A13013F0FF0F02D12046FFF715
:1020300085FF022384F8A1302268936923F070435E
:102040009361216888696368A2681343E2681A4350
:102050002369134303438B6121688A682E4B1A401E
:102060008A60656921688868A26942EA054202437C
:102070008A602168CA681A40CA60E5692168C86830
:10208000226A42EA05420243CA6021680A691A408C
:102090000A61656A21680869A26A42EA0542024348
:1020A0000A61226851690B405361E06A22685169F4
:1020B000236B43EA00430B43536194F8353094F8A3
:1020C000362012042068C16A01F07F41C162216894
:1020D000C86A42EA032394F8342013430343CB62D3
:1020E0002268536B43F0040353632268536B43F03D
:1020F000020353632268936943F001039361002054
:10210000C4F8A400012384F8A13038BD0120704731
:1021100000680140C45C000800F800F090F8A030AE
:10212000012B00F08A802DE9F04190460E460746CB
:10213000012380F8A030022380F8A1309A4204D90C
:102140003F4840F2DB1101F06BFF3369072B04D9E4
:102150003B484FF4EE7101F063FFF369B3F5806F14
:1021600007D0B3F5C06F04D0354840F2DD1101F05F
:1021700057FF336A052B06D0072B04D030484FF4A5
:10218000EF7101F04DFF3368B3F5805F04D32C4845
:1021900040F2DF1101F044FF7368B3F5803F04D3D0
:1021A00027484FF4F07101F03BFFB368B3F5805F4F
:1021B00004D3234840F2E11101F032FFF368B3F594
:1021C000803F04D31E484FF4F17101F029FFB36939
:1021D000FF2B04D91A4840F2E31101F021FFB36A42
:1021E000B3F5005F04D316484FF4F27101F018FF05
:1021F000F36AB3F5006F04D3114840F2E51101F022
:102200000FFF342404FB0874383435460FCD0FC457
:102210000FCD0FC40FCD0FC42B6823603846314655
:102220004246FFF7C5FD3A680123536287F8A130A3
:10223000002087F8A000BDE8F0810220704700BFB1
:10224000C45C000890F8A030012B11D0012280F866
:10225000A020022380F8A13006498B6943F4803323
:102260008B6180F8A120002380F8A03018467047C9
:102270000220704700680140704700BF10B5174A40
:10228000136C43F0805313640122154B1A60FEF760
:1022900025F9044605E0FEF721F9001BB0F57A7F29
:1022A00018D8104B5B6813F4803FF4D001220E4B1A
:1022B0001A60FEF713F9044605E0FEF70FF9001B5C
:1022C000B0F57A7F08D8074B5B6813F4003FF4D071
:1022D000002010BD032010BD032010BD00380240B7
:1022E00040000E420070004044000E4238B50446E3
:1022F00003680F2B03D9B348FD2101F091FE236839
:1023000013F0010F61D06368012B06D9052B04D0AF
:10231000AC484FF4817101F083FEAB4B9B6803F036
:102320000C03042B0AD0A84B9B6803F00C03082B6A
:102330000ED1A54B5B6813F4800F09D0A24B1B682C
:1023400013F4003F41D06368012B40F0FE813CE074
:1023500000229E4B1A70FEF7C1F8054607E0FEF713
:10236000BDF8401B41F28833984200F2F081964B51
:102370001B6813F4003FF2D12279944B1A70636802
:10238000012B11D1FEF7AAF8054607E0FEF7A6F8E3
:10239000401B41F28833984200F2DB818A4B1B6874
:1023A00013F4003FF2D010E0FEF798F8054607E07E
:1023B000FEF794F8401B41F28833984200F2CB813B
:1023C000814B1B6813F4003FF2D1236813F0020F16
:1023D0006DD0E368012B04D97A484FF4A17101F064
:1023E0001FFE23691F2B04D9764840F2431101F0E8
:1023F00017FE754B9B6813F00C0F0AD0724B9B684D
:1024000003F00C03082B1CD16F4B5B6813F4800F97
:1024100017D16D4B1B6813F0020F03D0E368012B3B
:1024200040F09B816848026822F0F8012269F82395
:1024300093FAA3F3B3FA83F3DBB29A400A43026040
:1024400035E0E3680BB30122614B1A60FEF746F8F2
:10245000054605E0FEF742F8401B642800F27F8144
:10246000594B1B6813F0020FF4D05748036823F050
:10247000F8012269F82393FAA3F3B3FA83F3DBB2EA
:102480009A4041EA0203036011E00022504B1A60B7
:10249000FEF724F8054605E0FEF720F8401B642807
:1024A00000F25F81484B1B6813F0020FF4D12368E0
:1024B00013F0080F2ED06369012B04D941484FF463
:1024C000C17101F0ADFD636993B10122414B1A6006
:1024D000FEF704F8054605E0FEF700F8401B642807
:1024E00000F24181384B5B6F13F0020FF4D011E022
:1024F0000022384B1A60FDF7F1FF054605E0FDF7B5
:10250000EDFF401B642800F230812F4B5B6F13F00E
:10251000020FF4D1236813F0040F6ED0A368012BCF
:1025200006D9052B04D027484FF4D67101F078FD69
:10253000254A136C43F080531364A2F5E432136808
:1025400043F480731360FDF7C9FF054605E0FDF70E
:10255000C5FF401B642800F20A811F4B1B6813F45F
:10256000807FF4D000221D4B1A70FDF7B7FF05469F
:1025700007E0FDF7B3FF401B41F28833984200F2B9
:10258000F880114B1B6F13F0020FF2D1227A134B1C
:102590001A70A368012B11D1FDF7A0FF054607E0D3
:1025A000FDF79CFF401B41F28833984200F2E38024
:1025B000054B1B6F13F0020FF2D01EE0FDF78EFFEC
:1025C000054615E0045D000800380240023802406C
:1025D00000004742800E47420070004070380240C1
:1025E000FDF77CFF401B41F28833984200F2C58022
:1025F000684B1B6F13F0020FF2D1A369022B04D9B1
:1026000065484FF4F87101F00BFDA369002B00F051
:10261000B680604A926802F00C02082A00F0B1808D
:10262000022B7FD1E3693BB1B3F5800F04D05A4848
:1026300040F2F91101F0F4FC236A3F2B04D956480B
:102640004FF4FD7101F0ECFC636AC03BF02B04D940
:10265000514840F2FB1101F0E3FCA36A022B0AD0BF
:10266000042B08D0062B06D0082B04D04A484FF480
:10267000FE7101F0D5FCE36A043B0B2B04D94648FC
:1026800040F2FD1101F0CCFC0022444B1A60FDF732
:1026900025FF054604E0FDF721FF401B642872D8A2
:1026A0003C4B1B6813F0007FF5D1216A626A47F644
:1026B000C07393FAA3F3B3FA83F3DBB29A401143E6
:1026C000A36A5B08013B4FF4403292FAA2F2B2FADD
:1026D00082F2D2B293400B43E26943EA0201E36A19
:1026E0004FF0706292FAA2F2B2FA82F2D2B203FA18
:1026F00002F241EA020343F00053264A53600122EA
:10270000264B1A60FDF7EAFE044604E0FDF7E6FEFC
:10271000001B642839D81F4B1B6813F0007FF5D0CD
:10272000002038BD00221D4B1A60FDF7D7FE04467D
:1027300004E0FDF7D3FE001B642828D8154B1B6866
:1027400013F0007FF5D1002038BD012038BD0320F3
:1027500038BD032038BD032038BD012038BD03201B
:1027600038BD032038BD032038BD032038BD032009
:1027700038BD032038BD032038BD032038BD0020FC
:1027800038BD012038BD032038BD032038BD0320EB
:1027900038BD00BF00380240045D000860004742B9
:1027A00070B504460D460368013B0E2B04D98848DA
:1027B0004FF4187101F034FC0F2D04D9844840F215
:1027C000612101F02DFC834B1B6803F00F03AB422A
:1027D00080F08B80EAB27F4B1A701B6803F00F0306
:1027E000AB4240F05181236813F0020F1DD0A36863
:1027F000A3B1802B12D0902B10D0A02B0ED0B02BD9
:102800000CD0C02B0AD0D02B08D0E02B06D0F02B58
:1028100004D06F4840F2772101F002FC6E498B68CA
:1028200023F0F002A36813438B60236813F0010FB9
:1028300000F0E8806368022B04D9654840F27E21ED
:1028400001F0EEFB6268012A05D1634B1B6813F4AB
:10285000003F0ED11AE1022A05D15F4B1B6813F02D
:10286000007F06D114E15C4B1B6813F0020F00F0EF
:10287000118159498B6823F0030313438B60FDF7E3
:102880002DFE05466368012B0FD107E0FDF726FEFC
:10289000401B41F28833984200F2FE804E4B9B6809
:1028A00003F00C03042BF1D1ACE0022B17D107E0AD
:1028B000FDF714FE401B41F28833984200F2EE808F
:1028C000454B9B6803F00C03082BF1D19AE0FDF710
:1028D00005FE401B41F28833984200F2E1803E4BF6
:1028E0009B6813F00C0FF2D18CE0236813F0020FF9
:1028F0001DD0A368A3B1802B12D0902B10D0A02B99
:102900000ED0B02B0CD0C02B0AD0D02B08D0E02B8F
:1029100006D0F02B04D02E4840F2C62101F080FBF7
:102920002D498B6823F0F002A36813438B60236862
:1029300013F0010F5ED06368022B04D9244840F2E3
:10294000CD2101F06DFB6268012A05D1224B1B6885
:1029500013F4003F0ED1A5E0022A05D11E4B1B68DF
:1029600013F0007F06D19FE01B4B1B6813F0020F92
:1029700000F09C8018498B6823F0030313438B609D
:10298000FDF7ACFD06466368012B0FD107E0FDF7AC
:10299000A5FD801B41F28833984200F289800E4BDE
:1029A0009B6803F00C03042BF1D123E0022B1CD114
:1029B00006E0FDF793FD801B41F28833984279D8F9
:1029C000054B9B6803F00C03082BF2D112E000BF0B
:1029D000045D0008003C024000380240FDF77EFD27
:1029E000801B41F28833984266D8354B9B6813F0C0
:1029F0000C0FF3D1EAB2334B1A701B6803F00F03CC
:102A0000AB425BD1236813F0040F19D0E36883B1A4
:102A1000B3F5805F0DD0B3F5A05F0AD0B3F5C05F0A
:102A200007D0B3F5E05F04D0274840F21D3101F034
:102A3000F7FA23498B6823F4E052E36813438B6071
:102A4000236813F0080F1AD0236983B1B3F5805FB0
:102A50000DD0B3F5A05F0AD0B3F5C05F07D0B3F5D2
:102A6000E05F04D018484FF4497101F0D9FA144AD4
:102A7000936823F46043216943EAC10393600F2004
:102A8000FDF7F6FC002070BD012070BD012070BD77
:102A9000012070BD012070BD032070BD032070BDFA
:102AA000032070BD012070BD012070BD012070BDEC
:102AB000032070BD032070BD032070BD012070BDD8
:102AC00000380240003C0240045D0008274B9B6830
:102AD00003F00C03042B46D0082B01D02448704788
:102AE000224B586800F03F00596801F480014FF410
:102AF000800292FAA2F2B2FA82F2D2B231FA02F370
:102B000010D01C4BB3FBF0F3184A506847F6C07264
:102B1000104092FAA2F2B2FA82F2D2B2D04000FB96
:102B200003F30FE0124BB3FBF0F3104A506847F683
:102B3000C072104092FAA2F2B2FA82F2D2B2D0403F
:102B400000FB03F3094A506800F440304FF4403270
:102B500092FAA2F2B2FA82F2D2B2D0400130400030
:102B6000B3FBF0F070470348704700BF00380240E5
:102B70000024F40000127A0008B5FFF7A7FF094B04
:102B80009B6803F0F002F02393FAA3F3B3FA83F304
:102B9000DBB222FA03F3044AD35CD840034B18603B
:102BA00008BD00BF00380240F45C00080C000020A3
:102BB00038B504460368013B2E2B03D9BE486D216E
:102BC00001F02EFA236813F0030F00F0838063688E
:102BD000C03BF02B03D9B848782101F021FA00223C
:102BE000B64B1A60FDF77AFC054605E0FDF776FC6A
:102BF000401B642800F28281B14B1B6813F0006F08
:102C0000F4D1236813F0010F1ED0A368023B052BFB
:102C100003D9A9488E2101F003FA626847F6C07310
:102C200093FAA3F3B3FA83F3DBB202FA03F1A268D7
:102C30004FF0E04393FAA3F3B3FA83F3DBB29A4085
:102C40000A439F4BC3F88420236813F0020F2FD050
:102C5000E368023B0D2B03D997489B2101F0E0F973
:102C6000E369013B1F2B03D993489C2101F0D8F95C
:102C70009348D0F8843003F0E0434FF0E04292FAFA
:102C8000A2F2B2FA82F2D2B223FA02F16568E368E4
:102C90001A0642EA851343EA0173C0F88430D0F87B
:102CA0008C3023F01F02E369013B1343C0F88C30E2
:102CB0000122824B1A60FDF711FC054605E0FDF785
:102CC0000DFC401B642800F21B817D4B1B6813F038
:102CD000006FF4D0236813F00C0F00F09A80236982
:102CE000C03BF02B03D97448C12101F099F90022AF
:102CF000744B1A60FDF7F2FB054605E0FDF7EEFBAD
:102D0000401B642800F2FE806D4B1B6813F0005FCF
:102D1000F4D1236813F0040F30D06369023B0D2B0C
:102D200003D96548D62101F07BF9236A013B1F2BAB
:102D300003D96148D72101F073F96149D1F888308E
:102D400003F0E0434FF0E04292FAA2F2B2FA82F2CC
:102D5000D2B223FA02F2206963691B0643EA8013A8
:102D600043EA0273C1F88830D1F88C3023F4F85369
:102D7000226A013A43EA0223C1F88C30236813F037
:102D8000080F34D0A369023B052B03D94A48E6213A
:102D900001F046F9636A63B1B3F5803F09D0B3F53A
:102DA000003F06D0B3F5403F03D04348E72101F090
:102DB00037F94349D1F8883003F070634FF07062FF
:102DC00092FAA2F2B2FA82F2D2B2D34022691B0680
:102DD00043EA8213A26943EA0273C1F88830D1F84A
:102DE0008C3023F44032636A1343C1F88C300122E3
:102DF000344B1A60FDF772FB054605E0FDF76EFBEC
:102E0000401B642800F280802D4B1B6813F0005F8C
:102E1000F4D0236813F0200F66D0294A136C43F0D6
:102E200080531364A2F5E432136843F48073136093
:102E3000FDF754FB054604E0FDF750FB401B6428FA
:102E400064D8214B1B6813F4807FF5D01C4B1A6F9C
:102E5000A36A534013F4407F09D0194A136F23F437
:102E600040731A4901200860002008601367A36AB4
:102E7000B3F5807F0FD1FDF731FB054606E0FDF786
:102E80002DFB401B41F28833984241D80C4B1B6FFD
:102E900013F0020FF3D0A36A03F44072B2F5407F3F
:102EA00016D107498A6822F4F81223F0704323F4FC
:102EB000407313438B6010E0345D000868004742A4
:102EC000003802407000474200700040400E474208
:102ED000114A936823F4F81393600F4A116FA36AA1
:102EE000C3F30B030B431367236813F0100F11D0C8
:102EF00094F82C20094B1A60002038BD032038BDFF
:102F0000032038BD032038BD032038BD032038BD61
:102F1000032038BD002038BD00380240E011474290
:102F2000704700BFD8B138B504460D4690F82C3034
:102F300013F0FF0F01D1FFF7F3FF022384F82C30C9
:102F4000214651F8040B00F07FFE20682946626894
:102F500000F01EFF012384F82C30002038BD012032
:102F6000704700BF38B590F82C30DBB2022B14D07C
:102F70000D460446022380F82C30006800F09AFFCA
:102F80002B68022B04D1052384F82C30002038BD97
:102F9000012384F82C30002038BD022038BD00BF4A
:102FA00090F82C30DBB2022B0CD010B50446022373
:102FB00080F82C30006800F0DFFF012384F82C300B
:102FC000002010BD022070472DE9F04106460C4656
:102FD00090461D46FDF782FA0746B8F1000F2AD049
:102FE0005BE0B5F1FF3F26D025B1FDF777FAC01BB6
:102FF000A84220D93268536823F0E0035360326856
:10300000136823F040031360B36AB3F5005F09D17E
:103010003268136823F4005313603268136843F472
:1030200000531360012386F85130002386F8503096
:103030000320BDE8F08133689B682340A342D0D1D0
:103040000020BDE8F081B5F1FF3F26D025B1FDF7A6
:1030500045FAC01BA84220D93268536823F0E00328
:1030600053603268136823F040031360B36AB3F50A
:10307000005F09D13268136823F40053136032688B
:10308000136843F400531360012386F85130002382
:1030900086F850300320BDE8F08133689B682340F8
:1030A000A342D0D00020BDE8F08100BF704700BF30
:1030B000002800F0AD8010B50446436833B1B3F585
:1030C000827F03D05348B22100F0AAFFA3684BB11E
:1030D000B3F5806F06D0B3F5004F03D04D48B32150
:1030E00000F09EFFE368B3F5006F04D01BB14948C0
:1030F000B42100F095FF23692BB1022B03D0454882
:10310000B52100F08DFF6369012B03D94148B62139
:1031100000F086FFA369B3F5007F07D033B1B3F5A4
:10312000802F03D03B48B72100F07AFFE3698BB1D1
:10313000082B0FD0102B0DD0182B0BD0202B09D023
:10314000282B07D0302B05D0382B03D03148B8219D
:1031500000F066FF236A2BB1802B03D02D48B921E4
:1031600000F05EFF636A2BB1102B03D02948BA210F
:1031700000F056FFA36A33B1B3F5005F03D02548D2
:10318000BB2100F04DFFE36A013B4FF6FE72934214
:1031900003D92048BC2100F043FF94F8513013F0CC
:1031A000FF0F02D12046FFF781FF022384F8513040
:1031B0002268136823F04003136021686268A368E3
:1031C0001A43E3681A4323691A4363691A43A369DC
:1031D00003F400731343E2691343226A1343A26AA0
:1031E0001A430A602168638B03F00402636A134385
:1031F0004B602368E26A1A612268D36923F4006392
:10320000D361002084F85200012384F8513010BDAE
:1032100001207047685D0008704700BF80B110B59D
:1032200004460268136823F040031360FFF7F4FFBD
:10323000002084F8520084F8510084F8500010BD3A
:1032400001207047F8B504461D4690F85130DBB2B6
:10325000012B40F0D0800F461646002900F0CD80AB
:10326000002A00F0CC8083683BB1B3F5004F04D056
:10327000674840F26D1100F0D3FE94F85030012BF6
:1032800000F0BF80012384F85030122384F85130BD
:10329000002384F852302763A686E686E364A3649D
:1032A000A387E387A36AB3F5005F09D12268136897
:1032B00023F4005313602268136843F4005313602F
:1032C000A368B3F5004F04D12268136843F4804328
:1032D000136023681A6812F0400F03D11A6842F095
:1032E00040021A60E368002B2CD1636813B1E38EAF
:1032F000012B1AD12268236B591C21631B78D360E0
:10330000E38E013BE38610E02046022100222B469B
:10331000FFF75AFE002876D12268236B591C2163DF
:103320001B78D360E38E013BE386E38E002BEBD169
:10333000A36AB3F5005F33D12268136843F4805366
:1033400013602DE0636813B1E38E012B1CD1236859
:10335000226B1288DA60236B02332363E38E013B16
:10336000E38611E02046022100222B46FFF72CFEC7
:1033700000284AD12368226B1288DA60236B02335B
:103380002363E38E013BE386E38E002BEAD1A36A3D
:10339000B3F5005F04D12268136843F480531360CF
:1033A0002046022100222B46FFF70EFE38B194F88A
:1033B000523043F0200384F85230032326E02046A5
:1033C000802101222B46FFF7FFFD034638B194F818
:1033D000523043F0200384F85230032316E0A268F1
:1033E00012B92268D1689268012284F85120002223
:1033F00084F850200AE0022308E0012306E00123BC
:1034000004E0022302E0032300E003231846F8BD92
:10341000685D0008F0B583B004460E4617461D46A9
:1034200090F85130DBB2012B02D0222B40F0888182
:10343000002E00F08781002F00F08681002D00F023
:103440008581A36823B19F4840F2C72100F0E8FDC1
:1034500094F85030012B00F07B81012384F8503028
:1034600094F85130DBB2012B02D1322384F8513071
:10347000002384F85230A763A587E5872663A586D5
:10348000E586A364E364A36AB3F5005F09D122680B
:10349000136823F4005313602268136843F4005345
:1034A000136023681A6812F0400F03D11A6842F0C3
:1034B00040021A60E368B3F5006F7DD163682BB1F9
:1034C000B3F5827F0CD1E38E012B09D12368226BE7
:1034D0001288DA60236B02332363E38E013BE386B9
:1034E000E38E002B4DD1A36AB3F5005F04D12268AF
:1034F000136843F480531360204601210022089B87
:10350000FFF762FD002840F02581A36B2268D26896
:103510001A80A36B0233A363E38F013BE387BEE012
:10352000204602210022089BFFF74EFD002840F0B4
:1035300013812368226B1288DA60236B02332363C2
:10354000E38E013B9BB2E38643B9A36AB3F5005F08
:1035500004D12268136843F480531360204601218C
:103560000022089BFFF730FD002840F0F780A36B96
:103570002268D2681A80A36B0233A363E38F013BF6
:10358000E387E38E002BCBD16368002B40F087806C
:10359000204601210022089BFFF716FD002840F07D
:1035A000DF80A36B2268D2681A80A36B0233A36307
:1035B000E38F013BE38772E063682BB1B3F5827F51
:1035C0000BD1E38E012B08D12268236B591C216398
:1035D0001B78D360E38E013BE386E38E002B48D15A
:1035E000A36AB3F5005F04D12268136843F48053E3
:1035F0001360204601210022089BFFF7E5FC00280C
:1036000040F0B080A36B2268D2681A70E38F013B50
:10361000E38744E0204602210022089BFFF7D4FC08
:10362000002840F0A1802268236B591C21631B787D
:10363000D360E38E013B9BB2E38643B9A36AB3F543
:10364000005F04D12268136843F48053136020465E
:1036500001210022089BFFF7B7FC002840F086807C
:10366000A36B5A1CA2632268D2681A70E38F013BD5
:10367000E387E38E002BCDD1636883B92046012117
:103680000022089BFFF7A0FC002871D1A36B5A1CF5
:10369000A2632268D2681A70E38F013BE387A36AB2
:1036A000B3F5005F15D1204601210022089BFFF7EA
:1036B0008BFC48B194F8523043F0020384F8523046
:1036C000032356E0685D00082368DB689BB2ADF811
:1036D0000630204680210122089BFFF775FC034637
:1036E00038B194F8523043F0200384F85230032369
:1036F0003FE0012284F8512021688A6802F010021C
:10370000A06AB0F5005F17D1B2B194F8523043F01F
:10371000020384F85230B0F5005F08D10B6823F43F
:1037200000530B602268136843F4005313600023B6
:1037300084F8503001231CE0002284F8502018E067
:10374000022316E0012314E0012312E0012310E01C
:1037500002230EE003230CE003230AE0032308E026
:10376000032306E0032304E0032302E0032300E035
:103770000323184603B0F0BDF0B585B004461E46DD
:1037800090F85130DBB2012B40F0F7800F46154620
:10379000002900F0F480002A00F0F38090F8503007
:1037A000012B00F0F080012380F85030222380F8B4
:1037B0005130002380F85230A163A287E2878364EE
:1037C000C3648386C3868368B3F5004F04D102685F
:1037D000136823F480431360A36AB3F5005F09D133
:1037E0002268136823F4005313602268136843F4BB
:1037F000005313606368B3F5827F0CD1A36853B99B
:1038000084F850300096204639463A462B46FFF75A
:1038100001FE0546BEE023681A6812F0400F03D18E
:103820001A6842F040021A60E36893B131E0204622
:10383000012100223346FFF7C7FB002840F0A58096
:10384000A36B5A1CA2632268D2681A70E38F013BF3
:10385000E387E38F012BEAD8A36AB3F5005F24D195
:103860002268136843F4805313601EE02046012150
:1038700000223346FFF7A8FB002840F08880A36BA6
:103880002268D2681A80A36B0233A363E38F013BE3
:10389000E387E38F012BE9D8A36AB3F5005F04D176
:1038A0002268136843F480531360204601210022EC
:1038B0003346FFF789FB054600286AD1E36833B930
:1038C000A36B5A1CA2632268D2681A7006E0A36B2D
:1038D0002268D2681A80A36B0233A363E38F013B93
:1038E000E387A36AB3F5005F13D1204601210022CC
:1038F0003346FFF769FB38B194F8523043F00203C6
:1039000084F85230032545E02368DB689BB2ADF8AC
:103910000E306368B3F5827F0BD1A368B3F5004F17
:1039200002D0B3F5806F04D12268136823F04003FE
:103930001360012384F851302268936803F0100368
:10394000A16AB1F5005F14D19BB194F8523043F0F5
:10395000020384F85230136823F400531360226882
:10396000136843F400531360002384F8503001259A
:1039700010E0002384F850300CE002250AE0012515
:1039800008E0012506E0022504E0032502E0032506
:1039900000E00325284605B0F0BD00BF90F85100B7
:1039A000704700BF704700BF10B504460368234A44
:1039B000934237D0B3F1804F34D0A2F57C4293428A
:1039C00030D002F5806293422CD002F5806293429F
:1039D00028D002F58062934224D002F5806293429F
:1039E00020D002F5704293421CD002F570529342EF
:1039F00018D002F58062934214D002F5806293429F
:103A000010D0A2F5983293420CD002F58062934216
:103A100008D002F58062934204D0094840F2611157
:103A200000F0FEFA2268D36843F00103D3602268F5
:103A3000136843F001031360002010BD0000014033
:103A4000985D00080368454A904214D0B0F1804F59
:103A500013D0A2F57C42904211D002F580629042D0
:103A60000FD002F5806290420DD002F5784290426C
:103A70000BD101220AE0012208E0012206E0012226
:103A800004E0012202E0012200E000221AB123F04A
:103A900070034A681343314A90422CD0B0F1804FF2
:103AA0002BD0A2F57C42904229D002F58062904250
:103AB00027D002F58062904225D002F578429042EC
:103AC00023D002F57052904221D002F580629042DC
:103AD0001FD002F5806290421DD0A2F5983290422C
:103AE0001BD002F58062904219D002F580629042AC
:103AF00017D1012216E0012214E0012212E0012276
:103B000010E001220EE001220CE001220AE0012275
:103B100008E0012206E0012204E0012202E0012285
:103B200000E000221AB123F44073CA681343036013
:103B30008B68C3620B688362084B984205D003F51B
:103B40008063984203D1012302E0012300E00023B7
:103B50000BB10B690363012343617047000001400F
:103B600000286BD010B504460368354A934236D01E
:103B7000B3F1804F33D0A2F57C4293422FD002F5AF
:103B8000806293422BD002F58062934227D002F5E7
:103B90008062934223D002F5806293421FD002F5E7
:103BA000704293421BD002F57052934217D002F537
:103BB0008062934213D002F5806293420FD0A2F547
:103BC000983293420BD002F58062934207D002F5FF
:103BD0008062934203D01B48D12100F021FAA368F0
:103BE0005BB1102B09D0202B07D0402B05D0602BC8
:103BF00003D01448D22100F013FA23694BB1B3F576
:103C0000807F06D0B3F5007F03D00E48D32100F0AB
:103C100007FA94F8393013F0FF0F02D12046FFF76E
:103C2000C1FE022384F83930214651F8040BFFF716
:103C300009FF012384F83930002010BD01207047AE
:103C400000000140985D000838B505460C464E4B13
:103C5000984204D04D4840F2BD3100F0E1F92368AC
:103C6000012B04D9494840F2BE3100F0D9F963680C
:103C7000032B04D9454840F2BF3100F0D1F9A368C5
:103C800043B1042B06D0082B04D040484FF4707188
:103C900000F0C6F9E36843B1102B06D0202B04D006
:103CA0003A4840F2C13100F0BBF9236933B1402BEF
:103CB00004D0364840F2C23100F0B2F96369802B7B
:103CC0000AD0B3F5807F07D0B3F5C07F04D02F486A
:103CD00040F2C33100F0A4F9A3693BB1B3F5007F12
:103CE00004D02A484FF4717100F09AF9E36953B196
:103CF000B3F5006F07D0B3F5406F04D0234840F20E
:103D0000C53100F08DF9236A3BB1B3F5805F04D073
:103D10001E4840F2C63100F083F9636A53B1B3F52F
:103D2000005F07D0B3F5804F04D0184840F2C73188
:103D300000F076F92368012B12D06268A3681A4359
:103D4000E3681A4323691A4363691A43A3691A4350
:103D5000E3691A43236A1A43636A13432B6011E031
:103D6000E269236A1A43636A1A436168A3681943C4
:103D7000E36819432369194363691943A3690B4332
:103D80002A606B60002038BD400100A0C85D0008BB
:103D900070B505460C461646444B984204D044483C
:103DA00040F2FB3100F03CF92368013B0F2B04D9B2
:103DB0003F484FF47F7100F033F96368013B0F2BEC
:103DC00004D93B4840F2FD3100F02AF9A368013BD9
:103DD0000F2B04D9364840F2FE3100F021F9E36898
:103DE000013B0F2B04D9324840F2FF3100F018F9A3
:103DF0002369013B0F2B04D92D484FF4806100F05B
:103E00000FF96369013B0F2B04D9294840F20141A6
:103E100000F006F9A369013B0F2B04D9244840F2B6
:103E2000024100F0FDF8012E04D9214840F203417F
:103E300000F0F6F8012E1BD02368013B6668013EB6
:103E400043EA0616A068013846EA0023E168013912
:103E500043EA01302269013A40EA02416369013BC9
:103E600041EA0352A369013B42EA0363AB601AE0F3
:103E70002368013B6168013943EA0113A268013AF2
:103E800043EA02212369013B41EA0342A369013B62
:103E900042EA0363E268511E6269013A120542EA8E
:103EA0000132EB60AA60002070BD00BF400100A09D
:103EB000C85D000870B582B005460C461646002362
:103EC00001932B4B984204D02A484FF4906100F0A4
:103ED000A7F82368062B04D9264840F2814100F058
:103EE0009FF86368102B08D0082B06D0182B04D03D
:103EF000204840F2824100F093F8A368013B0F2B69
:103F000004D91C4840F2834100F08AF8E368B3F515
:103F1000005F04D3174840F2844100F081F8226822
:103F200063681343A268013A43EA4213E26843EA32
:103F300042230193019B2B61FCF7D0FA0446AB6945
:103F400013F0200F0AD0B6F1FF3F09D056B1FCF7AD
:103F5000C5FA001BB04207D8012006E0002004E0AB
:103F6000012002E0032000E0032002B070BD00BF8A
:103F7000400100A0C85D000838B504460D460B4B53
:103F8000984204D00A4840F2AD4100F049F8B5F536
:103F9000005F04D3064840F2AE4100F041F8616989
:103FA00041EA45016161002038BD00BF400100A029
:103FB000C85D0008FEE700BF08B5034800F056F8EA
:103FC0000120FFF7F7FF00BFF85D000808B50D4BB3
:103FD0001B6813B90C4A0B4B1A600A4B1A68C31CB6
:103FE00023F00303134409498B4206D901F0CEF9AB
:103FF0000C2303604FF0FF3008BD02490B601046F0
:1040000008BD00BFD40000202404002000FC0220D2
:1040100001230360014B0B60704700BF04000020C8
:1040200008B503460A460348194600F005F8FFF7AD
:10403000C3FF00BF4C5E00080FB400B583B004ABF3
:1040400053F8042B01930848802101F0D7F9011E91
:1040500003DD054800F03EF80146084603B05DF870
:1040600004EB04B0704700BFDC00002010B504462C
:1040700001F092F90146204600F02CF80248012197
:1040800000F028F810BD00BF785E000810B40022D0
:104090001AE04FF06043D3F8803E13F0010F06D0D2
:1040A0004FF06043D3F8003E13F0010F01D11046EA
:1040B0000DE04FF060431B68002BFAD004784FF0FE
:1040C00060431C70013201308A42E2D308465DF839
:1040D000044B704708B5FFF7D9FF08BD08B500F0DD
:1040E00001F808BD0C4B1A6842F001021A60002169
:1040F00099601A6822F0847222F480321A60074AAA
:104100005A601A6822F480221A60D9604FF0006267
:10411000034B9A60704700BF003802401030002403
:1041200000ED00E0F02070474FF4A070704700BF32
:1041300008B500F0A5FC08BD08B52920FFF7F8FF79
:1041400008BD00BF08B52820FFF7F2FF08BD00BF7B
:1041500008B500F079FC08BDA84B1B78002B40F097
:104160004B8110B50124A54B1C7000F023FCCA2024
:10417000FFF7DEFFC320FFF7EBFF0820FFF7E8FFA4
:104180005020FFF7E5FFCF20FFF7D2FF0020FFF719
:10419000DFFFC120FFF7DCFF3020FFF7D9FFED2064
:1041A000FFF7C6FF6420FFF7D3FF0320FFF7D0FF20
:1041B0001220FFF7CDFF8120FFF7CAFFE820FFF7AD
:1041C000B7FF8520FFF7C4FF0020FFF7C1FF78206D
:1041D000FFF7BEFFCB20FFF7ABFF3920FFF7B8FF9B
:1041E0002C20FFF7B5FF0020FFF7B2FF3420FFF7C8
:1041F000AFFF0220FFF7ACFFF720FFF799FF202069
:10420000FFF7A6FFEA20FFF793FF0020FFF7A0FFCC
:104210000020FFF79DFFB120FFF78AFF0020FFF786
:1042200097FF1B20FFF794FFB620FFF781FF0A20BE
:10423000FFF78EFFA220FFF78BFFC020FFF778FF6C
:104240001020FFF785FFC120FFF772FF1020FFF756
:104250007FFFC520FFF76CFF4520FFF779FF152092
:10426000FFF776FFC720FFF763FF9020FFF770FF8F
:104270003620FFF75DFFC820FFF76AFFF220FFF747
:1042800057FF0020FFF764FFB020FFF751FFC22067
:10429000FFF75EFFB620FFF74BFF0A20FFF758FF3E
:1042A000A720FFF755FF2720FFF752FF0420FFF755
:1042B0004FFF2A20FFF73CFF0020FFF749FF0020B7
:1042C000FFF746FF0020FFF743FFEF20FFF740FF17
:1042D0002B20FFF72DFF0020FFF73AFF0020FFF70C
:1042E00037FF2046FFF734FF3F20FFF731FFF6206E
:1042F000FFF71EFF2046FFF72BFF0020FFF728FFE8
:104300000620FFF725FF2C20FFF712FFC82000F042
:10431000FBFB2620FFF70CFF2046FFF719FFE020EC
:10432000FFF706FF0F20FFF713FF2920FFF710FF0D
:104330002420FFF70DFF0C20FFF70AFF0E20FFF7E8
:1043400007FF0920FFF704FF4E20FFF701FF782049
:10435000FFF7FEFE3C20FFF7FBFE0920FFF7F8FE0B
:104360001320FFF7F5FE0520FFF7F2FE1720FFF7F9
:10437000EFFE1120FFF7ECFE0020FFF7E9FEE12041
:10438000FFF7D6FE0020FFF7E3FE1620FFF7E0FE62
:104390001B20FFF7DDFE0420FFF7DAFE1120FFF7F8
:1043A000D7FE0720FFF7D4FE3120FFF7D1FE3320E0
:1043B000FFF7CEFE4220FFF7CBFE0520FFF7C8FE39
:1043C0000C20FFF7C5FE0A20FFF7C2FE2820FFF7EA
:1043D000BFFE2F20FFF7BCFE0F20FFF7B9FE112014
:1043E000FFF7A6FEC82000F08FFB2920FFF7A0FEF4
:1043F0002C20FFF79DFE10BD704700BF5C01002020
:1044000008B500F059FB08BD08B5054B1B780BB982
:10441000FFF7A2FED3200321FFF7F2FF80B208BD11
:104420005C01002008B5012000F0A4FAFEE700BFFF
:1044300030B59FB01D4A136C43F080531364A2F54E
:10444000E432136843F44043136001230D930E9349
:10445000022413944FF480031493082515954FF408
:10446000B47316931794072318930DA8FDF73EFF16
:10447000FDF704FF0F2319931A9400231B934FF4A5
:10448000A0531C934FF480531D9319A80521FEF7E8
:1044900087F90195C0230593042307934FF4003354
:1044A0000A9301A8FEF784FB1FB030BD003802401C
:1044B00000B59BB0264B1A6B42F001021A631A6BCF
:1044C00042F002021A631A6B42F004021A631A6B7A
:1044D00042F008021A631A6B42F010021A630023BA
:1044E0001793189319931293139314930D930E9398
:1044F0000F93089309930A9303930493059320233E
:1045000015930123169390221092119343F60812EB
:104510000B920C93B4220692079374220192029399
:104520000C4815A9FDF7A2FA0B4810A9FDF79EFA51
:104530000A480BA9FDF79AFA094806A9FDF796FA69
:10454000084801A9FDF792FA1BB05DF804FB00BF13
:10455000003802400000024000040240000802400F
:10456000000C02400010024038B5044600F0010281
:104570001A482021FDF7F4FB194D28461021C4F3F9
:104580004002FDF7EDFB28468021C4F38002FDF7D1
:10459000E7FB05F5806528460821C4F3C002FDF756
:1045A000DFFB28464FF48071C4F30012FDF7D8FBFF
:1045B00028464FF40061C4F34012FDF7D1FB2846B2
:1045C0004FF48051C4F38012FDF7CAFB28464FF424
:1045D0000051C4F3C012FDF7C3FB38BD0000024018
:1045E0000004024038B5044600F001020E4D284692
:1045F0000421FDF7B5FB28461021C4F34002FDF766
:10460000AFFB28462021C4F38002FDF7A9FB284612
:104610008021C4F3C002FDF7A3FB04480421C4F3C6
:104620000012FDF79DFB38BD000C02400010024057
:1046300008B5021C18BF012202484021FDF790FB7B
:1046400008BD00BF0010024010B5094C20460821EB
:104650000122FDF785FB0120FBF746FF20460821DC
:104660000022FDF77DFB0120FBF73EFF10BD00BFE0
:104670000010024010B501280BD10C4C204610212F
:104680000122FDF76DFB204620210022FDF768FB8B
:1046900010BD064C204620210122FDF761FB20467B
:1046A00010210022FDF75CFB10BD00BF001002408E
:1046B00010B50C46FFF796FF0020FFF7B9FF204624
:1046C000FFF752FFFFF7C0FF10BD00BF08B5144B46
:1046D0001B68144AA2FB03239B0B013B9BB2124AAB
:1046E00013801248124A026042F20F72C2604360A5
:1046F000002303618360FFF733FA08B1FFF792FEEE
:104700000A48FFF751F908B1FFF78CFE074B1A680A
:10471000D36843F00103D360002000F02BF908BDFB
:104720000C0000205917B7D15E010020E0030020E3
:104730000004004008B5FBF7AFFEFFF779FE00204C
:1047400000F0ECF8012000F0E9F8FFF7BFFFFFF7F9
:10475000AFFE00F01DFB00204FF0504100F086FA44
:104760000020012100F0CCFA002000F0C3FA6FF421
:104770007F0000F067FB274C204600F0E1FA142090
:104780000146C8224FF48C7300F07AFB204600F0FB
:10479000E3FA6FF47F0000F0D3FA00F0ABFB1E48A1
:1047A00000F0E8FA02201D49012200F0AFFC0520CC
:1047B0001B49012200F0AAFC08201A49012200F03E
:1047C000A5FC0020FFF756FF012000F0E3F81820B9
:1047D0000F21FFF76DFF05201921FFF769FF062064
:1047E0004421FFF765FF01201D21FFF761FF002035
:1047F0004521FFF75DFF04201121FFF759FF32200B
:10480000FBF772FE04200021FFF752FF3220FBF776
:104810006BFED9E7FF0000FF48000020408500083C
:10482000508500086085000800B587B00C4B5A6CB5
:1048300042F480125A641A6B42F020021A634FF459
:1048400060730193022302930393012304930523CE
:104850000593044801A9FDF709F907B05DF804FBC9
:10486000003802400014024010B51048FFF796F8D7
:10487000D0B90E4C0E4B23601823E3610023A360D4
:1048800063612361A3620722E262E36023624FF463
:104890000072A26163624FF4827363602046FFF787
:1048A000C3FF2046FEF704FC10BD00BF60010020DE
:1048B0000050014008B50348FEF7B0FCFFF7D4FFF5
:1048C00008BD00BF6001002000B583B002A921F837
:1048D000020D06480122064B1B68FEF7B3FC08B127
:1048E000FFF7E8FF03B05DF804FB00BF60010020A4
:1048F0006000002000B583B00246064801A9064BBF
:104900001B68FEF739FF08B1FFF7D4FF019803B029
:104910005DF804FB600100206000002070B586B0E7
:10492000044628B9104A136B43F04003136304E0B4
:104930000D4A136B43F0400313630C4B33F81450D0
:10494000019501230293039302230493084E56F822
:10495000240001A9FDF78AF856F824002946002210
:10496000FDF7FEF906B070BD003802407085000802
:104970005800002008B50346044A52F82000044AB3
:1049800032F813100122FDF7EBF908BD58000020A2
:104990007085000808B50346044A52F82000044A0E
:1049A00032F81310FDF7F4F908BD00BF58000020DD
:1049B000708500082DE9F04186B0204C236B43F050
:1049C000080323634FF40053019301250295002649
:1049D000039602270497DFF86C80404601A9FDF793
:1049E00045F8236B43F0080323634FF4805301938E
:1049F000029503960497404601A9FDF737F8236B0B
:104A000043F004032363042401940295039604975E
:104A10000B4F38460DEB0401FDF728F838462146C8
:104A20003246FDF79DF9384621462A46FDF798F9AA
:104A3000FFF71AFF06B0BDE8F08100BF0038024062
:104A400000080240000C024038B505460A484FF401
:104A500000510122FDF784F9084C20460421002270
:104A6000FDF77EF92846FFF72FFF2046042101229B
:104A7000FDF776F938BD00BF000C02400008024087
:104A800038B505460A484FF400510022FDF768F991
:104A9000084C204604210022FDF762F92846FFF762
:104AA00013FF204604210122FDF75AF938BD00BF4B
:104AB000000C024000080240F8B507460E46104CB4
:104AC000204604210022FDF74BF90E4D28464FF4F5
:104AD00000510022FDF744F93846FFF7F5FE304655
:104AE000FFF708FF064628464FF400510122FDF764
:104AF00037F9204604210122FDF732F93046F8BD8E
:104B000000080240000C024008B5FBF7EDFC08BDB0
:104B100030B587B0314B5A6C42F080625A641A6BE0
:104B200042F400021A631A6B42F001021A631A6B14
:104B300042F002021A631A6B42F004021A631A6B03
:104B400042F008021A631A6B42F020021A631A6BD1
:104B500042F040021A6341F6580301930223029384
:104B60000022039204930E2305931D4801A9FCF72C
:104B70007DFF4FF4706301931A4D284601A9FCF79D
:104B800075FF4FF498630193174801A9FCF76EFF76
:104B900048230193154801A9FCF768FF4FF480638F
:104BA0000193134801A9FCF761FF4FF40C630193D3
:104BB000104C204601A9FCF759FF03230193092358
:104BC0000593284601A9FCF751FF4FF4A053019328
:104BD000204601A9FCF74AFF07B030BD003802406B
:104BE000000002400004024000080240000C0240A5
:104BF0000014024000180240F0B583B004460E468F
:104C000015461F460F484FF440334360002383602E
:104C1000089BC3600C4B0360FCF768FD80B9094832
:104C20002146FCF767FE58B90097064809993246B5
:104C30002B46FCF7B3FD18B902480A21FCF7EAFD40
:104C400003B0F0BDD001002000B0024008B5024B17
:104C50001B689B6A984708BD1C04002008B5024BDE
:104C60001B68DB6A984708BD1C04002070B58EB035
:104C700004460E4600250195FFF7E8FF02900395D4
:104C8000FFF7ECFF049005950A96FF23069307951E
:104C90008DF834508DF835508DF836504FF4C06390
:104CA000089307230993FFF7D1FF0B90FFF7D6FF77
:104CB0000C900D4D284601A92246FDF72FFA0B4A0C
:104CC00061000B199B0013444FF0FF3058600848F7
:104CD00098600C44A4004FF07F4313512846FDF721
:104CE000B1FA0EB070BD00BF40020020B801002034
:104CF00050000020014B1860704700BFB401002035
:104D000001290AD10D4B1B6803EBC010D0F8843089
:104D100043F00103C0F8843009E0084B1B6803EB43
:104D2000C010D0F8843023F00103C0F88430034B66
:104D30001A68536A43F0010353627047400200202F
:104D4000034B1B6803EB43039B00024AD0507047A0
:104D5000B4010020B8010020044B1B6803EB43039F
:104D60009B00034A13445860704700BFB401002001
:104D7000B8010020044B1B6803EB43039B00034A6C
:104D800013449860704700BFB4010020B8010020B0
:104D900038B51F4C1F4B2360092363610123A361B6
:104DA0001D23E3610323236240F20D13636240F28B
:104DB0004313A36240F21713E36240F247132363E5
:104DC000002584F8365084F8345084F83550124861
:104DD00008230360C0230361042383614FF400337D
:104DE0004362FDF7E5FE6560A560E5602561FFF7BC
:104DF0008FFE2046FDF7A4F8084B094A13601B6894
:104E0000984700F079FA0748FFF7B4FF284638BD05
:104E10004002002000680140100200201000002025
:104E20001C04002050000020044B1B6803EB4303CC
:104E30009B00034A13449868704700BFB4010020E8
:104E4000B8010020F0B583B007460B4B1C68342333
:104E50000A4A03FB0423DE6DFFF7F8FE0546FFF761
:104E6000FDFE0346002200920197204631462A4665
:104E7000FFF7C2FE03B0F0BDB401002040020020E5
:104E80002DE9F04782B00446894615461F46164E66
:104E9000DFF85C80D8F8003003EB43039B00F05848
:104EA000FFF74EFFD8F800303421104A01FB0323EE
:104EB000D3F85CA0FFF7CAFE09FB00400AEB8004B0
:104EC000FFF7C4FED8F80030401B009003EB43020C
:104ED0009200B2580192184621462A463B46FFF7F7
:104EE0008BFE02B0BDE8F087B80100204002002030
:104EF000B401002008B5034B1B689B6803B19847B9
:104F000008BD00BF1C040020F8B507460C46164635
:104F1000064B1A683421064B01FB0233DD6DFFF7A7
:104F200095FE00FB047045F82060F8BDB401002038
:104F3000400200202DE9F04F83B081460E460092DA
:104F4000324B1B6803EB43039B00314A13449B68BD
:104F5000DA8801929D8805F1070B4FEAEB0BC5EB50
:104F6000CB085FFA88F84FF0000A48E00AFB0BF321
:104F7000009A1A44BBF1010F03D0BBF1020F03D01A
:104F800008E0009AD75C0DE00099CF5C537843EAC3
:104F9000072707E00099CF5C53781B0243EA0743D9
:104FA00097781F43002424E02B1B4344013B01223C
:104FB00002FA03F33B420DD009EB0400134B1B68CC
:104FC00003EB43039B0080B23146114AD258FFF7EE
:104FD0009BFF0DE009EB04000C4B1B6803EB430344
:104FE0009B000B4A134480B231465A68FFF78CFF8E
:104FF0000134A542D8D80136B6B20AF1010A019BA4
:105000005345B3D803B0BDE8F08F00BFB401002012
:10501000B801002038B50A4B1B6803EB43039B0023
:10502000084C23449C682568203AE38803FB02F27D
:10503000A3880733DB1003FB0252FFF77BFF38BD69
:10504000B4010020B80100202DE9F04106460F46CA
:10505000154698461346002401E0013413465A1CB5
:105060001B78002BF9D1FFF7F1FD264B1B6803EBF2
:1050700043039B00244A13449B689B88B0FBF3F0D6
:10508000B8F1010F03D0B8F1020F07D00AE0001BFE
:1050900000FB03F006EB5006B6B203E0041B13FB63
:1050A0000466B6B2002412E03046394615F8012BEA
:1050B000FFF7B0FF134B1B6803EB43039B00124A3F
:1050C00013449B689B881E44B6B20134A4B295F881
:1050D0000080FFF7BBFD0B4B1B6803EB43039B00FA
:1050E000094A13449B689A8802FB140080B218F1A5
:1050F000000318BF0123904238BF0023002BD3D1F7
:10510000BDE8F081B4010020B801002070B504466C
:105110000E461546FFF788FEC18811FB04F10020FA
:1051200089B232462B46FFF78FFF70BD30B587B08E
:105130003F4B9A6B42F001029A631A6B42F4800271
:105140001A631A6B42F002021A631A6B42F00402ED
:105150001A631A6B42F008021A631A6B42F01002CB
:105160001A631A6B42F020021A631A6B42F0400273
:105170001A63022302930493002503950C230593DD
:1051800006AC602344F8143D2A482146FCF76EFC27
:105190000123019328482146FCF768FC4CF2037375
:1051A000019326482146FCF761FC4FF68373019377
:1051B00023482146FCF75AFC4FF63F030193214850
:1051C0002146FCF753FC48F2331301931E48214655
:1051D000FCF74CFC1D4C65608023A3604FF400730A
:1051E000E3604FF4806323614FF4805363614FF4B5
:1051F0008043A361E5614FF40033236265620323BA
:10520000A362E5622563124B2360124B1C63A36308
:105210002046FBF705FB2046FBF7F6F93820294628
:105220002A46FBF78DF93820FBF7CCF907B030BDE3
:10523000003802400004024000080240000C024016
:10524000001002400014024000180240F802002042
:1052500010640240640300202DE9F04782B08246CA
:105260004FF00008CDF80480214C01262660082765
:105270006760A660C4F80C801E4D284621464FF694
:10528000FF72FDF76FFE3046FBF72EF90223236015
:105290006760A660C4F80C80284621464FF6FF726E
:1052A000FDF760FE0323236067604FF00409C4F834
:1052B0000890C4F80C80284621464FF6FF72FDF78F
:1052C00051FE40F231230193C4F800906760A6605C
:1052D000019BE360284621464FF6FF72FDF742FE30
:1052E00028465146FDF75CFE02B0BDE8F08700BFDE
:1052F000E80200206403002038B5164C164B2360EA
:10530000164D02232B60072169600422AA60E96020
:105310002B616B61AB61012363600023A360E260DA
:1053200010222261402262614FF4C072A261E361E7
:105330004FF40062226263624FF40053A362FFF7EE
:10534000F5FE20462946FDF7EDFD40F26A50FFF7D5
:1053500083FF38BD64030020400100A04803002003
:10536000704700BFFEE700BFFEE700BFFEE700BFDB
:10537000FEE700BF704700BF704700BF704700BF27
:1053800008B5FBF7A3F808BDFEE70000014B18685D
:10539000704700BFC4000020034613F8012B002A09
:1053A000FBD1181A0138704730B5141E9BB0054662
:1053B00004DA8B2303604FF0FF301CE04FF40272DD
:1053C000ADF80C2014BF04F1FF3222460292059280
:1053D0004FF6FF7200910491ADF80E2069461A460F
:1053E0001E9B00F075F8431CBCBF8B232B6014B1CF
:1053F000009B00221A701BB030BD000073B50093F3
:10540000054B06460D461446186831462A46234683
:10541000FFF7CAFF02B070BDC40000202DE9F047BD
:105420008E68B34282460C469046994640D38A899C
:1054300012F4906F3AD0256809696F1A65690223E2
:1054400005EB450595FBF3F57B1C4B449D4238BFAE
:105450001D4653050FD5294600F03CFB064698B182
:1054600021693A4600F0CBFAA38923F4906343F014
:105470008003A38113E02A4600F082FB064670B940
:105480005046216900F0E2FA0C23CAF80030A389E3
:1054900043F04003A3814FF0FF30BDE8F087266161
:1054A00065613E44ED1B2660A5604E46B14500D2C5
:1054B0004E4632462068414600F0ACFAA3689B1B7A
:1054C000A36023681E4426600020BDE8F08700002A
:1054D0002DE9F0439DB0064603938B891C060D46CB
:1054E00090460CD50B6953B9402100F0F3FA2860BF
:1054F000286110B90C233360CCE040236B6100239A
:10550000099320238DF8293030238DF82A30434623
:105510001C4613F8012B1AB9B4EB08090FD002E0AE
:10552000252AF5D1F8E73046294642464B46FFF793
:1055300075FF013000F0A980099B4B440993237843
:10554000002B00F0A28000234FF0FF32049307935A
:10555000059206938DF853301A9304F101084446DE
:10556000DFF8489121784846052200F039FA08F121
:105570000108049B30B1C9EB0000012282401343B3
:105580000493ECE7D80644BF20228DF85320190776
:1055900044BF2B228DF8532022782A2A02D0079963
:1055A00023460EE0039A111D12680391002ABBBF27
:1055B000524243F0020307920792B8BF04930134AA
:1055C0000AE01C4601332278303A092A03D80A201F
:1055D00000FB0121F5E7079123782E2B1AD1637880
:1055E0002A2B0AD1039B1A1D1B680392002BB8BFFC
:1055F0004FF0FF33023405930CE0611C00220C468F
:1056000001312378303B092B03D80A2000FB0232FA
:10561000F5E70592DFF8988021784046032200F0F4
:10562000DFF938B1049AC8EB0000402383401343EC
:105630000493013421781A488DF82810062204F1C9
:10564000010800F0CDF988B1164B33B9039B07333D
:1056500023F007030833039313E003AB00933046B2
:1056600004A92A46104BAFF3008007E003AB009378
:10567000304604A92A460C4B00F092F8421C07461B
:1056800003D0099B3B44099341E7AB895B0601D4F6
:10569000099801E04FF0FF301DB0BDE8F08300BF76
:1056A00080850008000000001D5400087685000871
:1056B0007C8500082DE9F84391461F468A680B69EE
:1056C000DDF820809342B8BF1346C9F8003091F846
:1056D000432006460C4612B10133C9F80030236856
:1056E000990642BFD9F800300233C9F80030256866
:1056F00015F006051CD094F843302268003318BF1B
:10570000012392061FD5E1185A1C302081F843006E
:10571000224494F8451082F84310023313E03046D7
:10572000394604F119020123C047013007D0013581
:10573000E368D9F800209B1A9D42F0DBDBE74FF0CD
:10574000FF30BDE8F8833046394604F14302C047D4
:105750000130F4D02268D9F80050E36802F0060264
:10576000042A08BF5D1B2269A3680CBF25EAE57502
:1057700000259342C4BF9B1AED184FF00009A945BC
:105780000ADA3046394604F11A020123C0470130D3
:10579000D5D009F10109F2E70020BDE8F883000047
:1057A0002DE9FF410C461746227E6E2A9846064692
:1057B0000A9B01F1430100F0AF8012D8632A23D085
:1057C0000AD8002A00F0BC80582A40F0CB8084F828
:1057D0004520DFF804E257E0642A1ED0692A1CD075
:1057E000C0E0732A00F0B08009D86F2A2ED0702A4A
:1057F00040F0B880226842F0200222603FE0752A23
:1058000024D0782A3BD0ADE01A68111D19601368C6
:1058100084F8423004F14205A8E020681A6810F0CC
:10582000800F02D0101D186008E010F0400F02F148
:105830000400186002D0B2F9003000E01368002BB9
:105840003EDA2D225B4284F8432039E020681A6852
:1058500010F0800F02D0101D186007E010F0400F0C
:1058600002F10400186001D0138800E01368227E62
:10587000DFF864E16F2A0CBF08220A221CE07822BC
:10588000DFF858E184F845202268186812F0800F8C
:1058900000F104051D6003D1550601D5038800E021
:1058A0000368D00744BF42F0200222601BB922687F
:1058B00022F0200222601022002084F8430002E03F
:1058C000DFF814E10A226568A560002DA2BF2068F8
:1058D00020F00400206003B965B10D46B3FBF2F07F
:1058E00002FB10331EF8033005F8013D0346002883
:1058F000F4D100E00D46082A0BD12368DA0708D559
:10590000236962689A42DEBF302305F8013C05F145
:10591000FF35491B21612EE025681A68606915F082
:10592000800F03D0151D1D60136808E015F0400FAF
:1059300002F104051D60136801D0188000E01860B2
:10594000002323610D4616E01A68111D19601568C1
:1059500062682846002100F043F808B1401B6060EF
:10596000636804E004F1420584F8422001232361C6
:10597000002384F84330CDF800803046214603AA46
:105980003B46FFF797FE013002D14FF0FF301FE09A
:10599000304639462A462369C0470130F5D023688E
:1059A0009B0705D4E068039B9842B8BF18460FE0F8
:1059B0000025E368039A9B1A9D42F3DA3046394684
:1059C00004F119020123C0470130DED00135F0E7B0
:1059D00004B0BDE8F08100BF878500089885000805
:1059E00010B5C9B202449042034606D01C788C42DE
:1059F00000F10100F7D1184610BD002010BD10B510
:105A0000431E0A44914204D011F8014B03F8014FA0
:105A1000F8E710BD814210B501EB020301D3421E2D
:105A20000BE09842FBD28118D21AD34204D013F86B
:105A3000014D01F8014DF8E710BD994204D011F86D
:105A4000014B02F8014FF8E710BD000030B5002906
:105A50003DD051F8042C0B1F1D49002AB8BF9B18DC
:105A60000A680C4612B95A600B6030BD93420DD2E1
:105A700019685818904201BF5A5852181A60426863
:105A80005A60236030BD994203D80A465168002904
:105A9000F9D1146815199D420AD11B682344D01806
:105AA0008842136013D10868034413604B680DE00B
:105AB00002D90C23036030BD1C681819884204BF4A
:105AC00008684968596004BF00191860536030BD08
:105AD0009C03002070B5CC1C24F0030408340C2C6B
