:020000040800F2
:1000000000000320410400084D7300084F730008EE
:100010005173000853730008557300080000000076
:1000200000000000000000000000000057730008FE
:1000300059730008000000005B7300085D7300083E
:10004000590400085904000859040008590400081C
:10005000590400085904000859040008590400080C
:1000600059040008590400085904000859040008FC
:1000700059040008590400085904000859040008EC
:1000800059040008590400085904000859040008DC
:10009000590400085904000859040008A158000830
:1000A00059040008590400085904000859040008BC
:1000B0005904000865730008590400085904000831
:1000C000590400085904000859040008590400089C
:1000D0005904000875730008590400085904000801
:1000E000590400085904000859040008590400087C
:1000F000590400085904000859040008590400086C
:10010000590400085904000859040008590400085B
:10011000590400085904000859040008590400084B
:10012000590400085904000859040008590400083B
:10013000590400085904000859040008590400082B
:10014000590400085904000859040008590400081B
:10015000590400085904000859040008590400080B
:1001600059040008590400085904000859040008FB
:100170005904000859040008590400080000000050
:1001800059040008590400085904000859040008DB
:1001900059040008590400085904000859040008CB
:1001A00059040008590400085904000800000320FD
:1001B000410400084D7300084F7300085173000894
:1001C0005373000855730008000000000000000091
:1001D0000000000000000000577300085973000879
:1001E000000000005B7300085D73000859040008FC
:1001F000590400085904000859040008590400086B
:10020000590400085904000859040008590400085A
:10021000590400085904000859040008590400084A
:10022000590400085904000859040008590400083A
:10023000590400085904000859040008590400082A
:100240005904000859040008A1580008590400087E
:10025000590400085904000859040008590400080A
:10026000657300085904000859040008590400087F
:1002700059040008590400085904000859040008EA
:10028000757300085904000859040008590400084F
:1002900059040008590400085904000859040008CA
:1002A000590400085904000859040008857300081F
:1002B00059040008590400085904000859040008AA
:1002C000590400085904000859040008590400089A
:1002D000590400085904000859040008590400088A
:1002E000590400085904000859040008590400087A
:1002F000590400085904000859040008590400086A
:100300005904000859040008590400085904000859
:100310005904000859040008590400085904000849
:10032000590400085904000885730008590400089E
:1003300059040008314B324A1360324A1360324B81
:1003400002E0002243F8042B304A9342F9D32C4BAD
:100350001B6813B92B4B1B6803B1FEE7274B2C4AD4
:1003600013602C4A13602C4B2C4A03E052F8041BF8
:1003700043F8041B2A498B42F8D3254B1A68294BB2
:100380009A4200D0FEE7234B1A681B689A42F9D1C3
:1003900000B583B004F0E3FB694601A804F062FBFA
:1003A000214C224BE41AA410002504E01F4B53F803
:1003B000253098470135AC42F8DC1D4C1D4BE41A42
:1003C000A410002504E01B4B53F825309847013555
:1003D000AC42F8DC0099019805F022F90546164C6C
:1003E000164BE41AA41004E0013C144B53F82430DB
:1003F0009847002CF8DC284604F006FBBABADECA9F
:10040000D0270020E4370020D0270020E837002044
:1004100000000020CC27002000000020B4280108A4
:10042000D0270020785634125C0400085C040008D1
:100430005C0400085C0400085C0400085C0400081C
:1004400008B5FFF777FFFEE7FEE7FEE7FEE7FEE70A
:0C045000FEE7FEE7FEE7FEE7FEE7000027
:1004800010B5044602F0E0FB064AA2FB00208009FA
:1004900000F0BEF8002221464FF0FF3000F088F84F
:1004A000002010BDD34D621008B50B4B1A6842F402
:1004B00000721A601A6842F480621A601A6842F484
:1004C00080721A60032000F055F80F20FFF7D8FF64
:1004D00006F008F9002008BD003C0240024A1368FB
:1004E00001331360704700BFD4270020014B186808
:1004F000704700BFD427002010B582B00190FFF7ED
:10050000F5FF0446FFF7F2FF001B019B9842F9D369
:1005100002B010BD002808DB0901C9B200F160403B
:1005200000F5614080F80013704700F00F000901EA
:10053000C9B2014B1954704714ED00E000F00700F8
:10054000C0F10703042B28BF042300F1040CBCF105
:10055000060F0DD903384FF0010C0CFA03F3013BE1
:100560000B4083400CFA00F00138104018437047EC
:100570000020F0E710B50446C31E042B0FD80A4A2A
:10058000D36823F4E0631B041B0C240204F4E0642E
:10059000234343F0BF6343F40033D36010BDA42171
:1005A000024804F081FAEAE700ED00E0D0EC000830
:1005B00070B506460C4615460F2A0ED80F2C11D8DA
:1005C0000B4BD8682A462146C0F30220FFF7B6FF3E
:1005D00001463046FFF79EFF70BDBC21054804F080
:1005E00063FAEBE7BD21034804F05EFAE8E700BFD9
:1005F00000ED00E0D0EC000800F01F020123934062
:100600004009024A42F82030704700BF00E100E094
:100610000138B0F1807F0BD24FF0E0235861054ADA
:10062000F02182F823100020986107221A61704798
:100630000120704700ED00E0002800F0108110B5A7
:1006400004460368874A934231D0183293422ED031
:10065000183293422BD01832934228D0183293424A
:1006600025D01832934222D0183293421FD018322C
:1006700093421CD002F55672934218D0183293421E
:1006800015D01832934212D0183293420FD018323C
:1006900093420CD01832934209D01832934206D0BC
:1006A0001832934203D0B5216F4804F0FDF9636816
:1006B000A3B1B3F1007F11D0B3F1806F0ED0B3F1CD
:1006C000C06F0BD0B3F1006F08D0B3F1206F05D02D
:1006D000B3F1406F02D0B3F1606F7CD1A3681BB15E
:1006E000402B01D0802B7BD1E368B3F5007F01D094
:1006F000002B7AD12369B3F5806F01D0002B79D11B
:1007000063692BB1B3F5006F02D0B3F5805F76D18A
:10071000A3692BB1B3F5005F02D0B3F5804F73D15D
:10072000E36923B1B3F5807F01D0202B71D1236A17
:1007300043B1B3F5803F05D0B3F5003F02D0B3F528
:10074000403F6BD1636A0BB1042B6CD1636AC3B1B8
:10075000A36A032B6CD8E36A43B1B3F5000F05D04D
:10076000B3F1807F02D0B3F1C07F66D1236B43B178
:10077000B3F5001F05D0B3F5800F02D0B3F5C00F5D
:1007800060D1022384F8353021680B68374A1A405B
:100790006368A0680343E06803432069034360691A
:1007A0000343A0690343E0690343206A03431343FF
:1007B000626A042A4BD00B602268536923F0070356
:1007C000616A0B43042947D053610020E064012390
:1007D00084F8353010BDB621234804F065F97DE773
:1007E000B721214804F060F97EE7B8211E4804F0E3
:1007F0005BF97FE7B9211C4804F056F980E7BA217C
:10080000194804F051F983E7BB21174804F04CF96B
:1008100086E7BC21144804F047F988E7BD21124857
:1008200004F042F98EE7BE210F4804F03DF98DE750
:10083000C3210D4804F038F98DE7C4210A4804F0BB
:1008400033F993E7C521084804F02EF999E7E26AE5
:10085000206B02431343AEE7A16A0B43B4E70120C8
:10086000704700BF1060024004ED00083F8014F0A4
:100870000346002800F04A8790F83520022A00F04D
:10088000478701680A6822F001020A6001680022B5
:100890000A6001684A6001688A600168CA6001688C
:1008A0000A610268212151610268A5498A4240F229
:1008B0009880A1F589618A4231D001F580618A4230
:1008C00074D0A1F568718A4272D001F580618A42C4
:1008D00070D0A1F589618A426ED001F580618A42AB
:1008E0006DD0A1F568718A426CD001F580618A42B1
:1008F0006BD0A1F589618A426AD001F580618A4294
:1009000069D0A1F568718A4268D001F580618A4298
:1009100002D04FF0807103E04FF4802100E089495C
:10092000894AD1601A6886498A4240F2CE81A1F58F
:1009300089618A4200F0678101F580618A4200F096
:10094000A981A1F568718A4200F0A68101F5806154
:100950008A4200F0A381A1F589618A4200F0A0815A
:1009600001F580618A4200F09E81A1F568718A429A
:1009700000F09C8101F580618A4200F09A81A1F526
:1009800089618A4200F0988101F580618A4200F015
:100990009681A1F568718A4200F0948101F5806129
:1009A0008A4200F02D814FF000612DE16549B7E7E3
:1009B0006449B5E76349B3E74FF48071B0E74FF49A
:1009C0008071ADE74FF48071AAE74FF48071A7E71B
:1009D0004FF48021A4E74FF48021A1E74FF4802158
:1009E0009EE75A498A4253D9A8398A4231D001F543
:1009F00080618A4231D0A1F568718A422FD001F519
:100A000080618A422DD0A1F589618A422BD001F5FF
:100A100080618A422AD0A1F568718A4229D001F505
:100A200080618A4228D0A1F589618A4227D001F5E8
:100A300080618A4226D0A1F568718A4225D001F5ED
:100A400080618A4202D04FF0807103E04FF4802130
:100A500000E03C493C4A916064E73A49FAE7394989
:100A6000F8E73849F6E74FF48071F3E74FF4807107
:100A7000F0E74FF48071EDE74FF48071EAE74FF44F
:100A80008021E7E74FF48021E4E74FF48021E1E79C
:100A90002F498A4260D948398A4231D001F58061B4
:100AA0008A4231D0A1F568718A422FD001F5806168
:100AB0008A422DD0A1F589618A422BD001F580614F
:100AC0008A422AD0A1F568718A4229D001F5806155
:100AD0008A4228D0A1F589618A4227D001F5806138
:100AE0008A4226D0A1F568718A4225D001F580613D
:100AF0008A4202D04FF0807103E04FF4802100E081
:100B00001049144AD1600DE70E49FAE70D49F8E79C
:100B10000C49F6E74FF48071F3E74FF48071F0E78A
:100B20004FF48071EDE74FF48071EAE74FF48021D4
:100B3000E7E74FF48021E4E74FF48021E1E700BFCD
:100B4000586402400400800000640240B860024023
:100B50005860024000600240B0498A4231D001F53D
:100B600080618A4231D0A1F568718A422FD001F5A7
:100B700080618A422DD0A1F589618A422BD001F58E
:100B800080618A422AD0A1F568718A4229D001F594
:100B900080618A4228D0A1F589618A4227D001F577
:100BA00080618A4226D0A1F568718A4225D001F57C
:100BB00080618A4202D04FF0807103E04FF48021BF
:100BC00000E09749974A9160ACE69549FAE7944965
:100BD000F8E79349F6E74FF48071F3E74FF480713B
:100BE000F0E74FF48071EDE74FF48071EAE74FF4DE
:100BF0008021E7E74FF48021E4E74FF48021E1E72B
:100C00004FF4001100E02021874AD1601A6887491B
:100C10008A4240F2D081A1F589618A4200F069815F
:100C200001F580618A4200F0AB81A1F568718A42CA
:100C300000F0A88101F580618A4200F0A581A1F54C
:100C400089618A4200F0A28101F580618A4200F048
:100C5000A081A1F568718A4200F09E8101F5806152
:100C60008A4200F09C81A1F589618A4200F09A8154
:100C700001F580618A4200F09881A1F568718A428D
:100C800000F0968101F580618A4200F02F814FF0DB
:100C900000712FE12021B7E72021B5E72021B3E73C
:100CA0004FF40061B0E74FF40061ADE74FF400612D
:100CB000AAE74FF40061A7E74FF40011A4E74FF44F
:100CC0000011A1E74FF400119EE759498A4253D918
:100CD000A8398A4231D001F580618A4231D0A1F52C
:100CE00068718A422FD001F580618A422DD0A1F52A
:100CF00089618A422BD001F580618A422AD0A1F510
:100D000068718A4229D001F580618A4228D0A1F514
:100D100089618A4227D001F580618A4226D0A1F5F7
:100D200068718A4225D001F580618A4202D04FF075
:100D3000006103E04FF4001100E020213A4A916085
:100D400064E72021FAE72021F8E72021F6E74FF4B5
:100D50000061F3E74FF40061F0E74FF40061EDE765
:100D60004FF40061EAE74FF40011E7E74FF4001198
:100D7000E4E74FF40011E1E72E498A4262D948398D
:100D80008A4231D001F580618A4231D0A1F5687183
:100D90008A422FD001F580618A422DD0A1F5896168
:100DA0008A422BD001F580618A422AD0A1F5687170
:100DB0008A4229D001F580618A4228D0A1F5896153
:100DC0008A4227D001F580618A4235D0A1F5687149
:100DD0008A4234D001F580618A4202D04FF000612E
:100DE00003E04FF4001100E020210E4AD1600DE72E
:100DF0002021FAE72021F8E72021F6E74FF40061EF
:100E0000F3E74FF40061F0E74FF40061EDE74FF4D2
:100E10000061EAE74FF40011E7E700BF106002400D
:100E200004008000006002400064024058640240F8
:100E3000B8600240586002404FF40011D5E74FF40B
:100E40000011D2E7B1498A4231D001F580618A426E
:100E500031D0A1F568718A422FD001F580618A42B4
:100E60002DD0A1F589618A422BD001F580618A429B
:100E70002AD0A1F568718A4229D001F580618A42A1
:100E800028D0A1F589618A4227D001F580618A4284
:100E900026D0A1F568718A4225D001F580618A4289
:100EA00002D04FF0006103E04FF4001100E0202178
:100EB000974A9160AAE62021FAE72021F8E720214D
:100EC000F6E74FF40061F3E74FF40061F0E74FF409
:100ED0000061EDE74FF40061EAE74FF40011E7E746
:100EE0004FF40011E4E74FF40011E1E74FF4002163
:100EF00000E00821874AD1601A6887498A4240F297
:100F0000C981A1F589618A4200F0668101F580619D
:100F10008A4200F0A881A1F568718A4200F0A5819B
:100F200001F580618A4200F0A281A1F589618A42BF
:100F300000F09F8101F580618A4200F09C81A1F55B
:100F400068718A4200F0998101F580618A4200F05F
:100F50009681A1F589618A4200F0938101F5806153
:100F60008A4200F09181A1F568718A4200F08F8178
:100F700001F580618A4200F02C814FF480012CE160
:100F80000821B7E70821B5E70821B3E74FF400715E
:100F9000B0E74FF40071ADE74FF40071AAE74FF4EA
:100FA0000071A7E74FF40021A4E74FF40021A1E767
:100FB0004FF400219EE759498A4253D9A8398A4201
:100FC00031D001F580618A4231D0A1F568718A4241
:100FD0002FD001F580618A422DD0A1F589618A4226
:100FE0002BD001F580618A422AD0A1F568718A422E
:100FF00029D001F580618A4228D0A1F589618A4211
:1010000027D001F580618A4226D0A1F568718A4215
:1010100025D001F580618A4202D04FF0007103E0D3
:101020004FF4002100E008213A4A916064E708216A
:10103000FAE70821F8E70821F6E74FF40071F3E733
:101040004FF40071F0E74FF40071EDE74FF40071D9
:10105000EAE74FF40021E7E74FF40021E4E74FF41B
:101060000021E1E72E498A425FD948398A4231D0CE
:1010700001F580618A4231D0A1F568718A422FD092
:1010800001F580618A422DD0A1F589618A422BD079
:1010900001F580618A422AD0A1F568718A4229D07F
:1010A00001F580618A4228D0A1F589618A4227D062
:1010B00001F580618A4226D0A1F568718A4231D05B
:1010C00001F580618A4202D04FF0007103E04FF4D5
:1010D000002100E008210E4AD1600DE70821FAE75F
:1010E0000821F8E70821F6E74FF40071F3E74FF421
:1010F0000071F0E74FF40071EDE74FF40071EAE79B
:101100004FF40021E7E74FF40021E4E710600240CC
:10111000006002400064024058640240B86002402F
:10112000586002404FF40021D5E7AC498A4231D0E3
:1011300001F580618A4231D0A1F568718A422FD0D1
:1011400001F580618A422DD0A1F589618A422BD0B8
:1011500001F580618A422AD0A1F568718A4229D0BE
:1011600001F580618A4228D0A1F589618A4227D0A1
:1011700001F580618A4226D0A1F568718A4225D0A6
:1011800001F580618A4202D04FF0007103E04FF414
:10119000002100E00821924A9160ADE60821FAE7BB
:1011A0000821F8E70821F6E74FF40071F3E74FF460
:1011B0000071F0E74FF40071EDE74FF40071EAE7DA
:1011C0004FF40021E7E74FF40021E4E74FF400215A
:1011D000E1E74FF4803100E08249834AD1601A6828
:1011E00082498A4240F28381A1F589618A4200F0F6
:1011F000598101F580618A4200F05E81A1F5687134
:101200008A4200F05B8101F580618A4200F05881DA
:10121000A1F589618A4200F0558101F580618A4219
:1012200000F05381A1F568718A4200F0518101F507
:1012300080618A4200F04F81A1F589618A4200F005
:101240004D8101F580618A4200F04B81A1F5687102
:101250008A4200F0498101F580618A4200F01F81D5
:101260004FF080611FE15F49B7E75E49B5E75D492F
:10127000B3E74021B1E74021AFE74021ADE740218E
:10128000ABE74FF48031A8E74FF48031A5E74FF486
:101290008031A2E756498A424FD9A8398A4231D0D3
:1012A00001F580618A4231D0A1F568718A422FD060
:1012B00001F580618A422DD0A1F589618A422BD047
:1012C00001F580618A4229D0A1F568718A4227D050
:1012D00001F580618A4225D0A1F589618A4223D037
:1012E00001F580618A4222D0A1F568718A4221D03D
:1012F00001F580618A4202D04FF4800103E04FF48F
:10130000803100E03749384A916068E73549FAE7AB
:101310003449F8E73349F6E74021F4E74021F2E7A2
:101320004021F0E74021EEE74FF48031EBE74FF446
:101330008031E8E74FF48031E5E72E498A425ED9F3
:1013400048398A4231D001F580618A4231D0A1F515
:1013500068718A422FD001F580618A422DD0A1F5B3
:1013600089618A422BD001F580618A4229D0A1F59A
:1013700068718A4227D001F580618A4225D0A1F5A3
:1013800089618A4223D001F580618A4222D0A1F589
:1013900068718A4230D001F580618A4202D04FF4F0
:1013A000800103E04FF4803100E00E490C4AD16027
:1013B00015E70C49FAE70B49F8E70A49F6E7402137
:1013C000F4E74021F2E74021F0E74021EEE74FF457
:1013D0008031EBE74FF48031E8E700BF1060024056
:1013E0000060024001008000006402405864024036
:1013F000B8600240586002404FF48031D6E793490C
:101400008A4231D001F580618A4231D0A1F56871FC
:101410008A422FD001F580618A422DD0A1F58961E1
:101420008A422BD001F580618A4229D0A1F56871EA
:101430008A4227D001F580618A4225D0A1F58961D1
:101440008A4223D001F580618A4222D0A1F56871D9
:101450008A4221D001F580618A4202D04FF4800196
:1014600003E04FF4803100E079497A4A9160B6E6B2
:101470007749FAE77649F8E77549F6E74021F4E756
:101480004021F2E74021F0E74021EEE74FF48031C0
:10149000EBE74FF48031E8E74FF48031E5E74FF4B4
:1014A000801100E010216C4AD1600020D86483F8DC
:1014B000350083F8340070471021F4E71021F2E77B
:1014C0001021F0E74FF48061EDE74FF48061EAE727
:1014D0004FF48061E7E74FF48061E4E74FF4801157
:1014E000E1E74FF48011DEE74FF48011DBE75B4961
:1014F0008A4253D9A8398A4231D001F580618A42A3
:1015000031D0A1F568718A422FD001F580618A42FD
:101510002DD0A1F589618A422BD001F580618A42E4
:101520002AD0A1F568718A4229D001F580618A42EA
:1015300028D0A1F589618A4227D001F580618A42CD
:1015400026D0A1F568718A4225D001F580618A42D2
:1015500002D04FF0806103E04FF4801100E01021D1
:101560003D4A9160A1E71021FAE71021F8E7102128
:10157000F6E74FF48061F3E74FF48061F0E74FF452
:101580008061EDE74FF48061EAE74FF48011E7E70F
:101590004FF48011E4E74FF48011E1E730498A42CB
:1015A00060D948398A4231D001F580618A4231D010
:1015B000A1F568718A422FD001F580618A422DD051
:1015C000A1F589618A422BD001F580618A422AD037
:1015D000A1F568718A4229D001F580618A4228D03C
:1015E000A1F589618A4227D001F580618A4226D01F
:1015F000A1F568718A4225D001F580618A4202D046
:101600004FF0806103E04FF4801100E01021114A97
:10161000D1604AE71021FAE71021F8E71021F6E738
:101620004FF48061F3E74FF48061F0E74FF480619D
:10163000EDE74FF48061EAE74FF48011E7E74FF4FC
:101640008011E4E74FF48011E1E700BF1060024031
:10165000010080000060024000640240B860024067
:10166000586002402B498A4231D001F580618A429C
:1016700031D0A1F568718A422FD001F580618A428C
:101680002DD0A1F589618A422BD001F580618A4273
:101690002AD0A1F568718A4229D001F580618A4279
:1016A00028D0A1F589618A4227D001F580618A425C
:1016B00026D0A1F568718A4225D001F580618A4261
:1016C00002D04FF0806103E04FF4801100E0102160
:1016D000114A9160E9E61021FAE71021F8E710219C
:1016E000F6E74FF48061F3E74FF48061F0E74FF4E1
:1016F0008061EDE74FF48061EAE74FF48011E7E79E
:101700004FF48011E4E74FF48011E1E701207047C6
:1017100001207047106002400060024030B5039C19
:1017200044EA0343046863640368DA634368B3F517
:10173000403F02D00368D96030BD01F07F4E01F414
:101740007F0301F47F4CCAB28568032D1ED8DFE801
:1017500005F00402071021F07F4103689963EBE76D
:10176000DB0C4FEA9C2CDB0243EA4C1343EAD20128
:10177000F3E74FEADE7EDB0C4FEADC2C9B0243EA08
:101780004C1343EACE3343EAD201E6E74FEA1E7E2A
:101790001B0D4FEA1C3C1B0243EA0C1343EA0E33B9
:1017A00043EA1211D9E7704700284FD010B504461C
:1017B0000268274B9A4203D0B421264803F074F9FB
:1017C000636843B1B3F5803F05D0B3F5003F02D065
:1017D000B3F5403F27D1A368042B29D8E368B3F5BC
:1017E000804F2AD294F8393063B3022384F8393019
:1017F00021680A6822F44032636813430B60216851
:101800004A6B22F00702A36813434B6321680A6CFA
:101810006FF30D02E36813430B640020E0630123C0
:1018200084F8393010BDB5210A4803F03DF9D2E7FC
:10183000B621084803F038F9D0E7B721054803F08E
:1018400033F9CFE72046FFF7AEFFCEE70120704720
:1018500000B0024034ED00082DE9F04182B01D4691
:10186000DDF8208090F83830012B30D004460E4649
:101870001746012380F83830022380F83930B8F554
:10188000803F18D2B5F5804F1BD22268136823F031
:1018900001031360CDF800802B463A4631462046BE
:1018A000FFF73CFF2268136843F001031360002038
:1018B00002B0BDE8F0814FF4B571064803F0F4F8CA
:1018C000E0E740F26B11034803F0EEF8DDE7022099
:1018D000EEE700BF34ED000870B504460D4603681E
:1018E0001B6813F0010F11D12368DB6913F0200F7F
:1018F0003CD1236802229A60236810229A60012357
:1019000084F83930002084F8380070BDFEF7EEFD11
:10191000064623685A6812F0020FE5D159685A68E2
:1019200002F0010211F0200F14D19AB9B5F1FF3F76
:10193000EFD025B1FEF7DAFD801BA842E9D90023DC
:1019400084F83830E36B43F02003E363032084F82A
:101950003900DAE720229A60236801209860042386
:1019600084F83930002384F83830CEE7FEF7BEFD26
:10197000064623685A6812F0100FBAD15A6812F05E
:10198000080F10D1B5F1FF3FF3D025B1FEF7AEFD42
:10199000801BA842EDD9E36B43F02003E3630320EF
:1019A00084F83900B1E708229A60042384F83930BA
:1019B0000120AAE790F83830012B00F0B88070B50C
:1019C00004460D46012380F83830022380F8393070
:1019D000994242D804EB05139B69B3F5804F42D27C
:1019E0006368B3F5403F0BD004EB0513DB690A2BAA
:1019F0003FD8636823B1AB1C1B01E358022B3ED8D0
:101A0000002D59D121684B6A4A4A1A4004EB05134C
:101A1000DB69A3F10900012837D9A81C060104EBF2
:101A20000010A65943EA0643406843EA00631A439C
:101A30004A62206882696FF30D0204EB05118B691D
:101A400013438361CA69093A012A2BD9012384F817
:101A50003930002084F8380070BD40F24A313648F1
:101A600003F022F8B6E740F24B31334803F01CF89C
:101A7000B6E740F24E31304803F016F8B9E740F2CD
:101A800051312D4803F010F8BAE7A81C060104EB09
:101A90000010A65943EA0643406800F07F40034324
:101AA0001A43C5E7023504EB05156A6822F07F4248
:101AB000134322689362C9E72168CB691D4A1A4023
:101AC00004EB0513DB69A3F10900012822D9A81C46
:101AD000060104EB0010A65943EA0643406843EAB6
:101AE00000631A43CA61206802696FF30D0204EBB8
:101AF00005118B6913430361CA69093A012AA5D804
:101B0000023504EB05156A6822F07F421343226810
:101B100013629BE7A81C060104EB0010A65943EAD8
:101B20000643406800F07F4003431A43DAE702208F
:101B3000704700BFF0FFFC0034ED00082DE9F047CE
:101B400007460E460B887BB17368904A934223D0B8
:101B500013D8A2F5801293421ED00AD8032B1BD9AA
:101B6000113B012B18D913E0C321894802F09CFFD7
:101B7000EAE7884A93420FD00AE0874A93420BD0A3
:101B800002F58032934207D0A2F58012934203D02F
:101B9000C4217F4802F088FFB368022B01D80024DB
:101BA00046E0C5217A4802F07FFFF8E7D621784861
:101BB00002F07AFF51E0E921754802F075FF78E004
:101BC000092300E000238B4003430232734941F8AC
:101BD0002230734B1A686FEA080322EA0801706822
:101BE00010F4803F01D048EA02016D4A116052684A
:101BF00003EA0201706810F4003F01D048EA0201D4
:101C0000674A5160926803EA0201706810F4801F0D
:101C100001D048EA0201624A9160D26813407168BB
:101C200011F4001F01D048EA02035D4AD360013479
:101C30000F2C00F2A8800125A540336803EA0508AF
:101C400035EA0303F3D17368022B01D0122B14D1B0
:101C5000336913B1013B0E2BA8D8E208083257F8BC
:101C6000220004F0070189000F238B4020EA0300C3
:101C700033698B40034347F822303A684FEA440AFD
:101C8000032303FA0AF36FEA030922EA03027368E3
:101C900003F0030303FA0AF313433B6073685A1E0D
:101CA000012A03D9112B01D0122B13D1F368032B76
:101CB00081D8BA6809EA0202F36803FA0AF3134307
:101CC000BB607A6822EA05027368C3F30013A3407D
:101CD00013437B60FB6809EA0309B36803FA0AF35C
:101CE00043EA0903FB60736813F0805F9FD02D4ABD
:101CF000536C43F480435364A208911C274B53F860
:101D0000210004F0030189000F238B4020EA030027
:101D1000254B9F423FF456AF03F580639F4222D08C
:101D200003F580639F4220D003F580639F421ED05D
:101D300003F580639F421CD003F580639F421AD055
:101D400003F580639F4218D003F580639F4216D04D
:101D500003F580639F4214D003F580639F423FF4F4
:101D60002FAF0A232FE701232DE702232BE70323BD
:101D700029E7042327E7052325E7062323E707238D
:101D800021E708231FE7BDE8F08700BF000021100E
:101D900064ED00080000121000003110003801400E
:101DA000003C0140003802400000024038B50446C3
:101DB0000D4621B123691D4207D0012038BD40F2F4
:101DC0008511034802F070FEF4E70020F6E700BF3B
:101DD00064ED000870B5054614460E4621B1012C8D
:101DE00008D86CB12E8370BD4FF4D371054802F052
:101DF0005BFEF4E740F2A711024802F055FEF0E75F
:101E00006E83F0E764ED000838B504460D4619B15D
:101E100063695D40656138BD40F2BD11014802F063
:101E200043FEF5E764ED000808B5054B5B69034226
:101E300000D108BD024B586103F018FDF9E700BF5F
:101E4000003C014070B54D680368DC68C4F30B4486
:101E500025444FEAC21C03EBC213D3F8884004F4B4
:101E60007044C3F888400B680468E668C6F30B4604
:101E70003344013304EBC21443EA0543C4F8883009
:101E8000CD680368DC68C4F30A04254403EBC2137D
:101E9000D3F88C4004F47044C3F88C408B68046819
:101EA000E668C6F30A063344013304EBC21443EA7E
:101EB0000543C4F88C30036803EBC213D3F8944095
:101EC00024F00704C3F89440036803EBC2130C69C1
:101ED000C3F8944091F831E091F832508E6903686C
:101EE00003EBC213D3F89C400024C3F89C4091F844
:101EF000303043EA0E2343EA0543056805EBC2157B
:101F000043EA0663C5F89C30036803EBC213D3F8B9
:101F1000985025F0FF05C3F89850036803EBC213EF
:101F20004D69C3F89850036803EBC213D3F8A0506F
:101F300025F4E06525F00705C3F8A0500D6A036895
:101F400003EBC213CE693543C3F8A050036803EB1B
:101F5000C213D3F8AC50C3F8AC40036803EBC21310
:101F60004A6AC3F8AC200C69072C05D8DFE804F0F6
:101F7000352D05312F040433012403686344D3F85D
:101F8000B02002F0E022C3F8B0208A6A04FB02F21B
:101F9000D41C0368634444EA0242C3F8B0200368D7
:101FA0006344D3F8B4206FF30A02C3F8B420036883
:101FB0006344CA6AC3F8B42003686344D3F8842036
:101FC00042F00102C3F8842070BD0324D5E7022447
:101FD000D3E70224D1E70224CFE70424CDE77047FA
:101FE000002800F0FF8010B5044602687E4B9A423C
:101FF00003D09F217D4802F057FD6369B3F5805FF0
:1020000080F0B080A369B3F5006F80F0B080E36921
:10201000B3F5805F80F0B080236AB3F5006F80F085
:10202000B080A36AB3F5006F80F0B080636AB3F547
:10203000805F80F0B080236BB3F5006F80F0B080DC
:10204000E36AB3F5805F80F0B08063681BB1B3F1E1
:10205000004F40F0AF80A3681BB1B3F1804F40F058
:10206000AE80E3681BB1B3F1005F40F0AD8023693F
:102070001BB1B3F1805F40F0AC8094F8A130002B2D
:1020800000F0AC80022384F8A1302268936923F029
:102090007043936121688A696368A0680343E068BC
:1020A00003432069034313438B6121688A68504BC3
:1020B0001A408A6020688268A169D4F814C041EA95
:1020C0000C410A4382602168CA681A40CA602068CD
:1020D000C268216AD4F81CC041EA0C410A43C260BC
:1020E00021680A691A400A6120680269A16AD4F865
:1020F00024C041EA0C410A43026121684A69134045
:102100004B61E06A21684B69226B42EA004213434B
:102110004B6194F8350094F836301B042168CA6A84
:1021200002F07F42CA622168CA6A43EA002394F837
:10213000340003431343CB622268536B43F0040320
:1021400053632268536B43F002035363226893691D
:1021500043F0010393610020C4F8A400012384F834
:10216000A13010BDA021214802F09EFC4AE7A12128
:102170001E4802F099FC4AE7A2211C4802F094FC98
:102180004AE7A321194802F08FFC4AE7A421174827
:1021900002F08AFC4AE7A521144802F085FC4AE7D0
:1021A000A621124802F080FC4AE7A7210F4802F05E
:1021B0007BFC4AE7A8210D4802F076FC4BE7A921F9
:1021C0000A4802F071FC4CE7AA21084802F06CFCB6
:1021D0004DE7AB21054802F067FC4EE72046FFF7CC
:1021E000FEFE4FE7012070470068014094ED0008B3
:1021F00000F800F090F8A030012B00F09D8070B541
:1022000005460C461646012380F8A030022380F8CC
:10221000A1309A424ED82369072B51D8E369B3F510
:10222000806F02D0B3F5C06F50D1236A052B01D067
:10223000072B51D12368B3F5805F53D26368B3F5A0
:10224000803F55D2A368B3F5805F57D2E368B3F5FA
:10225000803F59D2A369FF2B5CD8A36AB3F5005F16
:102260005ED2E36AB3F5006F60D24FF0340C0CFB22
:10227000065C0CF1380CA646BEE80F00ACE80F0077
:10228000BEE80F00ACE80F00BEE80F00ACE80F009E
:10229000DEF80030CCF80030324621462846FFF701
:1022A000D1FD2A680123536285F8A130002085F80A
:1022B000A00070BD40F2DB11204802F0F5FBAAE758
:1022C0004FF4EE711D4802F0EFFBA7E740F2DD117D
:1022D0001A4802F0E9FBA8E74FF4EF71174802F043
:1022E000E3FBA7E740F2DF11144802F0DDFBA5E7AE
:1022F0004FF4F071114802F0D7FBA3E740F2E1116F
:102300000E4802F0D1FBA1E74FF4F1710B4802F047
:10231000CBFB9FE740F2E311084802F0C5FB9CE7C6
:102320004FF4F271054802F0BFFB9AE740F2E51165
:10233000024802F0B9FB98E70220704794ED0008CC
:1023400090F8A030012B11D0012280F8A0200223A8
:1023500080F8A13006498B6943F480338B6180F8A3
:10236000A120002380F8A030184670470220704753
:102370000068014010B5164A136C43F08053136493
:10238000144B01221A64FEF7B1F80446124B5B6845
:1023900013F4803F07D1FEF7A9F8001BB0F57A7F50
:1023A000F4D9032010BD0B4B01225A64FEF79EF8AE
:1023B0000446094B5B6813F4003F07D1FEF796F81B
:1023C000001BB0F57A7FF4D90320EBE70020E9E7A2
:1023D0000038024000000E420070004038B504464C
:1023E00003680F2B4FD8236813F0010F1ED06368CA
:1023F000012B01D9052B4BD1A54B9B6803F00C0396
:10240000042B0AD0A24B9B6803F00C03082B45D188
:102410009F4B5B6813F4800F40D09D4B1B6813F4F7
:10242000003F03D06368012B40F01382236813F050
:10243000020F00F09780E368012B6BD823691F2BF4
:102440006ED8934B9B6813F00C0F74D0904B9B6825
:1024500003F00C03082B69D0E368002B00F0AE807A
:102460008C4B01221A60FEF741F80546884B1B6829
:1024700013F0020F40F09380FEF738F8401B6428F9
:10248000F4D90320EAE1FD21834802F00DFBAAE71D
:102490004FF48171804802F007FBADE77C4B0022CE
:1024A0009A70FEF723F80546794B1B6813F4003F3A
:1024B00008D0FEF71BF8401B41F288339842F3D94D
:1024C0000320CBE12279724B9A706368012B10D004
:1024D000FEF70CF805466E4B1B6813F4003FA5D0C1
:1024E000FEF704F8401B41F288339842F3D90320E9
:1024F000B4E1FDF7FBFF0546654B1B6813F4003F95
:1025000094D1FDF7F3FF401B41F288339842F3D991
:102510000320A3E14FF4A1715F4802F0C5FA8DE7F3
:1025200040F243115C4802F0BFFA8AE7584B5B68FF
:1025300013F4800F90D1564B1B6813F0020F03D099
:10254000E368012B40F087815148026822F0F802CD
:102550002169F82393FAA3F3B3FA83F3DBB299402A
:102560000A430260236813F0080F52D06369012BFD
:1025700036D86369002B39D0464B0122C3F8802E30
:10258000FDF7B4FF0546424B5B6F13F0020F40D1DD
:10259000FDF7ACFF401B6428F5D903205EE13C4801
:1025A000026822F0F8022169F82393FAA3F3B3FA40
:1025B00083F3DBB299400A430260D3E7354B002234
:1025C0001A60FDF793FF0546314B1B6813F0020FAD
:1025D000C8D0FDF78BFF401B6428F5D903203DE1EF
:1025E0004FF4C1712C4802F05FFAC2E7294B002278
:1025F000C3F8802EFDF77AFF0546254B5B6F13F07D
:10260000020F06D0FDF772FF401B6428F5D90320A6
:1026100024E1236813F0040F6BD0A368012B01D9C8
:10262000052B19D11A4A136C43F080531364A2F599
:10263000E432136843F480731360FDF757FF0546D7
:10264000164B1B6813F4807F0CD1FDF74FFF401B26
:102650006428F5D9032001E14FF4D6710E4802F049
:1026600023FADFE70A4B002283F87020FDF73EFFD4
:102670000546074B1B6F13F0020F11D0FDF736FF15
:10268000401B41F288339842F3D90320E6E000BFB3
:102690000038024000004742C4ED000800700040CE
:1026A000227A704B83F87020A368012B10D0FDF7BD
:1026B0001DFF05466B4B1B6F13F0020F19D0FDF782
:1026C00015FF401B41F288339842F3D90320C5E03F
:1026D000FDF70CFF0546634B1B6F13F0020F08D18B
:1026E000FDF704FF401B41F288339842F3D90320E1
:1026F000B4E0A369022B38D8A369002B00F0AD80A9
:10270000584A926802F00C02082A00F0A880022BB6
:1027100040F08B80E36913B1B3F5800F2BD1236AAE
:102720003F2B2ED8636AC03BF02B30D8A26A082A10
:1027300033D84FF4AA73D34013F0010F2DD0E36ABE
:10274000043B0B2B2FD8484B00221A66FDF7CEFE18
:102750000546444B1B6813F0007F2AD0FDF7C6FEE8
:10276000401B6428F5D9032078E04FF4F8713F4806
:1027700002F09AF9C0E740F2F9113C4802F094F9EE
:10278000CDE74FF4FD71394802F08EF9CAE740F207
:10279000FB11364802F088F9C8E74FF4FE71334860
:1027A00002F082F9CBE740F2FD11304802F07CF9EB
:1027B000C9E7236A616A47F6C07292FAA2F2B2FAD6
:1027C00082F2D2B291400B43A26A5208013A4FF40E
:1027D000403191FAA1F1B1FA81F1C9B28A401343B3
:1027E000E2691343E16A4FF0706292FAA2F2B2FA20
:1027F00082F2D2B201FA02F2134343F00053194AB3
:102800005360194B01221A66FDF770FE0446154B02
:102810001B6813F0007F06D1FDF768FE001B6428DB
:10282000F5D903201AE0002018E00F4B00221A66A9
:10283000FDF75CFE04460B4B1B6813F0007F06D0CF
:10284000FDF754FE001B6428F5D9032006E00020A4
:1028500004E0012002E0012000E0002038BD01205A
:10286000FCE700BF0038024000004742C4ED00080A
:1028700070B504460D460368013B0E2B22D80F2D80
:1028800026D8964B1B6803F00F03AB4280F09F8065
:10289000EAB2924B1A701B6803F00F03AB4240F090
:1028A0006F81236813F0020F2DD0A36823B3C02BD0
:1028B00022D016D8A02B1FD010D8802B1CD0902B44
:1028C0001AD014E04FF41871854802F0EDF8D6E7FD
:1028D00040F26121824802F0E7F8D2E7B02B0BD03A
:1028E00005E0E02B08D0F02B06D0D02B04D040F22E
:1028F00077217B4802F0D8F87A4A936823F0F003F6
:10290000A1680B439360236813F0010F00F0F4807B
:102910006368022B27D86368012B2AD0022B2FD0A3
:10292000704A126812F0020F00F02C816D498A681B
:1029300022F0030213438B60FDF7D8FD0546636860
:10294000012B24D0022B32D0664B9B6813F00C0F66
:1029500000F0D280FDF7CAFD431B41F2883293425A
:10296000F2D90320FFE040F27E215D4802F09CF89E
:10297000D1E75C4A126812F4003FD7D10120F2E09F
:10298000584A126812F0007FD0D10120EBE0554B7D
:102990009B6803F00C03042B00F0AE80FDF7A6FD4E
:1029A000431B41F288329342F1D90320DBE04D4BC7
:1029B0009B6803F00C03082B00F09E80FDF796FD4A
:1029C000401B41F288339842F1D90320CBE02368C1
:1029D00013F0020F21D0A368C3B1C02B16D00AD8C0
:1029E000A02B13D004D8802B10D0902B0ED008E051
:1029F000B02B0BD005E0E02B08D0F02B06D0D02B6D
:102A000004D040F2C621364802F04EF8354A9368A9
:102A100023F0F003A1680B439360236813F0010FC8
:102A200062D06368022B26D86368012B29D0022B61
:102A30002ED02C4A126812F0020F00F0A58029490E
:102A40008A6822F0030213438B60FDF74FFD0646B0
:102A50006368012B23D0022B30D0224B9B6813F0EC
:102A60000C0F41D0FDF742FD831B41F288329342A7
:102A7000F3D9032077E040F2CD21194802F014F891
:102A8000D2E7184A126812F4003FD8D101206AE058
:102A9000144A126812F0007FD1D1012063E0114B7B
:102AA0009B6803F00C03042B1ED0FDF71FFD831B56
:102AB00041F288329342F2D9032054E0094B9B68DB
:102AC00003F00C03082B0FD0FDF710FD801B41F223
:102AD00088339842F2D9032045E000BF003C024011
:102AE000C4ED000800380240EAB2294B1A701B6896
:102AF00003F00F03AB4249D1236813F0040F14D045
:102B0000E3685BB1B3F5805F08D0B3F5A05F05D093
:102B1000B3F5C05F02D0B3F5E05F25D11D4A9368DD
:102B200023F4E053E1680B439360236813F0080F2C
:102B300015D023695BB1B3F5805F08D0B3F5A05F12
:102B400005D0B3F5C05F02D0B3F5E05F12D1114AF2
:102B5000936823F46043216943EAC10393600F2023
:102B6000FDF78EFC002070BD40F21D310A4801F0D7
:102B70009BFFD3E74FF44971074801F095FFE6E763
:102B80000120F0E70120EEE70120ECE70120EAE771
:102B9000003C024000380240C4ED0008274B9B680F
:102BA00003F00C03042B45D0082B45D1234A516870
:102BB00001F03F01526802F480024FF4800393FA5F
:102BC000A3F3B3FA83F3DBB2DA4021D01C48B0FBA5
:102BD000F1F01A4B5A6847F6C0731A4093FAA3F300
:102BE000B3FA83F3DBB222FA03F303FB00F0134BD7
:102BF0005B6803F440334FF4403292FAA2F2B2FA27
:102C000082F2D2B2D34001335B00B0FBF3F07047E5
:102C10000C48B0FBF1F0094B5A6847F6C0731A40F4
:102C200093FAA3F3B3FA83F3DBB222FA03F303FBC1
:102C300000F0DCE702487047024870470038024065
:102C400000127A000024F40008B5FFF7A7FF094B33
:102C50009A6802F0F002F02393FAA3F3B3FA83F335
:102C6000DBB222FA03F3044AD35CD840034B18606A
:102C700008BD00BF00380240E0FC00080C00002046
:102C800008B5FFF7E1FF084B9A6802F4E0524FF4F1
:102C9000E05393FAA3F3B3FA83F3DBB222FA03F31C
:102CA000024AD35CD84008BD00380240E0FC00086E
:102CB00008B5FFF7C9FF084B9A6802F460424FF469
:102CC000604393FAA3F3B3FA83F3DBB222FA03F37C
:102CD000024AD35CD84008BD00380240E0FC00083E
:102CE00038B504460368013B2E2B1AD8236813F02D
:102CF000030F00F08A806368C03BF02B16D8A94B05
:102D000000229A66FDF7F2FB0546A74B1B6813F0FD
:102D1000006F10D0FDF7EAFB431B642BF5D90320AD
:102D200038BD6D21A14801F0BFFEDFE778219F4843
:102D300001F0BAFEE3E7236813F0010F19D0A3688E
:102D4000023B052B52D8626847F6C07393FAA3F38F
:102D5000B3FA83F3DBB29A40A1684FF0E04393FAF1
:102D6000A3F3B3FA83F3DBB299400A438E4BC3F863
:102D70008420236813F0020F26D0E368023B0D2B5A
:102D800039D8E369013B1F2B3AD88749D1F8842011
:102D900002F0E0424FF0E04393FAA3F3B3FA83F377
:102DA000DBB2DA406068E3681B0643EA801343EA5B
:102DB0000273C1F88430D1F88C3023F01F03E2692C
:102DC000013A1343C1F88C30764B01229A66FDF725
:102DD0008DFB0546744B1B6813F0006F15D1FDF792
:102DE00085FB401B6428F5D9032099E78E216F48A5
:102DF00001F05AFEA7E79B216C4801F055FEC0E7A1
:102E00009C216A4801F050FEBFE7236813F00C0FC5
:102E100000F09E802369C03BF02B11D8614B00224B
:102E20001A67FDF763FB05465F4B1B6813F0005FF5
:102E30000BD0FDF75BFB431B642BF5D903206FE739
:102E4000C1215A4801F030FEE8E7236813F0040F6F
:102E500027D06369023B0D2B66D8236A013B1F2BE9
:102E600067D85149D1F8882002F0E0424FF0E043A2
:102E700093FAA3F3B3FA83F3DBB2DA402069636910
:102E80001B0643EA801343EA0273C1F88830D1F885
:102E90008C3023F4F853226A013A43EA0223C1F842
:102EA0008C30236813F0080F2CD0A369023B052B4C
:102EB00044D8636A43B1B3F5803F05D0B3F5003F12
:102EC00002D0B3F5403F3ED13749D1F8883003F006
:102ED00070634FF0706292FAA2F2B2FA82F2D2B24A
:102EE000D34022691B0643EA8213A26943EA0273B4
:102EF000C1F88830D1F88C3023F44033626A134330
:102F0000C1F88C30274B01221A67FDF7EFFA05460E
:102F1000254B1B6813F0005F1AD1FDF7E7FA401B41
:102F20006428F5D90320FBE6D621204801F0BCFD3A
:102F300093E7D7211D4801F0B7FD92E7E6211B4832
:102F400001F0B2FDB5E7E721184801F0ADFDBBE7A0
:102F5000236813F0200F0AD1236813F0100F71D0EB
:102F600094F82C20124BC3F8E0210020D8E60E4A3A
:102F7000136C43F080531364A2F5E432136843F4F6
:102F800080731360FDF7B2FA05460A4B1B6813F411
:102F9000807F11D1FDF7AAFA401B6428F5D90320E0
:102FA000BEE600BF0000474200380240F4ED0008D2
:102FB0000010474200700040234B1B6FA26A534031
:102FC00013F4407F0BD0204A136F23F440731F4942
:102FD0000120C1F8400E0020C1F8400E1367A36A1B
:102FE000B3F5807F12D0A36A03F44072B2F5407F3C
:102FF0001DD0154A936823F4F813936012490B6FA0
:10300000A26AC2F30B0213430B67A5E7FDF76EFA42
:1030100005460D4B1B6F13F0020FE4D1FDF766FA66
:10302000401B41F288339842F3D9032078E60649E1
:103030008A6822F4F81223F0704323F44073134398
:103040008B60DBE700206BE600380240000047425F
:103050007047D0B138B50D46044690F82C308BB18E
:10306000022384F82C30214651F8040B01F000FBB8
:1030700062682946206801F0A9FB012384F82C30FE
:10308000002038BDFFF7E4FFEAE70120704738B5BC
:10309000044690F82C30D8B2022B0DD00D460223F6
:1030A00084F82C30206801F02BFC2B68022B04D014
:1030B000012384F82C30002038BD052384F82C30FF
:1030C0000020F9E710B5044690F82C30D8B2022B56
:1030D00009D0022384F82C30206801F077FC01230A
:1030E00084F82C30002010BD2DE9F84306460F4629
:1030F00091461D46FDF7FAF98046B9F1000F2FD031
:1031000033689A6837EA02025DD1B5F1FF3FF7D024
:103110002DB1FDF7EBF9A0EB0800A842F0D9326819
:10312000536823F0E00353603268136823F04003D0
:103130001360B36AB3F5005F3AD0012386F85130CB
:10314000002386F85030032030E03268136823F4FF
:10315000005313603268136843F4005313601CE09B
:1031600033689C6837EA04041FD0B5F1FF3FF7D0FD
:103170002DB1FDF7BBF9A0EB0800A842F0D93268E9
:10318000536823F0E00353603268136823F0400370
:103190001360B36AB3F5005FD7D0012386F85130CE
:1031A000002386F85030032000E04846BDE8F8834D
:1031B0003268136823F4005313603268136843F4D1
:1031C00000531360B9E70020F0E77047002800F0D3
:1031D000C18010B50446436813B1B3F5827F2DD189
:1031E000A3682BB1B3F5806F02D0B3F5004F2AD19D
:1031F000E368B3F5006F00D053BB23690BB1022B1A
:103200002BD16369012B2DD8A369B3F5007F03D0BF
:1032100013B1B3F5802F2AD1E369002B38D0182BD6
:103220002AD8082B05D34C4A22FA03F313F0010FD6
:103230002ED1B821494801F037FC29E0B221474896
:1032400001F032FCCCE7B321444801F02DFCCFE77C
:10325000B421424801F028FCCFE7B5213F4801F0F6
:1032600023FCCEE7B6213D4801F01EFCCCE7B72198
:103270003A4801F019FCCFE7382BDAD8202BD8D305
:10328000203B4FF0013222FA03F313F0010FD0D0AC
:10329000236A0BB1802B45D1636A0BB1102B46D149
:1032A000A36A13B1B3F5005F46D1E36A013B4FF661
:1032B000FE72934245D894F85130002B46D0022339
:1032C00084F851302268136823F040031360636868
:1032D000A2681343E26813432269134362691343EC
:1032E000A26902F400721343E2691343226A134392
:1032F000A16A22680B431360638B03F00403616AC5
:1033000022680B4353602368E26A1A612268D3691A
:1033100023F40063D361002084F85200012384F871
:10332000513010BDB9210D4801F0BEFBB4E7BA2100
:103330000A4801F0B9FBB3E7BB21084801F0B4FB30
:10334000B3E7BC21054801F0AFFBB4E72046FFF727
:103350003CFFB4E7012070470001010128EE00089E
:10336000704780B110B504460268136823F040032B
:103370001360FFF7F5FF002084F8520084F8510035
:1033800084F8500010BD012070470000F8B51D46BC
:1033900090F85130012B40F0D58004460F46164678
:1033A000D8B2002900F0CF80002A00F0CC80A368BA
:1033B00013B1B3F5004F4BD194F85030012B00F00E
:1033C000C380012384F85030122384F85130002345
:1033D00084F852302763A686E686E364A364A38755
:1033E000E387A36AB3F5005F38D0A368B3F5004F55
:1033F0003FD023681A6812F0400F03D11A6842F0D8
:1034000040021A60E368002B5FD1636813B1E38E5A
:10341000012B08D1236B5A1C226322681B78D360CE
:10342000E38E013BE386E38E4BB32B460022022161
:103430002046FFF759FE002840F08880236B5A1C75
:10344000226322681B78D360E38E013BE386EAE7C0
:1034500040F26D113F4801F027FBADE72268136889
:1034600023F4005313602268136843F4005313607D
:10347000BBE72268136843F480431360B9E7A36A8B
:10348000B3F5005F1BD02B46002202212046FFF738
:103490002BFE002846D12B46012280212046FFF733
:1034A00023FE002846D1A36813B92368DA689B6815
:1034B000012384F85130002384F8503043E022681F
:1034C000136843F480531360DDE7636813B1E38E40
:1034D000012B09D1226B23681288DA60236B023337
:1034E0002363E38E013BE386E38E8BB12B46002200
:1034F00002212046FFF7F8FD50BB226B236812889B
:10350000DA60236B02332363E38E013BE386EBE750
:10351000A36AB3F5005FB6D12268136843F4805301
:103520001360B0E794F8523043F0200384F852302F
:10353000032008E094F8523043F0200384F852301E
:10354000032000E00220F8BD0220FCE70320FAE798
:103550000320F8E728EE00082DE9F04182B0044688
:103560000F4690461D46089E90F85130012B03D01F
:10357000DAB2222A40F09581002F00F09681B8F14E
:10358000000F00F09481002D00F09381A368002BC0
:1035900040F0848094F85030012B00F08C8101239E
:1035A00084F8503094F85130012B7DD0002384F8FA
:1035B0005230C4F83880A587E5872763A586E5865D
:1035C000A364E364A36AB3F5005F71D023681A684B
:1035D00012F0400F03D11A6842F040021A60E3680B
:1035E000B3F5006F6FD063682BB1B3F5827F0BD159
:1035F000E38E012B08D1236B5A1C226322681B78AF
:10360000D360E38E013BE386E38E002B40F0F28033
:10361000A36AB3F5005F00F0D68033460022012193
:103620002046FFF761FD002840F04F812368DA68EB
:10363000A36B1A70E38F013BE387A36AB3F5005FC6
:1036400000F00E813346012280212046FFF74CFD19
:10365000002840F01A81012384F8513022689368D1
:1036600003F01003A16AB1F5005F40F01681002B52
:1036700000F0138194F8523043F0020384F8523082
:10368000136823F4005313602268136843F4005353
:103690001360002384F85030012003E140F2C72179
:1036A0008E4801F001FA75E7322384F851307DE746
:1036B0002268136823F4005313602268136843F4EC
:1036C0000053136082E763682BB1B3F5827F0CD19E
:1036D000E38E012B09D1226B23681288DA60236BF9
:1036E00002332363E38E013BE386E38E002B30D16C
:1036F000A36AB3F5005F13D03346002201212046B0
:10370000FFF7F2FC002840F0D8802368DA68A36B4A
:103710001A80A36B0233A363E38F013BE3878CE73B
:103720002268136843F480531360E5E733460022B0
:1037300001212046FFF7D8FC002840F0C280236812
:10374000DA68A36B1A80A36B0233A363E38F013B98
:10375000E387E38EFBB13346002202212046FFF7C8
:10376000C3FC002840F0AB80226B23681288DA602B
:10377000236B02332363E38E013B9BB2E386002B72
:10378000D4D1A36AB3F5005FD0D12268136843F4A3
:1037900080531360CAE76368002B7FF44EAF334653
:1037A000002201212046FFF79FFC002840F08B807B
:1037B0002368DA68A36B1A80A36B0233A363E38FD9
:1037C000013BE38739E72268136843F480531360B1
:1037D00023E73346002201212046FFF785FC00281D
:1037E00077D12368DA68A36B591CA1631A70E38F41
:1037F000013BE387E38EEBB13346002202212046F2
:10380000FFF772FC002862D1236B5A1C22632268E6
:103810001B78D360E38E013B9BB2E386002BD8D1AB
:10382000A36AB3F5005FD4D12268136843F48053D0
:103830001360CEE76368002B7FF4FFAE33460022AF
:1038400001212046FFF750FC002844D12368DA68A4
:10385000A36B591CA1631A70E38F013BE387ECE66D
:103860003346002201212046FFF73EFC28B9236899
:10387000DB689BB2ADF80630E4E694F8523043F0D2
:10388000020384F8523003200CE094F8523043F0E5
:10389000200384F85230032004E0002384F85030E1
:1038A00000E0022002B0BDE8F0810120FAE701202B
:1038B000F8E70120F6E70220F4E70320F2E703200F
:1038C000F0E70320EEE70320ECE70320EAE703201C
:1038D000E8E70320E6E70320E4E700BF28EE00085E
:1038E000F0B585B01D4690F85130012B40F00181B4
:1038F0000446DEB2002900F0FD80002A00F0FA80C4
:1039000090F85030012B00F0F880012380F85030FF
:10391000222380F85130002380F85230816382875F
:10392000C2878364C3648386C3868368B3F5004F0C
:103930002BD0A36AB3F5005F2DD06368B3F5827F07
:1039400034D023681A6812F0400F03D11A6842F08D
:1039500040021A60E368002B35D0E38F012B40F260
:103960008F802B46002201212046FFF7BDFB002857
:1039700040F0C7802368DA68A36B1A80A36B023318
:10398000A363E38F013BE387E7E70068036823F461
:1039900080430360CDE72068036823F4005303608D
:1039A0002068036843F400530360C6E7A368002B54
:1039B000C7D184F85030009513460A462046FFF7D9
:1039C000CBFD064696E0E38F012B12D92B46002251
:1039D00001212046FFF788FB002840F090802368F3
:1039E000DA68A36B591CA1631A70E38F013BE3876C
:1039F000E9E7A36AB3F5005F3CD02B460022012122
:103A00002046FFF771FB074600287CD1E368002BB6
:103A100040D12368DA68A36B591CA1631A70E38F45
:103A2000013BE387A36AB3F5005F3BD06368B3F55E
:103A3000827F4CD0012384F851302268936803F0D0
:103A40001003A16AB1F5005F4ED1002B4CD094F861
:103A5000523043F0020384F85230136823F40053C9
:103A600013602268136843F400531360002384F842
:103A700050303FE02268136843F480531360BCE782
:103A8000A36AB3F5005FB8D12268136843F480538A
:103A90001360B2E72368DA68A36B1A80A36B023362
:103AA000A363BCE72B46002201212046FFF71CFB45
:103AB00028B92368DB689BB2ADF80E30B6E794F8FE
:103AC000523043F0020384F85230032612E0A36818
:103AD000B3F5004F02D0B3F5806FABD12268136805
:103AE00023F040031360A5E7002384F850303E46DE
:103AF00000E00226304605B0F0BD0226FAE70326B4
:103B0000F8E70326F6E70326F4E790F8510070473C
:103B100010B504460368234A934237D0B3F1804F6F
:103B200034D0A2F57C42934230D002F580629342B9
:103B30002CD002F58062934228D002F58062934235
:103B400024D002F58062934220D002F57042934265
:103B50001CD002F57052934218D002F58062934255
:103B600014D002F58062934210D0A2F598329342AD
:103B70000CD002F58062934208D002F58062934235
:103B800004D040F26111084800F08EFF2268D3682B
:103B900043F00103D3602268136843F0010313600C
:103BA000002010BD0000014058EE0008704770472B
:103BB0007047704710B5044603681A6912F0020F87
:103BC00011D0DA6812F0020F0DD06FF002021A6104
:103BD0000123037603689B6913F0030F70D0FFF78E
:103BE000E6FF0023237623681A6912F0040F12D02F
:103BF000DA6812F0040F0ED06FF004021A6102238B
:103C0000237623689B6913F4407F5FD02046FFF73B
:103C1000CEFF0023237623681A6912F0080F12D012
:103C2000DA6812F0080F0ED06FF008021A61042350
:103C300023762368DB6913F0030F4ED02046FFF78D
:103C4000B6FF0023237623681A6912F0100F12D0F2
:103C5000DA6812F0100F0ED06FF010021A6108230C
:103C600023762368DB6913F4407F3DD02046FFF7BD
:103C70009EFF0023237623681A6912F0010F03D0F8
:103C8000DA6812F0010F36D123681A6912F0800F3A
:103C900003D0DA6812F0800F34D123681A6912F069
:103CA000400F03D0DA6812F0400F32D123681A694E
:103CB00012F0200F03D0DA6812F0200F30D110BDBF
:103CC000FFF774FF2046FFF773FF8AE72046FFF7F0
:103CD0006DFF2046FFF76CFF9BE72046FFF766FF6E
:103CE0002046FFF765FFACE72046FFF75FFF204661
:103CF000FFF75EFFBDE76FF001021A61204602F098
:103D000029F9C1E76FF080021A61204600F0E7F858
:103D1000C3E76FF040021A612046FFF74AFFC5E78C
:103D20006FF020021A61204600F0D8F8C7E70000C3
:103D300003682E4A904212D0B0F1804F0FD0A2F506
:103D40007C4290420BD002F58062904207D002F58F
:103D50008062904203D002F57842904203D123F072
:103D600070034A681343214A90422AD0B0F1804F31
:103D700027D0A2F57C42904223D002F58062904287
:103D80001FD002F5806290421BD002F5784290422B
:103D900017D002F57052904213D002F58062904223
:103DA0000FD002F5806290420BD0A2F5983290427B
:103DB00007D002F58062904203D002F58062904203
:103DC00003D123F44073CA68134303608B68C36252
:103DD0000B688362054B984203D003F580639842D9
:103DE00001D10B6903630123436170470000014067
:103DF00000286CD010B504460368364A934236D08A
:103E0000B3F1804F33D0A2F57C4293422FD002F51C
:103E1000806293422BD002F58062934227D002F554
:103E20008062934223D002F5806293421FD002F554
:103E3000704293421BD002F57052934217D002F5A4
:103E40008062934213D002F5806293420FD0A2F5B4
:103E5000983293420BD002F58062934207D002F56C
:103E60008062934203D0D1211B4800F01DFEA3685D
:103E70003BB1102B05D0202B03D0402B01D0602B61
:103E800017D123692BB1B3F5807F02D0B3F5007F42
:103E900014D194F83930B3B1022384F83930214673
:103EA00051F8040BFFF744FF012384F83930002058
:103EB00010BDD221084800F0F7FDE2E7D321064803
:103EC00000F0F2FDE5E7204602F00EFCE4E70120F9
:103ED000704700BF0000014058EE0008704770476F
:103EE000F8B504460368AB4A934220D0A2F54C4291
:103EF00093421CD002F58062934218D002F5806292
:103F0000934214D002F58062934210D002F54442ED
:103F100093420CD0A2F51C42934208D002F5806275
:103F2000934204D040F22A719B4800F0BDFD6268C4
:103F30009A4B9A4200F2A180A3681BB1B3F5805F4F
:103F400040F0A180E3681BB1B3F5005F40F0A180B1
:103F5000236933B1B3F5806F03D0B3F5C06F40F080
:103F60009E8063694FF6F372134200D123B940F289
:103F70002F71894800F098FDA3694BB1B3F5807F9C
:103F800006D0B3F5007F03D0B3F5407F40F08D80BD
:103F9000A369A3B123687F4A934210D0A2F54C4293
:103FA00093420CD002F58062934208D002F54C4255
:103FB000934204D040F23571774800F075FD2168D6
:103FC0000A6922F44052E36813430B612168CA680E
:103FD00022F4164222F00C02A368206903436069B0
:103FE0000343E06903431343CB6021684A6922F429
:103FF0004072A36913434B61E369B3F5004F5AD094
:104000002368644A934200F0CD8002F580629342B7
:1040100000F0C880FEF734FE00EB800000EB80006B
:1040200063689B00B0FBF3F65D4FA7FB063676098D
:104030003601FEF725FE00EB800000EB8000636890
:104040009B00B0FBF3F5FEF71BFE00EB800000EBDE
:10405000800063689B00B0FBF3F0A7FB00304009D1
:10406000642303FB10531B013233A7FB0373C3F319
:10407000431322681E439660C6E040F22B71464807
:1040800000F012FD58E740F22C71434800F00CFD9F
:1040900058E740F22D71404800F006FD58E740F225
:1040A0002E713D4800F000FD5BE74FF4E6613A48B1
:1040B00000F0FAFC6CE72368364A934236D002F5EA
:1040C0008062934232D0FEF7DBFD00EB800000EB14
:1040D000800663685B00B6FBF3F6314FA7FB06363C
:1040E00076093601FEF7CCFD00EB800000EB800086
:1040F00063685B00B0FBF3F5FEF7C2FD00EB8000E8
:1041000000EB800063685B00B0FBF3F3A7FB0323C5
:104110005B09642202FB13531B013233A7FB0373B9
:10412000C3F3431322681E4396606DE0FEF7C0FDA3
:1041300000EB800000EB800063685B00B0FBF3F6EF
:10414000174FA7FB063676093601FEF7B1FD00EBE7
:10415000800000EB800063685B00B0FBF3F5FEF7C6
:10416000A7FD00EB800000EB800063685B00B0FB04
:10417000F3F3A7FB03235B09642202FB13531B0128
:104180003233A7FB0373C3F3431322681E439660C5
:104190003AE000BF0010014088EE0008A037A00000
:1041A0001F85EB51FEF784FD00EB800000EB8000E3
:1041B00063689B00B0FBF3F6144FA7FB0636760945
:1041C0003601FEF775FD00EB800000EB80006368B0
:1041D0009B00B0FBF3F5FEF76BFD00EB800000EBFE
:1041E000800063689B00B0FBF3F0A7FB0030400940
:1041F000642303FB10531B013233A7FB0373C3F388
:10420000431322681E439660F8BD00BF1F85EB5123
:104210002DE9F84306460F4691461D46FCF766F920
:104220008046B9F1000F2AD033681A6837EA0202D3
:1042300053D1B5F1FF3FF7D02DB1FCF757F9A0EB03
:104240000800A842F0D93268D36823F08003D36015
:104250003268D36823F02003D3603268D36823F434
:104260008073D3603268536923F0010353610123E3
:1042700086F83930002386F8383003202BE0336885
:104280001C6837EA040425D0B5F1FF3FF7D02DB103
:10429000FCF72CF9A0EB0800A842F0D93268D368EB
:1042A00023F08003D3603268D36823F02003D36007
:1042B0003268D36823F48073D3603268536923F083
:1042C00001035361012386F83930002386F8383022
:1042D000032000E04846BDE8F8830020FBE700002B
:1042E000002866D010B504468369002B38D00368D7
:1042F000314A93420FD0A2F54C4293420BD002F5C3
:104300008062934207D002F54C42934203D0F221DF
:104310002A4800F0C9FB94F83930002B45D002231D
:1043200084F839302268D36823F40053D3602046E0
:10433000FFF7D6FD2268136923F4904313612268C6
:10434000536923F02A0353612268D36843F400536E
:10435000D360002084F83A00012384F8393010BD7E
:104360000368154A9342D6D0A2F54C429342D2D06C
:1043700002F580629342CED002F580629342CAD0A9
:1043800002F580629342C6D002F544429342C2D005
:10439000A2F51C429342BED002F580629342BAD08D
:1043A000F721064800F080FBB5E7204602F0AEF9A1
:1043B000B5E70120704700BF0010014088EE0008FB
:1043C00090F839305FFA83FC012B02D0BCF1120F58
:1043D0002DD171B37AB390F83830012B2DD0012351
:1043E00080F8383081628285C285002380F83A30B7
:1043F00090F83930122B16D0222380F83930026819
:10440000D36843F48073D3600268536943F00103B7
:104410005361002380F838300168CA6842F02002F6
:10442000CA6018467047322380F83930E7E7022027
:104430007047012070470120704702207047704785
:1044400038B5044690F83930122B02D0DAB2322A4D
:1044500049D1A368B3F5805F2DD0236A5A1C22622C
:104460001A7823685A60E38C013B9BB2E384002BEB
:104470003BD12268D36823F08003D36094F83930AD
:10448000322B28D02268D36823F48073D36022684B
:10449000536923F001035361012384F8393045F255
:1044A000F053002240212046FFF7B2FE0546B0B18E
:1044B0000325284638BD236A1B882268C3F30803F6
:1044C000536023691BB9236A02332362CBE7236A53
:1044D00001332362C7E7222384F83930DFE720461F
:1044E000FFF7ADFFE5E70225E3E70025E1E708B5C3
:1044F00090F83930222B02D0DAB2322A4DD18368BB
:10450000B3F5805F28D00369002B39D103685A685E
:10451000836A591C81621A70C38D013B9BB2C385AB
:10452000002B3CD10268D36823F02003D36090F8BD
:104530003930322B2DD00268D36823F48073D360D6
:104540000268536923F001035361012380F8393075
:1045500001F0ACF9002008BD826A036943B9036821
:104560005B68C3F308031380836A02338362D3E773
:1045700003685B68DBB21380836A01338362CBE735
:1045800003685B68826A511C816203F07F031370C9
:10459000C2E7122380F83930DAE70220DBE7002097
:1045A000D9E710B5044603681968DA6811F0010FFD
:1045B0000AD002F480723AB11A685A6890F83A2028
:1045C00042F0010280F83A2019685A6902F00102AB
:1045D00011F0020F08D03AB11A685A6894F83A20DC
:1045E00042F0040284F83A2019685A6902F0010284
:1045F00011F0040F08D03AB11A685A6894F83A20BA
:1046000042F0020284F83A2019685A6902F0010265
:1046100011F0080F08D03AB11A685A6894F83A2095
:1046200042F0080284F83A201A68DB6803F020039D
:1046300012F0200F00D063B923681A68DB6803F01A
:10464000800312F0800F00D03BB994F83A3043B9A0
:1046500010BD2046FFF74BFFEEE72046FFF7F0FEC8
:10466000F3E7012384F83930204601F074FCEFE7CA
:1046700038B505460C46534B984204D040F2BD3144
:10468000514800F011FA2368012B4CD86368032BC2
:104690004FD8A3681BB1042B01D0082B4FD1E3687E
:1046A0001BB1102B01D0202B4FD123690BB1402B14
:1046B00051D16369802B05D0B3F5807F02D0B3F56B
:1046C000C07F4ED1A36913B1B3F5007F4FD1E36929
:1046D0002BB1B3F5006F02D0B3F5406F4DD1236A13
:1046E00013B1B3F5805F4ED1636A2BB1B3F5005FB0
:1046F00002D0B3F5804F4CD12368012B4FD06368B3
:10470000A2681343E26813432269134362691343A7
:10471000A2691343E2691343226A1343626A134393
:104720002B60002038BD40F2BE31274800F0BCF9B4
:10473000ACE740F2BF31244800F0B6F9A9E74FF4E6
:104740007071214800F0B0F9A9E740F2C1311E486C
:1047500000F0AAF9A9E740F2C2311B4800F0A4F921
:10476000A7E740F2C331184800F09EF9AAE74FF4DA
:104770007171154800F098F9A9E740F2C531124867
:1047800000F092F9ABE740F2C6310F4800F08CF927
:10479000AAE740F2C7310C4800F086F9ACE7E369BC
:1047A000226A1343626A1A436368A1680B43E16893
:1047B0000B4321690B4361690B43A1690B432A60D9
:1047C0006B60AEE7400100A0B8EE000870B505468A
:1047D0000C461646484B984204D040F2FB314748FD
:1047E00000F062F92368013B0F2B38D86368013B66
:1047F0000F2B3AD8A368013B0F2B3CD8E368013B51
:104800000F2B3ED82369013B0F2B40D86369013B36
:104810000F2B42D8A369013B0F2B44D8012E48D857
:10482000012E4CD02368013B6268013A43EA02132F
:10483000A268013A43EA0223E268013A43EA0233FA
:104840002269013A43EA02436269013A43EA0253A8
:10485000A269013A43EA0263AB60002070BD4FF4E5
:104860007F71264800F020F9C0E740F2FD3123486F
:1048700000F01AF9BEE740F2FE31204800F014F9CA
:10488000BCE740F2FF311D4800F00EF9BAE74FF4E3
:1048900080611A4800F008F9B8E740F20141174872
:1048A00000F002F9B6E740F20241144800F0FCF8CB
:1048B000B4E740F20341114800F0F6F8B0E723688E
:1048C000013B6268013A43EA0213A268013A43EAF3
:1048D00002232269013A43EA0243A269013A43EA08
:1048E0000263E268511E6269013A120542EA01322E
:1048F000EB60AA60B1E700BF400100A0B8EE00087D
:1049000070B582B005460C461646002301932C4B29
:10491000984204D04FF490612A4800F0C5F823680B
:10492000062B2ED86268182A31D8274BD34013F0B3
:10493000010F2CD0A368013B0F2B2ED8E368B3F5F1
:10494000005F30D2236862681343A268013A43EAE9
:104950004213E26843EA42230193019B2B61FBF778
:10496000C5FD0446AB6913F0200F24D0B6F1FF3F1C
:1049700024D0F6B1FBF7BAFD001BB04219D80120D4
:104980001AE040F281410F4800F08EF8CAE740F289
:1049900082410C4800F088F8CCE740F28341094896
:1049A00000F082F8CAE740F28441064800F07CF843
:1049B000C8E7032000E0002002B070BD0120FBE743
:1049C000400100A0B8EE00080001010138B504461E
:1049D0000D460B4B984204D040F2AD41094800F01F
:1049E00063F8B5F5005F05D2636943EA4503636187
:1049F000002038BD40F2AE41024800F055F8F3E720
:104A0000400100A0B8EE0008FEE7000008B503482A
:104A100000F06EF80120FFF7F7FF00BFE8EE000896
:104A200008B503460C4A12685AB10B4A10680333A2
:104A300023F003030344094A934206D8064A13604D
:104A400008BD054A06491160EFE704F091FE0C230A
:104A500003604FF0FF30F3E7D827002000FC02206E
:104A6000E837002001230360014B0B60704700BF53
:104A70000400002000B583B08C46194652B114469C
:104A8000064B0194009363460246054800F016F871
:104A9000FFF7BCFF034B1C46F3E700BFFCEE00082A
:104AA0000CEF000838F0000808B50A460146024835
:104AB00000F004F8FFF7AAFF3CEF00080FB400B5C0
:104AC00083B004AB53F8042B01938021074804F012
:104AD00091FD002804DC03B05DF804EB04B07047DE
:104AE0000146024800F037F8F5E700BFE427002050
:104AF00010B5044604F044FE0146204600F02BF8B1
:104B00000121024800F027F810BD00BF68EF00083F
:104B100000228A421DD24FF06043D3F8803E13F04A
:104B2000010F14D04FF06043D3F8003E13F0010F93
:104B30000DD04FF060431B68002BFAD010F9013BF9
:104B4000DBB24FF0604C8CF800300132E1E71046E8
:104B500070470846704708B5FFF7DAFF08BD08B58B
:104B600000F002F808BD00000C4B1A6842F0010288
:104B70001A60002199601A6822F0847222F480324F
:104B80001A60074A5A601A6822F480221A60D960B3
:104B9000044B4FF000629A60704700BF003802403B
:104BA0001030002400ED00E0F02070474FF4A070BA
:104BB000704708B501F020FF08BD08B52920FFF7B0
:104BC000F8FF08BD08B52820FFF7F3FF08BD08B5BA
:104BD00001F0F6FE08BD0000A74B1B7803B170473B
:104BE00010B50124A44B1C7001F09EFECA20FFF7F3
:104BF000E0FFC320FFF7EBFF0820FFF7E8FF50209E
:104C0000FFF7E5FFCF20FFF7D4FF0020FFF7DFFF1E
:104C1000C120FFF7DCFF3020FFF7D9FFED20FFF7C1
:104C2000C8FF6420FFF7D3FF0320FFF7D0FF122057
:104C3000FFF7CDFF8120FFF7CAFFE820FFF7B9FF9C
:104C40008520FFF7C4FF0020FFF7C1FF7820FFF7A2
:104C5000BEFFCB20FFF7ADFF3920FFF7B8FF2C20B8
:104C6000FFF7B5FF0020FFF7B2FF3420FFF7AFFFDB
:104C70000220FFF7ACFFF720FFF79BFF2020FFF794
:104C8000A6FFEA20FFF795FF0020FFF7A0FF002016
:104C9000FFF79DFFB120FFF78CFF0020FFF797FF84
:104CA0001B20FFF794FFB620FFF783FF0A20FFF7D2
:104CB0008EFFA220FFF78BFFC020FFF77AFF1020A6
:104CC000FFF785FFC120FFF774FF1020FFF77FFF7C
:104CD000C520FFF76EFF4520FFF779FF1520FFF78E
:104CE00076FFC720FFF765FF9020FFF770FF3620A3
:104CF000FFF75FFFC820FFF76AFFF220FFF759FFB9
:104D00000020FFF764FFB020FFF753FFC220FFF73A
:104D10005EFFB620FFF74DFF0A20FFF758FFA720E0
:104D2000FFF755FF2720FFF752FF0420FFF74FFF43
:104D30002A20FFF73EFF0020FFF749FF0020FFF782
:104D400046FF0020FFF743FFEF20FFF740FF2B2037
:104D5000FFF72FFF0020FFF73AFF0020FFF737FF94
:104D60002046FFF734FF3F20FFF731FFF620FFF723
:104D700020FF2046FFF72BFF0020FFF728FF06202B
:104D8000FFF725FF2C20FFF714FFC82001F078FE65
:104D90002620FFF70EFF2046FFF719FFE020FFF760
:104DA00008FF0F20FFF713FF2920FFF710FF242033
:104DB000FFF70DFF0C20FFF70AFF0E20FFF707FF9C
:104DC0000920FFF704FF4E20FFF701FF7820FFF7CF
:104DD000FEFE3C20FFF7FBFE0920FFF7F8FE132044
:104DE000FFF7F5FE0520FFF7F2FE1720FFF7EFFEB5
:104DF0001120FFF7ECFE0020FFF7E9FEE120FFF7AE
:104E0000D8FE0020FFF7E3FE1620FFF7E0FE1B2090
:104E1000FFF7DDFE0420FFF7DAFE1120FFF7D7FED3
:104E20000720FFF7D4FE3120FFF7D1FE3320FFF734
:104E3000CEFE4220FFF7CBFE0520FFF7C8FE0C2078
:104E4000FFF7C5FE0A20FFF7C2FE2820FFF7BFFECE
:104E50002F20FFF7BCFE0F20FFF7B9FE1120FFF750
:104E6000A8FEC82001F00CFE2920FFF7A2FE2C208E
:104E7000FFF79FFE10BD00BF6428002008B501F0B9
:104E8000D7FD08BD08B5064B1B782BB10321D320F5
:104E9000FFF7F4FF80B208BDFFF79EFEF6E700BF04
:104EA00064280020FEE700002DE9F0419EB019AD16
:104EB000002419941A941B941C941D940DAF302255
:104EC0002146384604F006FC1F4A136C43F0805319
:104ED0001364A2F5E432136843F4404313600123E2
:104EE0000D930E93022613964FF4800314934FF004
:104EF0000808CDF854804FF4B4731693179607231F
:104F000018933846FDF76AFAFDF734FA0F23199320
:104F10001A961B944FF4A0531C934FF480531D9387
:104F200005212846FDF7A4FCCDF80480C023059395
:104F3000042307934FF400330A9301A8FDF7D0FE32
:104F40001EB0BDE8F08100BF003802402DE9F047F7
:104F5000A4B0454B1A6B42F001021A631A6B42F07F
:104F600002021A631A6B42F004021A631A6B42F0CF
:104F700008021A631A6B42F010021A631A6B42F0AD
:104F800020021A631A6B42F040021A631FA9002420
:104F90001F944C608C60CC600C610DF1680A1A940F
:104FA0001B941C941D941E940DF154091594169491
:104FB0001794189419940DF14008109411941294B8
:104FC000139414940BAF0B940C940D940E940F94B3
:104FD00006AE06940794089409940A9401AD0194CE
:104FE000029403940494059420231F930123209397
:104FF00090221A921B9343F6081215921693B4222C
:10500000109211937C220B920C9340220692174A25
:10501000079208930422019203931548FCF78EFD32
:1050200051461448FCF78AFD49461348FCF786FDB3
:1050300041461248FCF782FD39461148FCF77EFDD7
:1050400031461048FCF77AFD29460F48FCF776FDFB
:1050500022460F211720FBF7ABFA1720FBF7CCFAFB
:1050600024B0BDE8F08700BF0038024000001110F6
:10507000000002400004024000080240000C024010
:1050800000100240001402400018024008B5134B03
:105090001B681B0A124AA2FB03239B0A013B9BB21B
:1050A000104A13801048114A026042F20F72C26027
:1050B0004360002303618360FEF79AFE50B90A48FB
:1050C000FEF726FD40B9084B1A68D36843F0010388
:1050D000D36008BDFFF7E6FEFFF7E4FE0C000020FA
:1050E000C7541E01782800207C28002000040040BE
:1050F0000E4B93F900307BB10D4A136801331360F6
:105100000B4B1B68002B0CDB094B1B68112B02DDC2
:10511000074B11221A607047054A1368013B136060
:10512000EEE7034B00221A60EEE700BFC028002024
:10513000BC28002008B5084B1B68834203D00748F1
:1051400001F0CCFD08BD4FF07F4001F0BBFD6FF4D6
:105150007F0001F0C3FDF5E7BC280020FF0000FF41
:1051600070B5C0B04FF0FF3001F0ACFD0020FFF78C
:10517000E1FF774D2B68774C04EB4313DA697649EE
:10518000684604F017FA03226946002001F0B2FFD6
:10519000F0221221002001F035FEF0221121002022
:1051A00001F030FE6FF47F0001F08CFD0220FFF76C
:1051B000C1FF2B6804EB4314237B212B00F0B0804C
:1051C0000ED9412B00F0A280812B1FD16C46634D7C
:1051D0000FCD0FC42B6824F8023B1B0C237015E085
:1051E0005BB1112B12D16C465D4D0FCD0FC42B68F6
:1051F00024F8023B1B0C237008E06C46594D0FCD80
:105200000FC42B6824F8023B1B0C23700322694651
:10521000022001F06FFF0320FFF78CFF4C4E336834
:105220004C4D5B01EA5C5049684604F0C3F9032227
:105230006946104601F05EFF0420FFF77BFF3368EC
:1052400005EB43135A784949684604F0B3F9032241
:105250006946042001F04EFF0520FFF76BFF33681D
:1052600005EB43139A784249684604F0A3F90322F8
:105270006946052001F03EFF0620FFF75BFF33681B
:1052800005EB4313DA783B49684604F093F90322AF
:105290006946062001F02EFF0720FFF74BFF336819
:1052A00005EB43139A883449684604F083F90322D6
:1052B0006946072001F01EFF0820FFF73BFF336817
:1052C00005EB4313DA892D49684604F073F903228C
:1052D0006946082001F00EFF0920FFF72BFF336815
:1052E00005EB4315AB7D212B00F02C8122D9412BFE
:1052F00000F01E81812B54D16C46214D0FCD0FC47F
:105300002B6824F8023B1B0C23704AE06C461D4DB1
:105310000FCD0FC42B6824F8023B1B0C237075E7DC
:105320006C46194D0FCD0FC42B6824F8023B1B0CA3
:1053300023706BE763B3112B33D16C46134D0FCD44
:105340000FC42B6824F8023B1B0C237029E000BF1C
:105350000C320020580000206CEF0008E0EF00083D
:10536000A4EF000890EF0008F4EF000804F0000834
:1053700014F0000828F000083CF0000850F0000885
:10538000B4F00008B8EF0008CCEF000878F000088F
:105390006C468F4D0FCD0FC42B6824F8023B1B0CBD
:1053A00023706C4603226946092001F0A3FE0A20FF
:1053B000FFF7C0FE874E3368874D05EB43131A7C19
:1053C0008649684604F0F6F8032269460A2001F08F
:1053D00091FE0B20FFF7AEFE336805EB43135A7CBA
:1053E0007F49684604F0E6F8032269460B2001F085
:1053F00081FE0C20FFF79EFE336805EB43139A7C79
:105400007849684604F0D6F8032269460C2001F07A
:1054100071FE0D20FFF78EFE336805EB4313DA7C37
:105420007149684604F0C6F8032269460D2001F070
:1054300061FE0E20FFF77EFE336805EB43139A8A68
:105440006A49684604F0B6F8032269460E2001F066
:1054500051FE0F20FFF76EFE336805EB4315AB7965
:10546000012B79D05B4B1A685B4B03EB42139B79A2
:10547000022B7AD0574B1A68574B03EB42139B7998
:10548000042B7CD0534B1A68534B03EB42139B798C
:10549000042B7ED06C46564D0FCD0FC42B68238055
:1054A000032269460F2001F025FE1020FFF742FE7F
:1054B000484E3368484C04EB43131A894D496846FB
:1054C00004F078F803226946102001F013FE112041
:1054D000FFF730FE336804EB43139A7A4649684677
:1054E00004F068F803226946112001F003FE12203F
:1054F000FFF720FE336804EB4314E37A072B52D006
:10550000344B1A68344B03EB4213DB7A002B54D133
:105510006C463A4D0FCD0FC495E8030044F8040BD8
:10552000218003226946122001F0E4FD40B070BDE5
:105530006C46334D0FCD0FC42B6824F8023B1B0C77
:1055400023702EE76C462F4D0FCD0FC42B6824F827
:10555000023B1B0C237024E72B4D0FCD0FC42B688F
:1055600024F8023B1B0C23709AE76C46274D0FCDA5
:105570000FC42B6824F8023B1B0C237090E76C4689
:10558000234D0FCD0FC42B6824F8023B1B0C237056
:1055900086E76C461F4D0FCD0FC42B6824F8023BE5
:1055A0001B0C23707CE76C461B4D0FCD0FC495E898
:1055B000030044F8040B2170B3E7064B1A68064B4E
:1055C00003EB4213DA7A1549684603F0F3FFA8E7C4
:1055D00064F000080C32002058000020C8F00008D9
:1055E000D8F00008E8F00008FCF0000810F100080E
:1055F00074F1000888F10008A0F10008D0F100085B
:105600008CF00008A0F0000824F1000838F1000830
:105610004CF1000860F10008B8F10008E8F100085A
:1056200070B5FAF741FFFFF73FFC002001F022F9C7
:10563000012001F01FF9002001F058F9FFF726FDC5
:10564000FFF784FC7648774B036047F612234360EC
:1056500000238360C3600361836104224261C361EC
:10566000FEF73EFE08B1FFF71DFC00246E4B1C70D8
:105670006E4B0F221A7001F04DFB4FF05041204647
:1056800001F0B6FA0121204601F0FCFA204601F0B3
:10569000F3FA6FF47F0001F097FB654D284601F0A7
:1056A00011FB4FF48C73C8221421084601F0D4FB7F
:1056B000284601F013FB6FF47F0001F003FB01F0BB
:1056C00005FC5C4801F018FB01225B49022001F057
:1056D00011FD01225949052001F00CFD0122584914
:1056E000082001F007FD574B1C60012256494C4829
:1056F000FEF766FE054608B1FFF7D4FB0024514BC8
:105700001C60524B1C60524B1C604FF4FA60FAF75D
:10571000F3FE474E304601F057FB304601F0DEFA0B
:105720006FF47F0001F0CEFA1DE0204603F0ECFCA0
:105730004FF06E5103F03CFD03F0F2F802460B46C9
:1057400002F090FF32A3D3E9002303F041F901F006
:105750001BFE31A3D3E9002303F03AF903F0D2FB97
:105760003C4B18550134FF2CDFDD2E46002300E0B2
:1057700023465C1C0A2B20D800F002FD012001F01A
:10578000C5F8002001F0B2F80A20FAF7B5FE324B56
:105790001A68324B03EB4213DB7D314A11880B440C
:1057A0001380304B93F900305BBB2D4B1B88FF2BD4
:1057B000DED92B4B00221A80DAE7FFF7D1FC244B0D
:1057C0001B6813B986B90024D6E7013B204A136051
:1057D0006FF0FF0001F076FA01222349132001F057
:1057E00089FC01260024C7E7114801F06BFA102359
:1057F000F0224FF49871002001F02EFB2E46002479
:10580000BAE7FFF775FC174B00221A70CDE700BF0F
:10581000182D4454FB2109400000000000C05F40E7
:10582000CC31002000100140B828002008320020B0
:10583000FF0000FF4800002000F2000814F20008FA
:1058400024F20008C8290020CC290020BC28002010
:10585000C4280020183200200C32002058000020FC
:1058600014320020C1280020C828002008B5094BA8
:1058700093F9003003B108BD04210748FCF796FAFC
:10588000064B1870002001F021F8024B01221A701B
:10589000F1E700BFC128002000180240C028002006
:1058A00008B54020FCF7C0FA08BD000002689A4B1A
:1058B0009A4200D0704710B588B0984B1A7802F021
:1058C000F001974B1B78072B00F22783DFE803F0EA
:1058D00004282E404651571C902909D080290BD00E
:1058E000B0290DD0C02914D18D4B07221A7010E0B9
:1058F0008B4B01221A700CE0894B03221A7008E0CE
:10590000874B05221A7004E0864B1A60844B0022F4
:105910001A70012281498448FEF752FD08B010BD7B
:10592000824B1A607E4B02221A70F2E7804B1A609B
:105930007B4A002111707D4A10681968794B1A68FA
:105940007C4B03EB4212C9B2C0B200F06BFDE0E742
:10595000764B1A60724B04221A70DAE7744B1A60A5
:105960006F4B00221A70714B1868C0B200F0C8FB70
:10597000CFE7714B1A606A4B06221A70C9E76F4B6A
:105980001A60674B00221A706B4B1B68402B00F0AB
:105990008180694B1B68722B00F09E80664B1B68F0
:1059A0004C2B00F0D780644B1B684D2B00F0E78038
:1059B000614B1B68492B00F0F7805F4B1B68502B35
:1059C00000F005815C4B1B684B2B00F015815A4B96
:1059D0001B68512B00F02581574B1B684F2B00F0A3
:1059E0003581554B1B68522B00F04581524B1B688B
:1059F000482B00F05581504B1B68532B00F06581FC
:105A00004D4B1B684A2B00F075814B4B1B68472B95
:105A100000F08581484B1B68552B00F09581464B63
:105A20001B685D2B00F09F81434B1B68122B00F01D
:105A3000F381414B1B68132B00F01C823E4B1B680B
:105A4000102B00F04F823C4B1B68112B7FF461AF91
:105A500034490B68374A02EB4313DB893748046843
:105A600008684FF0640CB3FBFCF303EB830303EB18
:105A7000830304EB830402EB4013DC810B6802EB2D
:105A80004313DA892E492F4803F094FD2E4B14223C
:105A90001A603EE7294B1B683F2B03DD2B4B01228D
:105AA0001A7036E70024294B1C7001E00134E4B27F
:105AB000052C3FF62EAF04EB44031B01244AD35EB2
:105AC000002BF3DA204600F001FB04EB44031B013A
:105AD0001F4A0021D152E9E7184B1B68412B0FD018
:105AE000164B1B683F2B7FF414AF0E4A1368013B23
:105AF0001360002BBFF60DAF134600221A6008E7B3
